:020000040000FA
:1000000000008631802EFF348A012000911C412897
:10001000031022000D0D2000B3003308031D122829
:100020001030B30021008E0122008D012000330822
:10003000103A031928283308203A03192D283308C9
:10004000403A031932283308803A031937283B28ED
:1000500020006E0822008E003B282100200822008C
:100060008E003B282100210822008E003B28210021
:10007000250822008E002000330822008D00200079
:1000800091100900FF302000B6001F30B700C621D4
:10009000093021009D002000B801B9012000931D06
:1000A0006428883100208031280017196228FF3029
:1000B0002100A50003302000EE0059302100A100EE
:1000C0002100A000200093112000931CC5282000CF
:1000D000B80A0319B90A3608F70037088E2120003C
:1000E000B7007708B600093021009D001F242000CA
:1000F00038080F39031DC3283608F7003708C82011
:100100002000BB007708BA00153059262000BD003A
:100110007708BC003A08BE003B08BF003C083E0719
:100120002000EA0020003F082000EB0020003D08EE
:1001300003183D0A03199E282000EB07F021022432
:100140002000991FC3282200131EBC282000381E3F
:10015000BC28210022082000BA002000EE00210067
:1001600023082000BA002100A0002100240820005C
:10017000BA002100A100C3280130F60020006A085F
:10018000F7006B08DA242000931064004E28080062
:100190002000A0007708A1002030A200A301A40144
:1001A000A6010310200CA500210CAC000310A50C27
:1001B000AC0C0310A50CAC0C3F30AC05A5012C0811
:1001C000AE000310200CAC00A5011F302C05A100CF
:1001D000A0012108AC002C0AA1000230F700210880
:1001E0008C31C12480312000A000A5012008B83E38
:1001F000A0008730A10025080318250FA1070230B1
:10020000F7002C088C31C12481312000A500AD01FC
:100210002508B83EA5008730AC002D0803182D0F27
:10022000AC07AD0120002E082D02031C3A29250839
:10023000F6002C08F70080308C31A4248131200096
:10024000AF007708B000B1002F08B2000030B21B39
:10025000FF30B500B4003108A20732080318320F8E
:10026000A30734080318340FA40735080318350F03
:10027000A6075D2920002008F6002108F70080303D
:100280008C31A42481312000AF007708B000B10088
:100290002F08B2000030B21BFF30B500B4003108A7
:1002A000A20732080318320FA30734080318340FCB
:1002B000A40735080318350FA6072000AD0A403003
:1002C0002D02031C1229220E0F39A100230EA000BB
:1002D000F039A104A006240EAC00F039A004AC064D
:1002E000260EA500F039AC04A506F030A519A5042A
:1002F0000310A51B0314A50CAC0CA00CA10C03103F
:10030000A51B0314A50CAC0CA00CA10C2108A20089
:100310002008A3002208F700230808002000A000FE
:100320007708A10021009D1421009D1894291D101B
:100330002000210E0F39A200200EA300F039A204E4
:10034000A3062208A1022308031C230FA0022100F8
:100350001C082000A200A3012208A400A60121007D
:100360001B082000A200A3012208A6042308A4045D
:100370002608A2002408A3002208A10723080318C6
:10038000230FA0072108F700200808006A30210089
:1003900099000E308C0022008C0121008D0122007A
:1003A0008D0121008E01063023008C0021001E16D5
:1003B0009E1723008E01053020009C00FA309B0020
:1003C000210091147A30280097001715F430960018
:1003D00037309E00FA309D00C03020008B000800AE
:1003E0002200111DF6292100A901012C2200911CD7
:1003F000FA29012C20006C086D0403190C2A200036
:100400004108031D0A2A3C30C100FF302000EC07E0
:10041000031CED032000C1030A3021002902031848
:10042000012C82308A001830290703188A0A8200BA
:10043000222A5A2A6E2AB32ACB2A182B422B582B4F
:100440008B2BA22B2200111E2F2A003059262000B0
:10045000ED007708EC0001302100A900012C2200FA
:10046000931C412A183059262000E9007708E8003B
:10047000163059262000AC007708AE002100A700F6
:10048000492A163059262000AC007708AE0021001A
:10049000A600173059262000AC007708AE00AD004A
:1004A0002D0C0318552A22001110031C592A220072
:1004B0001114012C2100A60122009310111020001C
:1004C0006C086D04031D012C193059262000ED0025
:1004D0007708EC0002302100A900012C01305926D8
:1004E0002000E9007708E800023059262000AC001F
:1004F0007708AE002100A6002200111420006B082E
:10050000803E2000AF0020006908803E20002F02BE
:10051000031D8E2A2000680820006A02031CAB2AF3
:1005200022009314210026082100A70022001316A0
:1005300061302100A200C9302100A300FF3021005A
:10054000A400193059262000ED007708EC00033094
:100550002100A900012C20006C086D04031D012C52
:1005600022001115012C2200131AC32A9114200015
:10057000C201193059262000ED007708EC00043044
:100580002100A900012C20006C086D04031D012C22
:1005900022001115012C03102000420D2000AE0096
:1005A0000330AE072E0859262000E9007708E8003E
:1005B000023059262000AC007708AE002100A600CA
:1005C00022009310111420006B08803E2000AF0021
:1005D00020006908803E20002F02031DF32A20001E
:1005E000680820006A02031C102B220093140B30B1
:1005F00059262000AC007708AE002100A7000310A8
:100600002000420D2000AE000430AE072E0859260F
:100610002000ED007708EC0005302100A900012C36
:1006200020006C086D04031D012C22001115012C03
:1006300020006C086D04031D012C2000C20A043048
:10064000420203182D2B193059262000ED0077089F
:10065000EC0004302100A900012C22001316C13047
:100660002100A20083302100A300FF302100A4005C
:10067000193059262000ED007708EC0006302100E3
:10068000A900012C2200131A502B9114193059265D
:100690002000ED007708EC0007302100A900012CB4
:1006A00020006C086D04031D012C22001115012C83
:1006B000220093101110023059262000AD00770857
:1006C000AE002100A6000C3059262000AD007708AE
:1006D000AE0020006A082000AF0020006B08200058
:1006E000B0002D083002031D772B2E082F02031CAB
:1006F000832B0E3059262000ED007708EC000830DF
:100700002100A900012C20006C086D04031D012CA0
:1007100022001115012C0D3059262000AD0077085C
:10072000AE002100A60020006C086D04031D012C02
:10073000103059262000ED007708EC000930210028
:10074000A900012C0F3059262000AD007708AE001B
:100750002100A6002000AE01AD01113020002D07C0
:10076000AF0059262000B0007708AF0020006C06CB
:10077000031DE12B2000300820006D06031DE12B36
:100780003A3020004102031CE12B22001316D13025
:100790002100A20085302100A30020002E0AAF0016
:1007A000DF3EAF008C300318013EB0002F08F6008A
:1007B0003008F70080308C31922483312100A4006E
:1007C000E92B2000AD0A2D08AE0004302D02031CD9
:1007D000AD2B20006C086D04031D012C2100A60127
:1007E00022009310111513164B302100A200D130B6
:1007F0002100A300FF302100A400220011122100DB
:10080000A90108002200931C1E2C20006B08803ECA
:100810002000A00020006908803E20002002031D67
:10082000152C2000680820006A0203181C2C2100E7
:1008300027082100A6001E2C2100A6010800210087
:100840002808031D292C6430A80021002608200058
:10085000C0002100A80322000C102100A5142200D2
:10086000131E442C4C30210028022000A001A00DB2
:100870002008A100210C03183F2C22000C10031C9F
:10088000432C22000C14582C2200911C582C1119B6
:10089000582C2100280801392000A000A100210CBB
:1008A0000318542C2100A510031C582C2100A5145A
:1008B000220091185D2C111D652C22008C120C1247
:1008C00021008C1422008C10AB2C20004008210049
:1008D00028022000A001031C20142008A100210CE4
:1008E0000318742C22008C12031C782C22008C1606
:1008F000210028082000A000A1016430A0070318EF
:10090000A10A200040082000A200A3012108803E87
:10091000A4002308803E2402031D902C22082002FC
:100920002000A401031C24142408A000200C031898
:100930009B2C22000C12031C9F2C22000C16220060
:10094000111CA72C21008C1022008C10AB2C210034
:100950008C1422008C102000A00122008C1EB22CCE
:100960002000A00A20002008003003190130A20056
:10097000A000200C0318BE2C2100A511031CC22CC2
:100980002100A5152000A00122000C1EC92C20006A
:10099000A00A20002008003003190130A200A000A6
:1009A000200C0318D52C2100A513031CD92C2100E1
:1009B000A51708002000AE007708AD007608AF004C
:1009C0000314AE1F0310031CEE2C2100251220007F
:1009D000AD09AE09AD0A0319AE0AF02C21002516A7
:1009E000003020002F040319F82C2100A512251532
:1009F00020002E08803E7D3E031D002DE8302D0294
:100A0000031C102D20002D08B0002E08B100300866
:100A1000F7003108B3252000AE007708AD00AF0124
:100A200020002E08803E803E031D182D64302D02CC
:100A3000031C4C2D20002D08B0002E08B100B2017F
:100A400020003108803E803E031D282D6430300296
:100A5000031C312D9C302000B007031CB103B20AE7
:100A6000202D20003008AD003108AE000F30B20557
:100A70003208DF3EB2008C300318013EB00032086D
:100A8000F6003008F70080308C3192248531200048
:100A9000B1002000EE004F2DFF302000EE002000BE
:100AA0002E08803E803E031D572D0A302D0203186C
:100AB000642D20002F08031D642D20006E082000E7
:100AC000B000FF3A03199A2D20002D08B0002E081F
:100AD000B100B20120003108803E803E031D722D1E
:100AE0000A303002031C7B2DF6302000B007031CB7
:100AF000B103B20A6A2D20003008AD003108AE0003
:100B00003208DF3EB2008C300318013EB0003208DC
:100B1000F6003008F70080308C31922485312000B7
:100B2000B1002100A00020002F0803199D2D2100F5
:100B300020109D2DFF302100A00020002D08AF00C7
:100B4000DF3EAD008C300318013EAE002D08F600EC
:100B50002E08F70080308C31922485312000AF00C0
:100B60002100A10008002000A0007708A1000310C8
:100B7000200CA200210CA3000310200CA400210CC7
:100B8000A6000310A40CA60C2608A307240803182B
:100B9000240FA207230E0F39A600220EA400F0395D
:100BA000A604A4062608A30724080318240FA207F6
:100BB0002208A600A4012608A30724080318240F6E
:100BC000A2070310A20CA30C0310A20CA30C031089
:100BD000A20CA30C0310230DA600220DA4000310E9
:100BE000A60DA40D0310A60DA40D0310230DA50042
:100BF000220DAC002508A6072C0803182C0FA4070B
:100C00002608A1022408031C240FA0020630A10715
:100C10000318A00A210E0F39A600200EA400F039F7
:100C2000A604A4062608A30724080318240FA20775
:100C30002308F700220808002000A7007708A90071
:100C40007608A800270859262000AB007708AA00DC
:100C50002806031D2F2E2B0829060319582E0310D2
:100C60002000270DAA0020002A0823009100200060
:100C700028082300930015139513151520008B13D6
:100C8000553023009600AA309600951420008B174B
:100C900023001511230095184A2E2000121220005F
:100CA0002908A800A9012A08A700AA0A271C332E90
:100CB00008002000A000A101A2010310200DA30044
:100CC0002000230823009100151395131514130811
:100CD0002000A000A4012008A600A5012208A00071
:100CE000A40120082504A10024082604A20023084A
:100CF000A000A30A201C602E2108F700220808008B
:100D00006830F6008730F70080308C31A4248631BB
:100D10002000D8007708D7006A30D9008730DA0081
:100D200020005708DB005808DC00FF30D707031C01
:100D3000D8035B085C040319FD2E04305907DB005F
:100D4000DC01DC0D5A08DC075B08F6005C08F700E4
:100D500080308C31A42486312000DE007708DD004D
:100D60005908F6005A08F70080308C31A4248631E7
:100D70002000E000DC007708DF00DB0002305907CC
:100D8000DB00DC01DC0D5A08DC075B08F6005C08C0
:100D9000F70080308C31A42486312000DC00E20092
:100DA0007708DB00E10020005D08E1005E08E2005A
:100DB000FF30DD07031CDE03610862040319F72E10
:100DC0005F08F6006008F70080308C31922486318D
:100DD0002000E1005B0884005C0885006108800059
:100DE000DF0A0319E00ADB0A0319DC0AD32E0630F6
:100DF0002000D9070318DA0A902E80314228080013
:100E000061348534FF3402346134C934FF34003432
:100E100061340334FF3403341934C934B734003433
:100E200019348534B73402341934C9340D340034DC
:100E3000193485340D3402341934C934253400345E
:100E400019348534253402341934C934B1340034AA
:100E500019348534B134023419340334FF34033483
:100E60009134C934FF34003491340334FF340334F3
:100E700091348534FF340234C1340334FF340334F5
:100E8000C1348534FF340234D1348534B73402346C
:100E9000D13485340D340234D134853425340234D0
:100EA000D1348534B1340234C934CD34FF34013403
:100EB000CD340334FF340334CD341934FF340434D7
:100EC000CD34613419340034113461348534023442
:100ED0000D34003403340034A534003401340034BC
:100EE000F83407346834003402340034FA340734F8
:100EF0006A34003402340034FE340734A63400343B
:100F000001340034FF340734A73400340134003492
:100F1000E9340C34A834003401340034EA340C349D
:100F2000A934003401340034FC3407346C34003408
:100F300002340034EB340C34AA340034013400346D
:100F4000EC340C34AB34003401340034ED340C3464
:100F5000AC34003401340034EE340C34AD3400349D
:100F600001340034EF340C34AE3400340134003436
:100F700000340034D534FD34C134FE345934FF34E8
:100F8000CF34FF343034003486340034D33400346A
:100F90001A3401345C3401349C340134DA340134C1
:100FA00016340234513402348C340234C7340234DF
:100FB000023403343F3403347D340334BD3403340A
:100FC000013404344834043494340434E5340434AF
:100FD0003F340534A4340534173406349E340634C3
:100FE000443407341E3408345D340934AB340B34D4
:100FF0000034003400340034003400340034003451
:1010000020008B1322000D082000D00021000E08C4
:101010002000D10022008D01D83021008E00031065
:1010200021002D0D2000D200D30120008E1F1A2890
:101030002000D30A20005208D4005308D2005404E0
:101040002100AD0003102D0D2000D200D30120009F
:101050000E1E2C282000D30A20005208D40053086A
:10106000D20054042100AD0003102D0D2000D20049
:10107000D30120000E1F3E282000D30A2000520872
:10108000D4005308D20054042100AD0003102D0DEC
:101090002000D200D30120008E1D50282000D30A4A
:1010A00020005208D4005308D20054042100AD009F
:1010B0002000500822008D002000510821008E00E1
:1010C00020008B1721002C08031DAC0308302100E1
:1010D0002A0203184A2C88308A0072302A07031823
:1010E0008A0A82007A28CF2813298529A2290C2A66
:1010F000772AFF2A2200131E892821002D080F3984
:10110000031D89282D08F03903198928220013129C
:101110004C2C883021002D052000D000803A031D82
:10112000A828D0012200911C97282000D00A200076
:101130005008003003190130D100D000500C0318C2
:10114000A32822009110031CA728220091144C2CE4
:10115000443021002D052000D000403A031DB42862
:1011600004302100AA004C2C223021002D05200043
:10117000D000223A031DC02801302100AA004C2CC7
:10118000113021002D052000D000113A031D4C2CF8
:1011900014302100AC0002302100AA004C2C2200A7
:1011A000111DDE2803302000EE0059302100A00080
:1011B0002100A100FF302100A50008292200911C78
:1011C000EE2819302000EE0061302100A0004930E7
:1011D0002100A100FF302100A50008292200931C56
:1011E000FB280130F60020006808F7006908843108
:1011F000DA2488310829210026082000D000D101F6
:101200000030F6005008F70051088431DA248931A3
:10121000223021002D052000D000223A03194C2C49
:101220002100AA014C2C2200111D2229033020008C
:10123000EE0059302100A0002100A100FF30210064
:10124000A50063292200111E5529FF302100A100AD
:101250002100A5000430210029020318362961303D
:101260002000EE00C9302100A000632906302100D3
:1012700029020318422919302000EE00FF30210016
:10128000A000632909302100290203184E2991305A
:101290002000EE00C1302100A0006329C1302000F1
:1012A000EE00FF302100A00063292200931C632977
:1012B000C9302000EE00D1302100A000FF30210015
:1012C000A1002100A500003021002C04031D7A2973
:1012D0001430AC0021002908013A031977292908A4
:1012E000053A0319772909302902031C7A290330AA
:1012F0002100AA00113021002D052000D000113A54
:1013000003194C2C2100AA014C2C0030F6002000BF
:101310006C08F7006D088431DA24893121002C082B
:10132000031D97291430AC0002302100AA001130AF
:1013300021002D052000D000113A03194C2C21006A
:10134000AA014C2C21002B082000C30021002516E7
:10135000A5162515A5141A30200043020318FC29F0
:101360000430F70043088C31C12489312000C400C7
:10137000C5014408003EC3008730C6004508031875
:10138000450FC6074308F6004608F70080308C3149
:10139000922489312000C7002000EE00200044087C
:1013A000003EC40045080318450F873EC5000130C4
:1013B0004407C300C601C60D4508C6074308F6002A
:1013C0004608F70080308C31922489312000C70014
:1013D0002100A00002302000C4070318C50A4408F9
:1013E000F6004508F70080308C31922489312000C6
:1013F000C3002100A100052ADD302000EE0083306B
:101400002100A000D5302100A1006E302100AC00E9
:1014100005302100AA004C2C003021002C040319B7
:10142000192A883021002D052000D000803A031DA4
:101430001C2A2100AA014C2C223021002D0520005D
:10144000D000203A031D2E2A2100AB0A1B302B02AC
:101450000318AB0104302100AA004C2C11302100EC
:101460002D052000D000103A031D422A2100AB03B5
:101470001B302B02031C3E2A1A30AB000430210023
:10148000AA004C2C443021002D052000D000403A09
:10149000031D4C2C1A3021002B020318582A2B084C
:1014A000863159268A312000D6007708D500732A64
:1014B0002200111D5F2A2000D501D601732A2200C7
:1014C000111E672A01302000D500D601732A2200A0
:1014D000931C6F2A02302000D500D601732A0330F6
:1014E0002000D500D60106302100AA004C2C1A306D
:1014F00021002B020318B62A0430F7002B088C3188
:10150000C1248A312000D000D1015008003ED00013
:1015100051080318510F873ED1000330D00703183C
:10152000D10A5008F6005108F70080308C3192241F
:101530008A312000D20052080319A22A5208013A27
:10154000031DAC2A0130F60020005508F7005608AC
:101550008431DA248A31F82A0030F6002000550858
:10156000F70056088431DA248A31F82A210025163A
:10157000A5162515A514200055085604031DC92AD3
:1015800003302000EE0059302100A0002100A1000E
:10159000F82A20005508013A031DDC2A5608003AB3
:1015A000031DDC2A19302000EE00DD302100A000F0
:1015B000FF302100A100F82A20005508023A031D3F
:1015C000EF2A5608003A031DEF2ACD302000EE0026
:1015D000C9302100A000FF302100A100F82ACD3041
:1015E0002000EE0003302100A000FF302100A10008
:1015F0006E302100AC0007302100AA004C2C0030D6
:1016000021002C04031D072B2100AA014C2C88303B
:1016100021002D052000D000803A031D132B04303B
:101620002100AA004C2C2100AD1E292B2000D50A38
:101630000319D60A5608803E7D3E031D212BE93052
:101640005502031C3F2B09302000D5070318D60A8A
:101650003F2B21002D1E002CFF302000D507031C3E
:10166000D6035608803E7D3E031D382BE9305502D7
:10167000031C3F2BF7302000D507031CD6032000A6
:101680005508F6005608F70021002B082000CA0074
:101690007708CC007608CB001A304A020318DC2BFE
:1016A0000430F7004A088C31C1248B312000CD0072
:1016B000CE014D08003ECA008730CF004E08031807
:1016C0004E0FCF070330CA070318CF0A4A08F600A7
:1016D0004F08F70080308C3192248B312000CD00F0
:1016E0004D08031D842BC430F3000930F400703022
:1016F000F500FE30F6004B08F7004C085E24200091
:10170000CC007708CB00ED2B20004D08013A031DDB
:101710009A2B6430F3000030F4009C30F500FF3069
:10172000F6004B08F7004C085E242000CC00770838
:10173000CB00ED2B20004D08023A031DB02BE73003
:10174000F3000330F4000030F5000030F6004B08E1
:10175000F7004C085E242000CC007708CB00ED2B6E
:1017600020004D08033A031DC62BC830F30000309B
:10177000F4000030F5000030F6004B08F7004C088C
:101780005E242000CC007708CB00ED2B20004D0814
:10179000043A031DED2B0130F3000030F40000305B
:1017A000F5000030F6004B08F7004C085E242000DE
:1017B000CC007708CB00ED2B0330F3000030F400B1
:1017C0000030F5000030F60020004B08F7004C0810
:1017D0005E242000CC007708CB0020004B08F700E7
:1017E0004C082000D6007708D5001F3028001D02C5
:1017F000031CFC2BF8309D0706302100AA004C2C5E
:10180000443021002D052000D000403A031D462C15
:101810001A3021002B020318182C20005508F6005E
:101820005608F70021002B0886311C268C31422CEB
:10183000200055085604031D232C220011151112F7
:1018400011109310422C20005508013A031D302C32
:101850005608003A031D302C220011111116422C9B
:1018600020005508023A031D3E2C5608003A031D7D
:101870003E2C2200111111129314422C220011113E
:101880001112931004302100AA004C2CFA302800C9
:101890009D004C2C2100AA0121002A0800300319C8
:1018A00001302000D000D100510C0318592C200029
:1018B0009913031C5D2C2000991708002000C30019
:1018C0007708C4007608C5007508C6007408C7000C
:1018D0007308C8004708803EC9004308803E49029B
:1018E000031D742C4408480203187B2C2000460872
:1018F000F7004508912C20004308803EC9004508A8
:10190000803E4902031D862C4608440203188D2C94
:1019100020004808F7004708912C20004408F700F1
:1019200043080800003A0319992C803A03199F2CA8
:1019300000347608840077088500000808007708DE
:101940008A00760882000800003A0319AC2C803A1D
:101950000319B42CF7010034760884007708850059
:101960001200F700000808008C319F24F500F60FE4
:10197000F703F70A8C319F24F4007508F700740808
:1019800008002000E3007708E400E5010830E600E5
:101990002000631CCD2C6408E50720006308E700E5
:1019A0000310670CE3000310640DE700E400660316
:1019B000E700E6006708031DC82C6508080003342B
:1019C000B7340D342534B134613441343734013403
:1019D0002134003400340034003400340034003446
:020000040001F9
:02000E00D40F0D
:02001000FF3AB5
:00000001FF
