:020000040000FA
:1000000000008631852EFF348A012000911C46288D
:10001000031022000D0D2000B3003308031D122829
:100020001030B30021008E0122008D012000330822
:10003000103A031928283308203A03192D283308C9
:10004000403A031932283308803A031937283B28ED
:100050002100240822008E003B28210025082200D0
:100060008E003B282100260822008E003B2821001C
:100070002A0822008E002000330822008D00003064
:1000800021003004031DB00320009110090020005E
:10009000B401B501AE212000B6012000931D6028F7
:1000A000883100208031280017195E280330210094
:1000B000A40059302100A6002100A50020009311C2
:1000C000003021003004031D6E2816305E2620000B
:1000D000B8007708B7002100B00020242000931C4E
:1000E000AB292000B60A36080F39031D8C292030B1
:1000F000B700B801B901BA010310350CBC00340CCB
:10010000BB000310BC0CBB0C0310BC0CBB0C3F3081
:10011000BB05BC013B08BD000310350CBB00BC0196
:100120001F30BB05BC013B08BE003E0ABB000230CD
:10013000F7003B088D31562580312000BC00BF01FF
:100140003C08163EBC008D30BB003F0803183F0F33
:10015000BB070230F7003E088D3156258031200064
:10016000BF00C0013F08163EBF008D30BE004008F2
:100170000318400FBE07C00120003D084002031CC9
:10018000E4283F08F6003E08F70080308731DF277B
:1001900080312000C2007708C100C3004208C400BB
:1001A0000030C41BFF30C600C5004308B707440831
:1001B0000318440FB80745080318450FB907460848
:1001C0000318460FBA07072920003C08F6003B0831
:1001D000F70080308731DF2780312000C2007708A8
:1001E000C100C3004208C4000030C41BFF30C60079
:1001F000C5004308B70744080318440FB80745086B
:100200000318450FB90746080318460FBA07200020
:10021000C00A40304002031CBC28370E0F39BB0017
:10022000380EBC00F039BB04BC06390EBD00F039F5
:10023000BC04BD063A0EBE00F039BD04BE06F03067
:10024000BE19BE040310BE1B0314BE0CBD0CBC0CB7
:10025000BB0C0310BE1B0314BE0CBD0CBC0CBB0CB2
:1002600015305E262000B8007708B700B9003808BE
:10027000BA00BF01C0013908BB073A0803183A0F9A
:10028000BC073F0803183F0FBD0740080318400F85
:10029000BE073B082100A00020003C082100A1006F
:1002A0002000B401B501DD2103242000991F8C2911
:1002B0002200131E71292000361E712921002708F3
:1002C0002000B7002100A400210028082000B7006A
:1002D0002100A500210029082000B7002100A60068
:1002E0008C292200111E852921002E08093A0319A4
:1002F0007D292E08013A031D85290030F6002100D2
:100300002208F7002308DB248C290130F6002100A5
:100310002008F7002108DB2421001C082000B7007A
:10032000B8013708BA00B90121001B082000B70046
:10033000B8013708B9043808BA043908B7003A08D0
:10034000B8003708B40738080318380FB50721007C
:100350009D142000931064004D2808006A3021008D
:1003600099000C308C0022008C0124008C1021009C
:100370008D0122008D0121008E01023023008C00AE
:1003800021001E169E1709309D009D1423008E012A
:10039000053020009C00FA309B00210091147A3037
:1003A000280097001715F430960037309E00FA3079
:1003B0009D00C03020008B0008002200111DE329A1
:1003C0002100AE01022C2200911CE729022C210001
:1003D000220823040319F92920004808031DF729DE
:1003E0003C30C800FF302100A207031CA3032000FB
:1003F000C8030A3021002E020318022C82308A0022
:1004000005302E0703188A0A82000F2A472A5B2A22
:10041000A42ABC2A192B432B592B8C2BA32B22004B
:10042000111E1C2A00305E262100A3007708A200BE
:1004300001302100AE00022C2200931C2E2A19301C
:100440005E262000EF007708EE0017305E262000C1
:10045000AC007708AE002100AC00362A17305E26CB
:100460002000AC007708AE002100AB0018305E26FB
:100470002000AC007708AE00AD002D0C0318422A16
:1004800022001110031C462A22001114022C210004
:10049000AB01220093101110210022082304031D38
:1004A000022C1A305E262100A3007708A200023039
:1004B0002100AE00022C01305E262000EF007708FC
:1004C000EE0002305E262000AC007708AE0021006E
:1004D000AB002200111421002108803E2000AF0053
:1004E00020006F08803E20002F02031D7B2A200081
:1004F0006E0821002002031C9C2A220093140B305A
:100500005E262000AC007708AE002100AC0022007F
:10051000131661302100A700C9302100A800FF3068
:100520002100A9001A305E262100A3007708A2004E
:1005300003302100AE00022C210022082304031DF9
:10054000022C22001115022C2200131AB42A911435
:100550002100AF011A305E262100A3007708A20017
:1005600004302100AE00022C210022082304031DC8
:10057000022C22001115022C031021002F0D200047
:10058000AE000330AE072E085E262000EF0077088D
:10059000EE0002305E262000AC007708AE0021009D
:1005A000AB0022009310111421002108803E20008E
:1005B000AF0020006F08803E20002F02031DE42AB8
:1005C00020006E08210020020318F62A03102100E3
:1005D0002F0D2000AE000430AE072E085E2620004E
:1005E000AC007708AE002C04031D112B22009314DD
:1005F0000B305E262000AC007708AE002100AC0076
:10060000031021002F0D2000AE000430AE072E088D
:100610005E262100A3007708A20005302100AE006D
:10062000022C210022082304031D022C2200111594
:10063000022C210022082304031D022C2100AF0AF2
:1006400004302F0203182E2B1A305E262100A3003F
:100650007708A20004302100AE00022C22001316FD
:10066000C1302100A70083302100A800FF30210005
:10067000A9001A305E262100A3007708A2000630E8
:100680002100AE00022C2200131A512B91141A30B3
:100690005E262100A3007708A20007302100AE00EB
:1006A000022C210022082304031D022C2200111514
:1006B000022C22009310111002305E262000AD00A3
:1006C0007708AE002100AB000C305E262000AD00A4
:1006D0007708AE00210020082000AF00210021088B
:1006E0002000B0002D083002031D782B2E082F02A9
:1006F000031C842B0E305E262100A3007708A20085
:1007000008302100AE00022C210022082304031D22
:10071000022C22001115022C0D305E262000AD00A7
:100720007708AE002100AB00210022082304031D3E
:10073000022C10305E262100A3007708A2000930A9
:100740002100AE00022C0F305E262000AD0077089D
:10075000AE002100AB002000AE01AD011130200041
:100760002D07AF005E262000B0007708AF00210003
:100770002206031DE22B2000300821002306031D62
:10078000E22B3A3020004802031CE22B2200131611
:10079000D1302100A70085302100A80020002E0ABA
:1007A000AF00743EAF008D300318013EB0002F083B
:1007B000F6003008F70080308731CD2783312100E3
:1007C000A900EA2B2000AD0A2D08AE0004302D024E
:1007D000031CAE2B210022082304031D022C210040
:1007E000AB0122009310111513164B302100A70006
:1007F000D1302100A800FF302100A90022001112F1
:100800002100AE0108002200931C1F2C21002108AA
:10081000803E2000A00020006F08803E20002002C3
:10082000031D162C20006E082100200203181D2C29
:1008300021002C082100AB001F2C2100AB01080077
:1008400021002D08031D2A2C6430AD0021002B0847
:100850002000C7002100AD0322000C102100AA14C3
:100860002200131E452C4C3021002D022000A00137
:10087000A00D2008A100210C0318402C22000C1010
:10088000031C442C22000C14592C2200911C592CBE
:100890001119592C21002D0801392000A000A100B8
:1008A000210C0318552C2100AA10031C592C2100DF
:1008B000AA14220091185E2C111D662C22008C12A5
:1008C0000C1221008C1022008C10AC2C2000470848
:1008D00021002D022000A001031C20142008A100EB
:1008E000210C0318752C22008C12031C792C220079
:1008F0008C1621002D082000A000A1016430A00763
:100900000318A10A200047082000A200A301210823
:10091000803EA4002308803E2402031D912C22085F
:1009200020022000A401031C24142408A000200C91
:1009300003189C2C22000C12031CA02C22000C1665
:100940002200111CA82C21008C1422008C10AC2C2D
:1009500021008C1022008C102000A00122008C1E8F
:10096000B32C2000A00A2000200800300319013019
:10097000A200A000200C0318BF2C2100AA11031C08
:10098000C32C2100AA152000A00122000C1ECA2C95
:100990002000A00A20002008003003190130A20026
:1009A000A000200C0318D62C2100AA13031CDA2C5B
:1009B0002100AA1708002000AE007708AD007608D5
:1009C000AF000314AE1F0310031CEF2C21002A12EA
:1009D0002000AD09AE09AD0A0319AE0AF12C2100C1
:1009E0002A1620002F08013A031DFA2C2100AA1212
:1009F0002A11FD2C2100AA162A1520002E08803E5F
:100A00007D3E031D052DE8302D02031C152D200011
:100A10002D08B0002E08B1003008F7003108B825C5
:100A20002000AE007708AD00AF0120002E08803E08
:100A3000803E031D1D2D64302D02031C512D20000E
:100A40002D08B0002E08B100B20120003108803E10
:100A5000803E031D2D2D64303002031C362D9C304A
:100A60002000B007031CB103B20A252D2000300876
:100A7000AD003108AE000F30B2053208743EB2004E
:100A80008D300318013EB0003208F6003008F70040
:100A900080308731CD2785312000B1002100A400AE
:100AA000542DFF302100A40020002E08803E803EFF
:100AB000031D5C2D0A302D020318692D20002F081C
:100AC000031D692D210024082000B000FF3A0319FE
:100AD0009F2D20002D08B0002E08B100B20120008B
:100AE0003108803E803E031D772D0A303002031C02
:100AF000802DF6302000B007031CB103B20A6F2D21
:100B000020003008AD003108AE003208743EB2005B
:100B10008D300318013EB0003208F6003008F700AF
:100B200080308731CD2785312000B1002100A5001C
:100B300020002F080319A22D21002510A22DFF301F
:100B40002100A50020002D08AF00743EAD008D30BF
:100B50000318013EAE002D08F6002E08F700803085
:100B60008731CD2785312000AF002100A600080085
:100B70002000A0007708A1000310200CA200210C87
:100B8000A3000310200CA400210CA6000310A40C49
:100B9000A60C2608A30724080318240FA207230E77
:100BA0000F39A600220EA400F039A604A4062608D8
:100BB000A30724080318240FA2072208A600A401F3
:100BC0002608A30724080318240FA2070310A20C69
:100BD000A30C0310A20CA30C0310A20CA30C031073
:100BE000230DA600220DA4000310A60DA40D0310D2
:100BF000A60DA40D0310230DA500220DAC002508A1
:100C0000A6072C0803182C0FA4072608A102240805
:100C1000031C240FA0020630A1070318A00A210E0E
:100C20000F39A600200EA400F039A604A406260859
:100C3000A30724080318240FA2072308F70022089B
:100C400008002000A7007708A9007608A800270858
:100C50005E262000AB007708AA002806031D342E6C
:100C60002B08290603195D2E03102000270DAA006A
:100C700020002A0823009100200028082300930068
:100C800015139513151520008B135530230096006E
:100C9000AA309600951420008B172300151123000D
:100CA00095184F2E2000121220002908A800A90133
:100CB0002A08A700AA0A271C382E08002000A00036
:100CC000A101A2010310200DA3002000230823008E
:100CD000910015139513151413082000A000A4010A
:100CE0002008A600A5012208A000A40120082504D0
:100CF000A10024082604A2002308A000A30A201CA7
:100D0000652E2108F700220808007130F6008730B0
:100D1000F70080308731DF2786312000DE0077083A
:100D2000DD007330DF008730E00020005D08E10067
:100D30005E08E200FF30DD07031CDE036108620489
:100D40000319022F04305F07E100E201E20D6008A1
:100D5000E2076108F6006208F70080308731DF277C
:100D600086312000E4007708E3005F08F6006008A1
:100D7000F70080308731DF2786312000E600E2006F
:100D80007708E500E10002305F07E100E201E20DD3
:100D90006008E2076108F6006208F70080308731DA
:100DA000DF2786312000E200E8007708E100E70055
:100DB00020006308E7006408E800FF30E307031C35
:100DC000E403670868040319FC2E6508F60066084A
:100DD000F70080308731CD2786312000E700610899
:100DE00084006208850067088000E50A0319E60AA6
:100DF000E10A0319E20AD82E06302000DF070318A3
:100E0000E00A952E80314728080061348534FF348C
:100E100002346134C934FF34003461340334FF34A4
:100E200003341934C934B734003419348534B73431
:100E300002341934C9340D340034193485340D3476
:100E400002341934C9342534003419348534253436
:100E500002341934C934B134003419348534B1340E
:100E6000023419340334FF3403349134C934FF3469
:100E7000003491340334FF34033491348534FF3427
:100E80000234C1340334FF340334C1348534FF34B5
:100E90000234D1348534B7340234D13485340D343E
:100EA0000234D134853425340234D1348534B1341C
:100EB0000234C934CD34FF34013419348534FF345D
:100EC0000434CD340334FF340334CD341934FF34C7
:100ED0000534CD346134193400341134613485342F
:100EE00002340F34003403340034AA3400340134A3
:100EF0000034FC3407346E34003402340034FE34E1
:100F00000734A03400340234003480340D34AB3460
:100F100000340134003481340D34AC3400340134F5
:100F2000003482340D34AD34003401340034833461
:100F30000D34AE340034013400347E340D34A23428
:100F400000340234003484340D34AF3400340134BE
:100F5000003485340D34B034003401340034863428
:100F60000D34B13400340134003487340D34B234DC
:100F700000340134003488340D34B3340034013487
:100F8000003489340D34B4340034013400348A34EC
:100F90000D34B534003401340034003A0319D42F31
:100FA000803A0319DA2F0034760884007708850028
:100FB0000008080077088A00760882000800003AD6
:100FC0000319E72F803A0319EF2FF7010034760851
:100FD0008400770885001200F700000808008731B8
:100FE000DA27F500F60FF703F70A8731DA27F4005E
:100FF0007508F70074080800003400340034003429
:1010000020008B1322000D082000D60021000E08BE
:101010002000D70022008D01D83021008E0003105F
:101020002100340D2000D800D90120008E1F1A287D
:101030002000D90A20005808DA005908D8005A04BC
:101040002100B4000310340D2000D800D901200085
:101050000E1E2C282000D90A20005808DA00590852
:10106000D8005A042100B4000310340D2000D80029
:10107000D90120000E1F3E282000D90A2000580860
:10108000DA005908D8005A042100B4000310340DC6
:101090002000D800D90120008E1D50282000D90A38
:1010A00020005808DA005908D8005A042100B4007A
:1010B0002000560822008D002000570821008E00D5
:1010C00020008B1721003308031DB30308302100D3
:1010D00031020318CE2C88308A0072303107031891
:1010E0008A0A82007A28CF281329E429012A6B2A48
:1010F000D62A6D2B2200131E8928210034080F39AF
:10110000031D89283408F039031989282200131295
:10111000D02C8830210034052000D600803A031DF1
:10112000A828D6012200911C97282000D60A20006A
:101130005608003003190130D700D600560C0318AA
:10114000A32822009110031CA72822009114D02C60
:101150004430210034052000D600403A031DB42855
:1011600004302100B100D02C2230210034052000B1
:10117000D600223A031DC02801302100B100D02C36
:101180001130210034052000D600113A031DD02C67
:1011900014302100B30002302100B100D02C220015
:1011A000111DDE2803302100A40059302100A500C4
:1011B0002100A600FF302100AA0008292200911C6E
:1011C000EE2819302100A40061302100A50049302B
:1011D0002100A600FF302100AA0008292200931C4C
:1011E000FB280130F60020006E08F7006F088431FC
:1011F000DB248831082921002B082000D600D701E4
:101200000030F6005608F70057088431DB24893196
:101210002230210034052000D600223A0319D02CB8
:101220002100B101D02C2200111D22290330210000
:10123000A40059302100A5002100A600FF302100A4
:10124000AA00C2292200111EA829FF302100A600F1
:101250002100AA0021002E08013A031D3629613021
:101260002100A40085302100A500C22921002E08FC
:10127000023A031D422961302100A400C930210037
:10128000A500C22921002E08043A031D6329193044
:101290002100A40083302100A50021002F08743E06
:1012A0002000D6008D300318013ED7005608F60006
:1012B0005708F70080308731CD2789312000D800CA
:1012C0002100A600C22921002E08053A031D842909
:1012D000FF302100A40019302100A50021002F08B3
:1012E000743E2000D6008D300318013ED70056080A
:1012F000F6005708F70080308731CD27893120006C
:10130000D8002100A600C22921002E08073A031D9B
:101310009029C1302100A40083302100A500C229FA
:1013200021002E08083A031D9C2991302100A400B9
:10133000C1302100A500C22921002E08093A031D51
:10134000C229C1302100A400FF302100A500C2291C
:101350002200931CB7294B302100A400C930210082
:10136000A500FF302100A6002100AA00C2294B30B1
:101370002100A40003302100A500FF302100A600B9
:101380002100AA00003021003304031DD9291430A4
:10139000B30021002E08013A0319D6292E08053A78
:1013A0000319D62908302E02031CD9290330210045
:1013B000B1001130210034052000D600113A031984
:1013C000D02C2100B101D02C0030F60021002208E1
:1013D000F70023088431DB24893121003308031D01
:1013E000F6291430B30002302100B1001130210081
:1013F00034052000D600113A0319D02C2100B10188
:10140000D02C210032082000C90021002A16AA167B
:101410002A15AA141B302000490203185B2A043045
:10142000F70049088D3156258A312000CA00CB01CA
:101430004A08053EC9008730CC004B0803184B0F03
:10144000CC074908F6004C08F70080308731CD27DB
:101450008A312000CD002100A40020004A08053E6A
:10146000CA004B0803184B0F873ECB0001304A07D8
:10147000C900CC01CC0D4B08CC074908F6004C083C
:10148000F70080308731CD278A312000CD00210040
:10149000A50002302000CA070318CB0A4A08F6004C
:1014A0004B08F70080308731CD278A312000C900F2
:1014B0002100A600642ADD302100A4008330210031
:1014C000A500D5302100A6006E302100B300053004
:1014D0002100B100D02C0030210033040319782AF8
:1014E0008830210034052000D600803A031D7B2A75
:1014F0002100B101D02C2230210034052000D6007B
:10150000203A031D8D2A2100B20A1C303202031832
:10151000B20104302100B100D02C1130210034057B
:101520002000D600103A031DA12A2100B2031C306E
:101530003202031C9D2A1B30B20004302100B1008E
:10154000D02C4430210034052000D600403A031D41
:10155000D02C1B30210032020318B72A3208863102
:101560005E268A312000DC007708DB00D22A2200C8
:10157000111DBE2A2000DB01DC01D22A2200111E2F
:10158000C62A01302000DB00DC01D22A2200931C95
:10159000CE2A02302000DB00DC01D22A03302000FA
:1015A000DB00DC0106302100B100D02C1B30210013
:1015B00032020318242B0430F70032088D315625EF
:1015C0008A312000D600D7015608053ED6005708BC
:1015D0000318570F873ED7000330D6070318D70AE2
:1015E0005608F6005708F70080308731CD278A313A
:1015F0002000D80058080319012B5808013A031D90
:101600000B2B0130F60020005B08F7005C088431EA
:10161000DB248B31662B20005808043A031D1A2B5B
:101620000230F60020005B08F7005C088431DB2400
:101630008B31662B0030F60020005B08F7005C0859
:101640008431DB248B31662B21002A16AA162A1539
:10165000AA1420005B085C04031D372B0330210013
:10166000A40059302100A5002100A600662B20000F
:101670005B08013A031D4A2B5C08003A031D4A2B04
:1016800019302100A400DD302100A500FF30210029
:10169000A600662B20005B08023A031D5D2B5C0848
:1016A000003A031D5D2BCD302100A400C93021007C
:1016B000A500FF302100A600662BCD302100A4003C
:1016C00003302100A500FF302100A6006E3021006C
:1016D000B30007302100B100D02C003021003304CA
:1016E000031D752B2100B101D02C88302100340559
:1016F0002000D600803A031D812B04302100B10068
:10170000D02C2100B41E972B2000DB0A0319DC0A21
:101710005C08803E7D3E031D8F2BE9305B02031C7D
:10172000AD2B09302000DB070318DC0AAD2B2100AC
:10173000341E842CFF302000DB07031CDC035C0814
:10174000803E7D3E031DA62BE9305B02031CAD2BC2
:10175000F7302000DB07031CDC0320005B08F600E9
:101760005C08F700210032082000D0007708D20082
:101770007608D1001B3050020318602C0430F700AB
:1017800050088D3156258B312000D300D4015308E9
:10179000053ED0008730D50054080318540FD507F4
:1017A0000330D0070318D50A5008F6005508F70093
:1017B00080308731CD278B312000D3005308031DA3
:1017C000F22B7830F3000530F4007030F500FE3075
:1017D000F6005108F7005208E2242000D2007708F2
:1017E000D100712C20005308013A031D082C32301F
:1017F000F3000030F400CE30F500FF30F600510861
:10180000F7005208E2242000D2007708D100712CA2
:1018100020005308023A031D1E2CE730F30003306A
:10182000F4000030F5000030F6005108F7005208CF
:10183000E2242000D2007708D100712C2000530848
:10184000033A031D342CC830F3000030F40000309C
:10185000F5000030F6005108F7005208E22420009D
:10186000D2007708D100712C20005308043A031DE0
:101870004A2CC830F3000030F4000A30F500003084
:10188000F6005108F7005208E2242000D200770841
:10189000D100712C20005308053A031D712C013032
:1018A000F3000030F4000030F5000030F60051087D
:1018B000F7005208E2242000D2007708D100712CF2
:1018C0000330F3000030F4000030F5000030F60083
:1018D00020005108F7005208E2242000D2007708C7
:1018E000D10020005108F70052082000DC007708E2
:1018F000DB001F3028001D02031C802CF8309D07E0
:1019000006302100B100D02C4430210034052000E5
:10191000D600403A031DCA2C1B30210032020318A6
:101920009C2C20005B08F6005C08F70021003208C0
:10193000863121268C31C62C20005B085C04031DF7
:10194000A72C22001115111211109310C62C200083
:101950005B08013A031DB42C5C08003A031DB42C4B
:10196000220011111116C62C20005B08023A031D3B
:10197000C22C5C08003A031DC22C22001111111266
:101980009314C62C2200111111129310043021005F
:10199000B100D02CFA3028009D00D02C2100B101DC
:1019A000210031080030031901302000D600D70093
:1019B000570C0318DD2C20009913031CE12C200088
:1019C000991708002000C9007708CA007608CB00E4
:1019D0007508CC007408CD007308CE004D08803E19
:1019E000CF004908803E4F02031DF82C4A084E02E2
:1019F0000318FF2C20004C08F7004B08152D200081
:101A00004908803ECF004B08803E4F02031D0A2D3F
:101A10004C084A020318112D20004E08F7004D080B
:101A2000152D20004A08F70049080800003400344A
:101A30001A34FE349D34FE34F234FE343334FF3431
:101A40006934FF349834FF34C334FF34EB34FF344B
:101A500010340034333400345534003477340034D7
:101A600098340034B8340034D9340034FA340034B3
:101A70001C3401343E34013462340134873401347F
:101A8000AF340134D93401340734023439340234E8
:101A900070340234B0340234FB340234583403342A
:101AA000D134033482340434CA3405342000E900CC
:101AB0007708EA00EB010830EC002000691C622D79
:101AC0006A08EB0720006908ED0003106D0CE900BF
:101AD00003106A0DED00EA006C03ED00EC006D08E8
:101AE000031D5D2D6B0808000334B7340D34253415
:101AF000B13461344134373401342134003400349A
:101B00000034003400340034003400340034003435
:061B100000340034003433
:020000040001F9
:02000E00D40F0D
:02001000FF3AB5
:00000001FF
