:020000040000FA
:1000000000008631412EFF348A012000911C4128D6
:10001000031022000D0D2000B3003308031D122829
:100020001030B30021008E0122008D012000330822
:10003000103A031928283308203A03192D283308C9
:10004000403A031932283308803A031937283B28ED
:100050002100260822008E003B28210027082200CC
:100060008E003B282100280822008E003B2821001A
:100070002C0822008E002000330822008D00200072
:10008000911009002000B401B5017D210930210043
:100090009D002000B601B7012000931D6228883121
:1000A00000208031200018186028FF302100AC00AB
:1000B00003302100A60059302100A8002100A7002C
:1000C000200093112000931E7A292000B60A0319FC
:1000D000B70AE02320003608B8000F39031D58295D
:1000E0002030B800B901BA01BB010310350CBD00C6
:1000F000340CBC000310BD0CBC0C0310BD0CBC0CBC
:100100003F30BC05BD013C08BE000310350CBC00EF
:10011000BD011F30BC05BD013C08BF003F0ABC004B
:100120000230F7003C088C31F42480312000BD00FF
:10013000C0013D087F3EBD008730BC004008031869
:10014000400FBC070230F7003F088C31F4248031A7
:100150002000C000C10140087F3EC0008730BF00C2
:1001600041080318410FBF07C10120003E084102AA
:10017000031CDD284008F6003F08F7008030873177
:10018000D12780312000C3007708C200C400430893
:10019000C5000030C51BFF30C700C6004408B807C3
:1001A00045080318450FB90746080318460FBA0754
:1001B00047080318470FBB07002920003D08F60039
:1001C0003C08F70080308731D12780312000C30000
:1001D0007708C200C4004308C5000030C51BFF30CB
:1001E000C700C6004408B80745080318450FB907FB
:1001F00046080318460FBA0747080318470FBB07FE
:100200002000C10A40304102031CB528380E0F39C6
:10021000BC00390EBD00F039BC04BD063A0EBE006C
:10022000F039BD04BE063B0EBF00F039BE04BF0668
:10023000F030BF19BF040310BF1B0314BF0CBE0C6A
:10024000BD0CBC0C0310BF1B0314BF0CBE0CBD0CBB
:10025000BC0C3C082100A20020003D082100A300A6
:100260002000B401B501B121C3232000991F5829F2
:100270002200131E51292000361E51292100290871
:100280002000B8002100A60021002A082000B800A4
:100290002100A70021002B082000B8002100A800A1
:1002A00058290130F60021002208F70023089B247A
:1002B00021009D1858291C082000B800B9013808F1
:1002C000BB00BA0121001B082000B800B9013808A2
:1002D000BA043908BB043A08B8003B08B90038082A
:1002E000B40739080318390FB507093021009D00FC
:1002F0002000931264004C2808006A302100990005
:100300000E308C0022008C0121008D0122008D0115
:1003100021008E01063023008C0021001E169E173E
:1003200023008E01053020009C00FA309B00210044
:100330009114200098131813981218129815181574
:100340001814F43026009900243098000B309A00DD
:10035000373028009E00FA309D00C03020008B000E
:1003600008002200111DB7292100B001C22B220074
:10037000911CBB29C22B2100240825040319CD2977
:1003800020004908031DCB293C30C900FF30210063
:10039000A407031CA5032000C9030A302100300272
:1003A0000318C22B81308A00D930300703188A0A1B
:1003B0008200E3291B2A2F2A742A8C2AD92A032B8C
:1003C000192B4C2B632B2200111EF02900301A260A
:1003D0002100A5007708A40001302100B000C22B45
:1003E0002200931C022A18301A262100A100770847
:1003F000A00016301A262000AC007708AE002100BD
:10040000AE000A2A16301A262000AC007708AE008B
:100410002100AD0017301A262000AC007708AE008E
:10042000AD002D0C0318162A22001110031C1A2AE5
:1004300022001114C22B2100AD01220093101110D3
:10044000210024082504031DC22B19301A2621007F
:10045000A5007708A40002302100B000C22B0130B3
:100460001A262100A1007708A00002301A262000D9
:10047000AC007708AE002100AD002200111421006D
:100480002308803E2000AF0021002108803E20008C
:100490002F02031D4F2A2100200821002202031CE5
:1004A0006C2A2200931421002D082100AE002200A6
:1004B000131661302100A900C9302100AA00FF30C5
:1004C0002100AB0019301A262100A5007708A400EE
:1004D00003302100B000C22B210024082504031D95
:1004E000C22B22001115C22B2200131A842A911448
:1004F0002100B10119301A262100A5007708A400B7
:1005000004302100B000C22B210024082504031D63
:10051000C22B22001115C22B03102100310D200027
:10052000AE000330AE072E081A262100A10077087E
:10053000A00002301A262000AC007708AE0021008F
:10054000AD0022009310111421002308803E2000EA
:10055000AF0021002108803E20002F02031DB42A95
:100560002100200821002202031CD12A220093141A
:100570000B301A262000AC007708AE002100AE0038
:1005800003102100310D2000AE000430AE072E080C
:100590001A262100A5007708A40005302100B0002C
:1005A000C22B210024082504031DC22B2200111593
:1005B000C22B210024082504031DC22B2100B10AEF
:1005C000043031020318EE2A19301A262100A50042
:1005D0007708A40004302100B000C22B22001316BB
:1005E000C1302100A90083302100AA00FF30210082
:1005F000AB0019301A262100A5007708A4000630A8
:100600002100B000C22B2200131A112B91141930B3
:100610001A262100A5007708A40007302100B000A9
:10062000C22B210024082504031DC22B2200111512
:10063000C22B22009310111002301A262000AD00A8
:100640007708AE002100AD000C301A262000AD0066
:100650007708AE00210022082000AF002100230807
:100660002000B0002D083002031D382B2E082F0269
:10067000031C442B0E301A262100A5007708A40085
:1006800008302100B000C22B210024082504031DDE
:10069000C22B22001115C22B0D301A262000AD00EE
:1006A0007708AE002100AD00210024082504031DB9
:1006B000C22B10301A262100A5007708A4000930AB
:1006C0002100B000C22B0F301A262000AD007708A1
:1006D000AE002100AD002000AE01AD0111302000C0
:1006E0002D07AF001A262000B0007708AF002100C8
:1006F0002406031DA22B2000300821002506031D1F
:10070000A22B3A3020004902031CA22B2200131610
:10071000D1302100A90085302100AA0020002E0A36
:10072000AF00EE3EAF0087300318013EB0002F0847
:10073000F6003008F70080308731BF278331210071
:10074000AB00AA2B2000AD0A2D08AE0004302D020C
:10075000031C6E2B210024082504031DC22B21003D
:10076000AD0122009310111513164B302100A90082
:10077000D1302100AA00FF302100AB00220011126D
:100780002100B00108002200931CDF2B2100230868
:10079000803E2000A00021002108803E2000200291
:1007A000031DD62B21002008210022020318DD2B77
:1007B00021002E082100AD00DF2B2100AD01080033
:1007C00021002F08031DEA2B6430AF0021002D0803
:1007D0002000C8002100AF0322000C102100AC143F
:1007E0002200131E052C4C3021002F022000A001F6
:1007F000A00D2008A100210C0318002C22000C10D1
:10080000031C042C22000C14192C2200911C192CFE
:100810001119192C21002F0801392000A000A10076
:10082000210C0318152C2100AC10031C192C2100DD
:10083000AC14220091181E2C111D262C22008C12A3
:100840000C1221008C1422008C106C2C2000480803
:1008500021002F022000A001031C20142008A10069
:10086000210C0318352C22008C12031C392C220079
:100870008C1621002F082000A000A1016430A007E1
:100880000318A10A200048082000A200A3012108A3
:10089000803EA4002308803E2402031D512C220820
:1008A00020022000A401031C24142408A000200C12
:1008B00003185C2C22000C12031C602C22000C1666
:1008C0002200111C682C21008C1022008C106C2C32
:1008D00021008C1422008C102000A00122008C1E0C
:1008E000732C2000A00A20002008003003190130DA
:1008F000A200A000200C03187F2C2100AC11031CC7
:10090000832C2100AC152000A00122000C1E8A2C93
:100910002000A00A20002008003003190130A200A6
:10092000A000200C0318962C2100AC13031C9A2C59
:100930002100AC1708002000AE007708AD00760853
:10094000AF000314AE1F0310031CAF2C21002C12A8
:100950002000AD09AE09AD0A0319AE0AB12C210081
:100960002C16003020002F040319B92C2100AC12E2
:100970002C1520002E08803E7D3E031DC12CE83042
:100980002D02031CD12C20002D08B0002E08B10030
:100990003008F700310874252000AE007708AD005C
:1009A000AF0120002E08803E803E031DD92C64300C
:1009B0002D02031C0D2D20002D08B0002E08B100C3
:1009C000B20120003108803E803E031DE92C6430D6
:1009D0003002031CF22C9C302000B007031CB10332
:1009E000B20AE12C20003008AD003108AE000F3013
:1009F000B2053208EE3EB20087300318013EB00067
:100A00003208F6003008F70080308731BF27853183
:100A10002000B1002100A600102DFF302100A6000B
:100A200020002E08803E803E031D182D0A302D0226
:100A30000318252D20002F08031D252D2100260831
:100A40002000B000FF3A03195B2D20002D08B000F4
:100A50002E08B100B20120003108803E803E031D07
:100A6000332D0A303002031C3C2DF6302000B00735
:100A7000031CB103B20A2B2D20003008AD00310851
:100A8000AE003208EE3EB20087300318013EB000DF
:100A90003208F6003008F70080308731BF278531F3
:100AA0002000B1002100A70020002F0803195E2DAF
:100AB000210027105E2DFF302100A70020002D0807
:100AC000AF00EE3EAD0087300318013EAE002D08AA
:100AD000F6002E08F70080308731BF2785312000CF
:100AE000AF002100A80008002000A0007708A100A6
:100AF0000310200CA200210CA3000310200CA40062
:100B0000210CA6000310A40CA60C2608A307240899
:100B10000318240FA207230E0F39A600220EA400EB
:100B2000F039A604A4062608A30724080318240FF6
:100B3000A2072208A600A4012608A3072408031878
:100B4000240FA2070310A20CA30C0310A20CA30CE9
:100B50000310A20CA30C0310230DA600220DA40069
:100B60000310A60DA40D0310A60DA40D0310230D54
:100B7000A500220DAC002508A6072C0803182C0F91
:100B8000A4072608A1022408031C240FA002063093
:100B9000A1070318A00A210E0F39A600200EA400F9
:100BA000F039A604A4062608A30724080318240F76
:100BB000A2072308F700220808002000A7007708F2
:100BC000A9007608A80027081A262000AB0077089D
:100BD000AA002806031DF02D2B0829060319192E3B
:100BE00003102000270DAA0020002A0823009100EE
:100BF00020002808230093001513951315152000D5
:100C00008B13553023009600AA30960095142000CF
:100C10008B1723001511230095180B2E200012129C
:100C200020002908A800A9012A08A700AA0A271C51
:100C3000F42D08002000A000A101A2010310200D46
:100C4000A300200023082300910015139513151409
:100C500013082000A000A4012008A600A501220876
:100C6000A000A40120082504A10024082604A20055
:100C70002308A000A30A201C212E2108F700220827
:100C800008002930F6008730F70080308731D127FF
:100C900086312000DF007708DE002B30E00087304F
:100CA000E10020005E08E2005F08E300FF30DE079D
:100CB000031CDF03620863040319BE2E04306007BF
:100CC000E200E301E30D6108E3076208F600630850
:100CD000F70080308731D12786312000E500770882
:100CE000E4006008F6006108F70080308731D12702
:100CF00086312000E700E3007708E600E2000230DA
:100D00006007E200E301E30D6108E3076208F60013
:100D10006308F70080308731D12786312000E30057
:100D2000E9007708E200E80020006408E8006508B0
:100D3000E900FF30E407031CE503680869040319B0
:100D4000B82E6608F6006708F70080308731BF27A5
:100D500086312000E8006208840063088500680886
:100D60008000E60A0319E70AE20A0319E30A942E4F
:100D700006302000E0070318E10A512E8031422896
:100D8000080061348534FF3402346134C934FF34DF
:100D9000003461340334FF3403341934C934B734B4
:100DA000003419348534B73402341934C9340D345D
:100DB0000034193485340D3402341934C9342534DF
:100DC000003419348534253402341934C934B1342B
:100DD000003419348534B134023419340334FF3407
:100DE00003349134C934FF34003491340334FF3474
:100DF000033491348534FF340234C1340334FF3476
:100E00000334C1348534FF340234D1348534B734EB
:100E10000234D13485340D340234D1348534253450
:100E20000234D1348534B1340234C934CD34FF3482
:100E30000134CD340334FF340334CD341934FF345A
:100E40000434CD34613419340034113461348534C0
:100E500002340E34003403340034AC340034013432
:100E60000034F8340734A034003402340034FA3447
:100E70000734A234003402340034FE340734AD3475
:100E8000003401340034FF340734AE34003401340C
:100E9000003412340D34AF340034013400341334D0
:100EA0000D34B034003401340034FC340734A4343D
:100EB00000340234003414340D34B13400340134BD
:100EC000003415340D34B234003401340034163497
:100ED0000D34B33400340134003417340D34B434D9
:100EE00000340134003418340D34B5340034013486
:100EF000003419340D34B634003401340034003475
:100F00000034D534FD34C134FE345934FF34CF3489
:100F1000FF343034003486340034D33400341A348F
:100F200001345C3401349C340134DA340134163435
:100F30000234513402348C340234C7340234023463
:100F400003343F3403347D340334BD34033401347B
:100F500004344834043494340434E53404343F34E1
:100F60000534A4340534173406349E34063444342E
:100F700007341E3408345D340934AB340B34003A82
:100F80000319C62F803A0319CC2F00347608840049
:100F9000770885000008080077088A007608820034
:100FA0000800003A0319D92F803A0319E12FF701FD
:100FB000003476088400770885001200F7000008E6
:100FC00008008731CC27F500F60FF703F70A8731C1
:100FD000CC27F4007508F700740808000334B73410
:100FE0000D342534B1346134413437340134213483
:100FF0000034003400340034003400340034003451
:1010000020008B1322000D082000D70021000E08BD
:101010002000D80022008D01D83021008E0003105E
:101020002100350D2000D900DA0120008E1F1A287A
:101030002000DA0A20005908DB005A08D9005B04B6
:101040002100B5000310350D2000D900DA01200081
:101050000E1E2C282000DA0A20005908DB005A084E
:10106000D9005B042100B5000310350D2000D90024
:10107000DA0120000E1F3E282000DA0A200059085D
:10108000DB005A08D9005B042100B5000310350DC0
:101090002000D900DA0120008E1D50282000DA0A35
:1010A00020005908DB005A08D9005B042100B50074
:1010B0002000570822008D002000580821008E00D3
:1010C00020008B1721003408031DB40308302100D1
:1010D00032020318AC2C88308A00723032070318B1
:1010E0008A0A82007A28CF281329E729042A6E2A3F
:1010F000D92A612B2200131E8928210035080F39B7
:10110000031D89283508F039031989282200131294
:10111000AE2C8830210035052000D700803A031D11
:10112000A828D7012200911C97282000D70A200068
:101130005708003003190130D800D700570C0318A6
:10114000A32822009110031CA72822009114AE2C82
:101150004430210035052000D700403A031DB42853
:1011600004302100B200AE2C2230210035052000D1
:10117000D700223A031DC02801302100B200AE2C56
:101180001130210035052000D700113A031DAE2C87
:1011900014302100B40002302100B200AE2C220035
:1011A000111DDE2803302100A60059302100A700C0
:1011B0002100A800FF302100AC0008292200911C6A
:1011C000EE2819302100A60061302100A700493027
:1011D0002100A800FF302100AC0008292200931C48
:1011E000FB280130F60021002008F7002108843197
:1011F0009B248831082921002D082000D700D80120
:101200000030F6005708F700580884319B248931D4
:101210002230210035052000D700223A0319AE2CD8
:101220002100B201AE2C2200111D22290330210021
:10123000A60059302100A7002100A800FF3021009E
:10124000AC00C5292200111EAB29FF302100A800E7
:101250002100AC0021003008013A031D392961301A
:101260002100A600C9302100A70085302100A80078
:10127000C52921003008023A031D452961302100AB
:10128000A600C9302100A700C52921003008043A72
:10129000031D662983302100A60019302100A70014
:1012A00021003108EE3E2000D70087300318013EB0
:1012B000D8005708F6005808F70080308731BF275C
:1012C00089312000D9002100A800C529210030085B
:1012D000053A031D8729FF302100A600193021009F
:1012E000A70021003108EE3E2000D7008730031808
:1012F000013ED8005708F6005808F70080308731C3
:10130000BF2789312000D9002100A800C52921006C
:101310003008073A031D9329C1302100A60083300D
:101320002100A700C52921003008083A031D9F2984
:1013300091302100A600C1302100A700C52921005D
:101340003008093A031DC529C1302100A600FF302D
:101350002100A700C5292200931CBA294B30210087
:10136000A600C9302100A700FF302100A8002100FD
:10137000AC00C5294B302100A60003302100A70096
:10138000FF302100A8002100AC000030210034040F
:10139000031DDC291430B40021003008013A031980
:1013A000D9293008053A0319D92908303002031C1D
:1013B000DC2903302100B200113021003505200066
:1013C000D700113A0319AE2C2100B201AE2C003027
:1013D000F60021002408F700250884319B24893178
:1013E00021003408031DF9291430B4000230210013
:1013F000B2001130210035052000D700113A031941
:10140000AE2C2100B201AE2C210033082000CA000E
:1014100021002C16AC162C15AC141A3020004A02F0
:1014200003185E2A0430F7004A088C31F4248A310C
:101430002000CB00CC014B08C13ECA008630CD0055
:101440004C0803184C0FCD074A08F6004D08F7006A
:1014500080308731BF278A312000CE002100A600CE
:1014600020004B08C13ECB004C0803184C0F863EB1
:10147000CC0001304B07CA00CD01CD0D4C08CD0783
:101480004A08F6004D08F70080308731BF278A31BF
:101490002000CE002100A70002302000CB07031857
:1014A000CC0A4B08F6004C08F70080308731BF2784
:1014B0008A312000CA002100A800672ADD302100FF
:1014C000A60083302100A700D5302100A8006E308F
:1014D0002100B40005302100B200AE2C0030210004
:1014E000340403197B2A8830210035052000D700F9
:1014F000803A031D7E2A2100B201AE2C2230210049
:1015000035052000D700203A031D902A2100B30A98
:101510001B3033020318B30104302100B200AE2C9B
:101520001130210035052000D700103A031DA42AF0
:101530002100B3031B303302031CA02A1A30B3006E
:1015400004302100B200AE2C4430210035052000CB
:10155000D700403A031DAE2C1A3021003302031885
:10156000BA2A330886311A268A312000DD0077082E
:10157000DC00D52A2200111DC12A2000DC01DD017A
:10158000D52A2200111EC92A01302000DC00DD010D
:10159000D52A2200931CD12A02302000DC00DD0174
:1015A000D52A03302000DC00DD0106302100B20026
:1015B000AE2C1A30210033020318182B0430F70028
:1015C00033088C31F4248A312000D700D801570821
:1015D000C13ED70058080318580F863ED800033084
:1015E000D7070318D80A5708F6005808F7008030C4
:1015F0008731BF278A312000D90059080319042BED
:101600005908013A031D0E2B0130F60020005C083A
:10161000F7005D0884319B248B315A2B0030F60093
:1016200020005C08F7005D0884319B248B315A2B25
:1016300021002C16AC162C15AC1420005C085D049F
:10164000031D2B2B03302100A60059302100A700D9
:101650002100A8005A2B20005C08013A031D3E2BF4
:101660005D08003A031D3E2B19302100A600DD3035
:101670002100A700FF302100A8005A2B20005C08A1
:10168000023A031D512B5D08003A031D512BCD304A
:101690002100A600C9302100A700FF302100A800CA
:1016A0005A2BCD302100A60003302100A700FF30C7
:1016B0002100A8006E302100B40007302100B200E4
:1016C000AE2C003021003404031D692B2100B2012F
:1016D000AE2C8830210035052000D700803A031D4C
:1016E000752B04302100B200AE2C2100B51E8B2BCF
:1016F0002000DC0A0319DD0A5D08803E7D3E031DE3
:10170000832BE9305C02031CA12B09302000DC078D
:101710000318DD0AA12B2100351E622CFF302000AA
:10172000DC07031CDD035D08803E7D3E031D9A2B14
:10173000E9305C02031CA12BF7302000DC07031CFE
:10174000DD0320005C08F6005D08F7002100330887
:101750002000D1007708D3007608D2001A30510259
:1017600003183E2C0430F70051088C31F4248B31DF
:101770002000D400D5015408C13ED1008630D600E7
:1017800055080318550FD6070330D1070318D60A9A
:101790005108F6005608F70080308731BF278B319B
:1017A0002000D4005408031DE62BC430F300093098
:1017B000F4007030F500FE30F6005208F7005308D0
:1017C000C0242000D3007708D2004F2C20005408FA
:1017D000013A031DFC2B6430F3000030F4009C3010
:1017E000F500FF30F6005208F7005308C02420002F
:1017F000D3007708D2004F2C20005408023A031D72
:10180000122CE730F3000330F4000030F500003014
:10181000F6005208F7005308C0242000D3007708D0
:10182000D2004F2C20005408033A031D282CC83046
:10183000F3000030F4000030F5000030F6005208EC
:10184000F7005308C0242000D3007708D2004F2CA3
:1018500020005408043A031D4F2C0130F3000030DF
:10186000F4000030F5000030F6005208F70053088D
:10187000C0242000D3007708D2004F2C0330F3009F
:101880000030F4000030F5000030F600200052086F
:10189000F7005308C0242000D3007708D2002000AE
:1018A0005208F70053082000DD007708DC001F30E5
:1018B00028001D02031C5E2CF8309D070630210015
:1018C000B200AE2C4430210035052000D700403A4C
:1018D000031DA82C1A302100330203187A2C200093
:1018E0005C08F6005D08F700210033088531DD252E
:1018F0008C31A42C20005C085D04031D852C220083
:101900001115111211109310A42C20005C08013A3B
:10191000031D922C5D08003A031D922C2200111128
:101920001116A42C20005C08023A031DA02C5D08AF
:10193000003A031DA02C2200111111129314A42CA3
:10194000220011111112931004302100B200AE2CAC
:10195000FA3028009D00AE2C2100B201210032088F
:101960000030031901302000D700D800580C0318AC
:10197000BB2C20009913031CBF2C200099170800D2
:101980002000CA007708CB007608CC007508CD008F
:101990007408CE007308CF004E08803ED0004A087D
:1019A000803E5002031DD62C4B084F020318DD2C3D
:1019B00020004D08F7004C08F32C20004A08803E18
:1019C000D0004C08803E5002031DE82C4D084B020D
:1019D0000318EF2C20004F08F7004E08F32C2000CE
:1019E0004B08F7004A0808002000EA007708EB00DF
:1019F000EC010830ED0020006A1C002D6B08EC079C
:101A000020006A08EE0003106E0CEA0003106B0D54
:101A1000EE00EB006D03EE00ED006E08031DFB2CE5
:101A20006C08080000340034003400340034003402
:041A3000003400344A
:020000040001F9
:02000E00D40F0D
:02001000FF3AB5
:00000001FF
