:020000040000FA
:10000000000086313D2EFF348A012000911C4128DA
:10001000031022000D0D2000B3003308031D122829
:100020001030B30021008E0122008D012000330822
:10003000103A031928283308203A03192D283308C9
:10004000403A031932283308803A031937283B28ED
:100050002100240822008E003B28210025082200D0
:100060008E003B282100260822008E003B2821001C
:100070002A0822008E002000330822008D00200074
:10008000911009002000B401B50179210930210047
:100090009D002000B6012000931D612888310020BA
:1000A0008031200018185F28FF302100AA0003309B
:1000B0002100A40059302100A6002100A500200045
:1000C00093112000931E76292000B60ADC2320001D
:1000D00036080F39031D54292030B700B801B90183
:1000E000BA010310350CBC00340CBB000310BC0C6F
:1000F000BB0C0310BC0CBB0C3F30BB05BC013B0868
:10010000BD000310350CBB00BC011F30BB05BC019A
:100110003B08BE003E0ABB000230F7003B088C31B2
:10012000F12480312000BC00BF013C087B3EBC00B4
:100130000730BB003F0803183F0FBB070230F70032
:100140003E088C31F12480312000BF00C0013F08FF
:100150007B3EBF000730BE0040080318400FBE07BB
:10016000C00120003D084002031CD9283F08F600CA
:100170003E08F70080308731CD2780312000C20053
:100180007708C100C3004208C4000030C41BFF3020
:10019000C600C5004308B70744080318440FB80752
:1001A00045080318450FB90746080318460FBA0754
:1001B000FC2820003C08F6003B08F700803087311F
:1001C000CD2780312000C2007708C100C30042085B
:1001D000C4000030C41BFF30C600C5004308B70789
:1001E00044080318440FB80745080318450FB9071A
:1001F00046080318460FBA072000C00A40304002E4
:10020000031CB128370E0F39BB00380EBC00F03983
:10021000BB04BC06390EBD00F039BC04BD063A0E65
:10022000BE00F039BD04BE06F030BE19BE04031096
:10023000BE1B0314BE0CBD0CBC0CBB0C0310BE1BC0
:100240000314BE0CBD0CBC0CBB0C3B082100A00071
:1002500020003C082100A1002000B401B501AD211F
:10026000BF232000991F54292200131E4D2920006E
:10027000361E4D29210027082000B7002100A400C8
:10028000210028082000B7002100A500210029082E
:100290002000B7002100A60054290130F6002100FB
:1002A0002008F7002108972421009D1854291C08D4
:1002B0002000B700B8013708BA00B90121001B08B7
:1002C0002000B700B8013708B9043808BA04390863
:1002D000B7003A08B8003708B40738080318380FD1
:1002E000B507093021009D002000931264004B28BF
:1002F00008006A30210099000E308C0022008C0129
:1003000021008D0122008D0121008E010630230085
:100310008C0021001E169E1723008E010530200040
:100320009C00FA309B0021009114200098131813B0
:1003300098121812981118151814F4302600990004
:10034000243098000B309A00373028009E00FA3095
:100350009D00C03020008B0008002200111DB32931
:100360002100AE01BE2B2200911CB729BE2B21001B
:10037000220823040319C92920004808031DC7299E
:100380003C30C800FF302100A207031CA30320005B
:10039000C8030A3021002E020318BE2B01308A0048
:1003A000D5302E0703188A0A8200DF29172A2B2A44
:1003B000702A882AD52AFF2A152B482B5F2B22006A
:1003C000111EEC29003016262100A3007708A20098
:1003D00001302100AE00BE2B2200931CFE291830F4
:1003E00016262000EF007708EE00163016262000B3
:1003F000AC007708AE002100AC00062A16301626A5
:100400002000AC007708AE002100AB0017301626A4
:100410002000AC007708AE00AD002D0C0318122AA6
:1004200022001110031C162A22001114BE2B2100D9
:10043000AB01220093101110210022082304031D98
:10044000BE2B193016262100A3007708A200023027
:100450002100AE00BE2B013016262000EF007708E9
:10046000EE00023016262000AC007708AE00210016
:10047000AB002200111421002108803E2000AF00B3
:1004800020006F08803E20002F02031D4B2A200011
:100490006E0821002002031C682A22009314210008
:1004A0002B082100AC002200131661302100A700A8
:1004B000C9302100A800FF302100A90019301626FC
:1004C0002100A3007708A20003302100AE00BE2B5C
:1004D000210022082304031DBE2B22001115BE2B70
:1004E0002200131A802A91142100AF011930162618
:1004F0002100A3007708A20004302100AE00BE2B2B
:10050000210022082304031DBE2B22001115BE2B3F
:10051000031021002F0D2000AE000330AE072E087F
:1005200016262000EF007708EE0002301626200085
:10053000AC007708AE002100AB002200931011142C
:1005400021002108803E2000AF0020006F08803E7F
:1005500020002F02031DB02A20006E082100200277
:10056000031CCD2A220093140B3016262000AC0069
:100570007708AE002100AC00031021002F0D2000F1
:10058000AE000430AE072E0816262100A30077081F
:10059000A20005302100AE00BE2B2100220823045A
:1005A000031DBE2B22001115BE2B2100220823049F
:1005B000031DBE2B2100AF0A04302F020318EA2AC4
:1005C000193016262100A3007708A200043021006C
:1005D000AE00BE2B22001316C1302100A7008330CD
:1005E0002100A800FF302100A900193016262100A3
:1005F000A3007708A20006302100AE00BE2B220027
:10060000131A0D2B9114193016262100A300770818
:10061000A20007302100AE00BE2B210022082304D7
:10062000031DBE2B22001115BE2B220093101110AA
:10063000023016262000AD007708AE002100AB0086
:100640000C3016262000AD007708AE0021002008EF
:100650002000AF00210021082000B0002D0830024A
:10066000031D342B2E082F02031C402B0E301626A0
:100670002100A3007708A20008302100AE00BE2BA5
:10068000210022082304031DBE2B22001115BE2BBE
:100690000D3016262000AD007708AE002100AB001B
:1006A000210022082304031DBE2B10301626210032
:1006B000A3007708A20009302100AE00BE2B0F3046
:1006C00016262000AD007708AE002100AB00200008
:1006D000AE01AD01113020002D07AF00162620001D
:1006E000B0007708AF0021002206031D9E2B2000DA
:1006F000300821002306031D9E2B3A3020004802BB
:10070000031C9E2B22001316D1302100A700853038
:100710002100A80020002E0AAF00EA3EAF000730FB
:100720000318013EB0002F08F6003008F7008030B3
:100730008731BB2783312100A900A62B2000AD0AF9
:100740002D08AE0004302D02031C6A2B2100220864
:100750002304031DBE2B2100AB01220093101115B1
:1007600013164B302100A700D1302100A800FF3024
:100770002100A900220011122100AE010800220070
:10078000931CDB2B21002108803E2000A0002000CC
:100790006F08803E20002002031DD22B20006E082F
:1007A000210020020318D92B21002C082100AB00C6
:1007B000DB2B2100AB01080021002D08031DE62BD7
:1007C0006430AD0021002B082000C7002100AD03DC
:1007D00022000C102100AA142200131E012C4C3000
:1007E00021002D022000A001A00D2008A100210C55
:1007F0000318FC2B22000C10031C002C22000C14EC
:10080000152C2200911C152C1119152C21002D08D6
:1008100001392000A000A100210C0318112C210097
:10082000AA10031C152C2100AA14220091181A2CBE
:10083000111D222C22008C120C1221008C1422007B
:100840008C10682C2000470821002D022000A001F8
:10085000031C20142008A100210C0318312C2200B5
:100860008C12031C352C22008C1621002D08200030
:10087000A000A1016430A0070318A10A20004708C6
:100880002000A200A3012108803EA4002308803E8E
:100890002402031D4D2C220820022000A401031C69
:1008A00024142408A000200C0318582C22000C1239
:1008B000031C5C2C22000C162200111C642C21004D
:1008C0008C1022008C10682C21008C1422008C10BB
:1008D0002000A00122008C1E6F2C2000A00A200006
:1008E0002008003003190130A200A000200C0318DA
:1008F0007B2C2100AA11031C7F2C2100AA152000AB
:10090000A00122000C1E862C2000A00A2000200836
:10091000003003190130A200A000200C0318922C13
:100920002100AA13031C962C2100AA1708002000FE
:10093000AE007708AD007608AF000314AE1F0310B9
:10094000031CAB2C21002A122000AD09AE09AD0A10
:100950000319AE0AAD2C21002A16003020002F0406
:100960000319B52C2100AA122A1120002E08803E5E
:100970007D3E031DBD2CE8302D02031CCD2C200034
:100980002D08B0002E08B1003008F700310870259E
:100990002000AE007708AD00AF0120002E08803E99
:1009A000803E031DD52C64302D02031C092D200030
:1009B0002D08B0002E08B100B20120003108803EA1
:1009C000803E031DE52C64303002031CEE2C9C306D
:1009D0002000B007031CB103B20ADD2C2000300850
:1009E000AD003108AE000F30B2053208EA3EB20069
:1009F00007300318013EB0003208F6003008F70057
:100A000080308731BB2785312000B1002100A40050
:100A10000C2DFF302100A40020002E08803E803ED7
:100A2000031D142D0A302D020318212D20002F083C
:100A3000031D212D210024082000B000FF3A0319D6
:100A4000572D20002D08B0002E08B100B201200063
:100A50003108803E803E031D2F2D0A303002031CDA
:100A6000382DF6302000B007031CB103B20A272D41
:100A700020003008AD003108AE003208EA3EB20076
:100A800007300318013EB0003208F6003008F700C6
:100A900080308731BB2785312000B1002100A500BF
:100AA00020002F0803195A2D210025105A2DFF3040
:100AB0002100A50020002D08AF00EA3EAD00073060
:100AC0000318013EAE002D08F6002E08F700803016
:100AD0008731BB2785312000AF002100A600080028
:100AE0002000A0007708A1000310200CA200210C18
:100AF000A3000310200CA400210CA6000310A40CDA
:100B0000A60C2608A30724080318240FA207230E07
:100B10000F39A600220EA400F039A604A406260868
:100B2000A30724080318240FA2072208A600A40183
:100B30002608A30724080318240FA2070310A20CF9
:100B4000A30C0310A20CA30C0310A20CA30C031003
:100B5000230DA600220DA4000310A60DA40D031062
:100B6000A60DA40D0310230DA500220DAC00250831
:100B7000A6072C0803182C0FA4072608A102240896
:100B8000031C240FA0020630A1070318A00A210E9F
:100B90000F39A600200EA400F039A604A4062608EA
:100BA000A30724080318240FA2072308F70022082C
:100BB00008002000A7007708A9007608A8002708E9
:100BC00016262000AB007708AA002806031DEC2D8E
:100BD0002B0829060319152E03102000270DAA0043
:100BE00020002A08230091002000280823009300F9
:100BF00015139513151520008B13553023009600FF
:100C0000AA309600951420008B172300151123009D
:100C10009518072E2000121220002908A800A9010B
:100C20002A08A700AA0A271CF02D08002000A0000F
:100C3000A101A2010310200DA3002000230823001E
:100C4000910015139513151413082000A000A4019A
:100C50002008A600A5012208A000A4012008250460
:100C6000A10024082604A2002308A000A30A201C37
:100C70001D2E2108F700220808002530F600073055
:100C8000F70080308731CD2786312000DE007708DD
:100C9000DD002730DF000730E00020005D08E100C4
:100CA0005E08E200FF30DD07031CDE03610862041A
:100CB0000319BA2E04305F07E100E201E20D60087B
:100CC000E2076108F6006208F70080308731CD271F
:100CD00086312000E4007708E3005F08F600600832
:100CE000F70080308731CD2786312000E600E20012
:100CF0007708E500E10002305F07E100E201E20D64
:100D00006008E2076108F6006208F700803087316A
:100D1000CD2786312000E200E8007708E100E700F7
:100D200020006308E7006408E800FF30E307031CC5
:100D3000E403670868040319B42E6508F600660822
:100D4000F70080308731BB2786312000E70061083B
:100D500084006208850067088000E50A0319E60A36
:100D6000E10A0319E20A902E06302000DF0703187B
:100D7000E00A4D2E80314228080061348534FF346A
:100D800002346134C934FF34003461340334FF3435
:100D900003341934C934B734003419348534B734C2
:100DA00002341934C9340D340034193485340D3407
:100DB00002341934C93425340034193485342534C7
:100DC00002341934C934B134003419348534B1349F
:100DD000023419340334FF3403349134C934FF34FA
:100DE000003491340334FF34033491348534FF34B8
:100DF0000234C1340334FF340334C1348534FF3446
:100E00000234D1348534B7340234D13485340D34CE
:100E10000234D134853425340234D1348534B134AC
:100E20000234C934CD34FF340134CD340334FF34BB
:100E30000334CD341934FF340434CD3461341934DF
:100E4000003411346134853402340E3400340334F8
:100E50000034AA34003401340034F43407346E34DE
:100E6000003402340034F6340734A0340034023441
:100E70000034FA340734AB34003401340034FB342A
:100E80000734AC34003401340034FC340734AD345E
:100E9000003401340034FD340734AE3400340134FE
:100EA0000034F8340734A234003402340034FE3401
:100EB0000734AF34003401340034FF340734B03425
:100EC00000340134003410340D34B13400340134B2
:100ED000003411340D34B23400340134003412348F
:100EE0000D34B33400340134003413340D34B434CD
:100EF000003401340034003400341A34FE349D349C
:100F0000FE34F234FE343334FF346934FF34983421
:100F1000FF34C334FF34EB34FF3410340034333443
:100F20000034553400347734003498340034B83405
:100F30000034D9340034FA3400341C3401343E34E3
:100F400001346234013487340134AF340134D9348C
:100F50000134073402343934023470340234B0348A
:100F60000234FB34023458340334D1340334823431
:100F70000434CA340534003A0319C22F803A0319E5
:100F8000C82F003476088400770885000008080020
:100F900077088A00760882000800003A0319D52FE6
:100FA000803A0319DD2FF7010034760884007708B2
:100FB00085001200F700000808008731C827F500F7
:100FC000F60FF703F70A8731C827F4007508F70012
:100FD000740808000334B7340D342534B134613457
:100FE00041343734013421340034003400340034C7
:100FF0000034003400340034003400340034003451
:1010000020008B1322000D082000D60021000E08BE
:101010002000D70022008D01D83021008E0003105F
:101020002100330D2000D800D90120008E1F1A287E
:101030002000D90A20005808DA005908D8005A04BC
:101040002100B3000310330D2000D800D901200087
:101050000E1E2C282000D90A20005808DA00590852
:10106000D8005A042100B3000310330D2000D8002B
:10107000D90120000E1F3E282000D90A2000580860
:10108000DA005908D8005A042100B3000310330DC8
:101090002000D800D90120008E1D50282000D90A38
:1010A00020005808DA005908D8005A042100B3007B
:1010B0002000560822008D002000570821008E00D5
:1010C00020008B1721003208031DB20308302100D5
:1010D00030020318A92C08308A0072303007031838
:1010E0008A0A82007A28CF281329E429012A6B2A48
:1010F000D62A5E2B2200131E8928210033080F39BF
:10110000031D89283308F039031989282200131296
:10111000AB2C8830210033052000D600803A031D17
:10112000A828D6012200911C97282000D60A20006A
:101130005608003003190130D700D600560C0318AA
:10114000A32822009110031CA72822009114AB2C85
:101150004430210033052000D600403A031DB42856
:1011600004302100B000AB2C2230210033052000D8
:10117000D600223A031DC02801302100B000AB2C5C
:101180001130210033052000D600113A031DAB2C8D
:1011900014302100B20002302100B000AB2C22003C
:1011A000111DDE2803302100A40059302100A500C4
:1011B0002100A600FF302100AA0008292200911C6E
:1011C000EE2819302100A40061302100A50049302B
:1011D0002100A600FF302100AA0008292200931C4C
:1011E000FB280130F60020006E08F7006F088431FC
:1011F00097248831082921002B082000D600D70128
:101200000030F6005608F7005708843197248931DA
:101210002230210033052000D600223A0319AB2CDE
:101220002100B001AB2C2200111D22290330210026
:10123000A40059302100A5002100A600FF302100A4
:10124000AA00C2292200111EA829FF302100A600F1
:101250002100AA0021002E08013A031D3629613021
:101260002100A40085302100A500C22921002E08FC
:10127000023A031D422961302100A400C930210037
:10128000A500C22921002E08043A031D6329193044
:101290002100A40083302100A50021002F08EA3E90
:1012A0002000D60007300318013ED7005608F6008C
:1012B0005708F70080308731BB2789312000D800DC
:1012C0002100A600C22921002E08053A031D842909
:1012D000FF302100A40019302100A50021002F08B3
:1012E000EA3E2000D60007300318013ED70056081A
:1012F000F6005708F70080308731BB27893120007E
:10130000D8002100A600C22921002E08073A031D9B
:101310009029C1302100A40083302100A500C229FA
:1013200021002E08083A031D9C2991302100A400B9
:10133000C1302100A500C22921002E08093A031D51
:10134000C229C1302100A400FF302100A500C2291C
:101350002200931CB7294B302100A400C930210082
:10136000A500FF302100A6002100AA00C2294B30B1
:101370002100A40003302100A500FF302100A600B9
:101380002100AA00003021003204031DD9291430A5
:10139000B20021002E08013A0319D6292E08053A79
:1013A0000319D62908302E02031CD9290330210045
:1013B000B0001130210033052000D600113A031986
:1013C000AB2C2100B001AB2C0030F600210022082C
:1013D000F700230884319724893121003208031D46
:1013E000F6291430B20002302100B0001130210083
:1013F00033052000D600113A0319AB2C2100B001AF
:10140000AB2C210031082000C90021002A16AA16A1
:101410002A15AA141A302000490203185B2A043046
:10142000F70049088C31F1248A312000CA00CB0131
:101430004A08BD3EC9000630CC004B0803184B0FCC
:10144000CC074908F6004C08F70080308731BB27ED
:101450008A312000CD002100A40020004A08BD3EB2
:10146000CA004B0803184B0F063ECB0001304A0759
:10147000C900CC01CC0D4B08CC074908F6004C083C
:10148000F70080308731BB278A312000CD00210052
:10149000A50002302000CA070318CB0A4A08F6004C
:1014A0004B08F70080308731BB278A312000C90004
:1014B0002100A600642ADD302100A4008330210031
:1014C000A500D5302100A6006E302100B200053005
:1014D0002100B000AB2C0030210032040319782A1F
:1014E0008830210033052000D600803A031D7B2A76
:1014F0002100B001AB2C2230210033052000D600A2
:10150000203A031D8D2A2100B10A1B303102031835
:10151000B10104302100B000AB2C113021003305A3
:101520002000D600103A031DA12A2100B1031B3070
:101530003102031C9D2A1A30B10004302100B00092
:10154000AB2C4430210033052000D600403A031D67
:10155000AB2C1A30210031020318B72A310886312A
:1015600016268A312000DC007708DB00D22A220010
:10157000111DBE2A2000DB01DC01D22A2200111E2F
:10158000C62A01302000DB00DC01D22A2200931C95
:10159000CE2A02302000DB00DC01D22A03302000FA
:1015A000DB00DC0106302100B000AB2C1A3021003A
:1015B00031020318152B0430F70031088C31F12467
:1015C0008A312000D600D7015608BD3ED600570804
:1015D0000318570F063ED7000330D6070318D70A63
:1015E0005608F6005708F70080308731BB278A314C
:1015F0002000D80058080319012B5808013A031D90
:101600000B2B0130F60020005B08F7005C088431EA
:1016100097248B31572B0030F60020005B08F70031
:101620005C08843197248B31572B21002A16AA1687
:101630002A15AA1420005B085C04031D282B033024
:101640002100A40059302100A5002100A600572B3D
:1016500020005B08013A031D3B2B5C08003A031D88
:101660003B2B19302100A400DD302100A500FF3004
:101670002100A600572B20005B08023A031D4E2BC9
:101680005C08003A031D4E2BCD302100A400C93068
:101690002100A500FF302100A600572BCD302100EE
:1016A000A40003302100A500FF302100A6006E3009
:1016B0002100B20007302100B000AB2C0030210027
:1016C0003204031D662B2100B001AB2C88302100B1
:1016D00033052000D600803A031D722B0430210010
:1016E000B000AB2C2100B31E882B2000DB0A0319AD
:1016F000DC0A5C08803E7D3E031D802BE9305B02E6
:10170000031C9E2B09302000DB070318DC0A9E2BEC
:101710002100331E5F2CFF302000DB07031CDC039D
:101720005C08803E7D3E031D972BE9305B02031C65
:101730009E2BF7302000DB07031CDC0320005B0836
:10174000F6005C08F700210031082000D00077087F
:10175000D2007608D1001A30500203183B2C043016
:10176000F70050088C31F1248B312000D300D401D4
:101770005308BD3ED0000630D50054080318540F5E
:10178000D5070330D0070318D50A5008F6005508CE
:10179000F70080308731BB278B312000D3005308FE
:1017A000031DE32B7830F3000530F4007030F500B2
:1017B000FE30F6005108F7005208BD242000D20088
:1017C0007708D1004C2C20005308013A031DF92B57
:1017D0003230F3000030F400CE30F500FF30F60078
:1017E0005108F7005208BD242000D2007708D1002C
:1017F0004C2C20005308023A031D0F2CE730F30055
:101800000330F4000030F5000030F6005108F70016
:101810005208BD242000D2007708D1004C2C2000B3
:101820005308033A031D252CC830F3000030F400A0
:101830000030F5000030F6005108F7005208BD24D2
:101840002000D2007708D1004C2C20005308043A25
:10185000031D4C2C0130F3000030F4000030F50083
:101860000030F6005108F7005208BD242000D200D5
:101870007708D1004C2C0330F3000030F400003026
:10188000F5000030F60020005108F7005208BD2492
:101890002000D2007708D10020005108F70052083C
:1018A0002000DC007708DB001F3028001D02031C2D
:1018B0005B2CF8309D0706302100B000AB2C443083
:1018C000210033052000D600403A031DA52C1A3014
:1018D000210031020318772C20005B08F6005C0819
:1018E000F700210031088531D9258C31A12C200049
:1018F0005B085C04031D822C2200111511121110CB
:101900009310A12C20005B08013A031D8F2C5C086A
:10191000003A031D8F2C220011111116A12C20005A
:101920005B08023A031D9D2C5C08003A031D9D2CA8
:101930002200111111129314A12C22001111111265
:10194000931004302100B000AB2CFA3028009D0029
:10195000AB2C2100B0012100300800300319013008
:101960002000D600D700570C0318B82C200099137C
:10197000031CBC2C2000991708002000C900770820
:10198000CA007608CB007508CC007408CD00730837
:10199000CE004D08803ECF004908803E4F02031D17
:1019A000D32C4A084E020318DA2C20004C08F7000A
:1019B0004B08F02C20004908803ECF004B08803EA9
:1019C0004F02031DE52C4C084A020318EC2C2000A2
:1019D0004E08F7004D08F02C20004A08F70049088F
:1019E00008002000E9007708EA00EB010830EC006D
:1019F0002000691CFD2C6A08EB0720006908ED0037
:101A000003106D0CE90003106A0DED00EA006C088C
:101A1000ED006D03EC006C08031DF82C6B0808004A
:081A20000034003400340034EE
:020000040001F9
:02000E00D40F0D
:02001000FF3AB5
:00000001FF
