:020000040000FA
:10000000000086317E2EFF348A012000911C412899
:10001000031022000D0D2000B3003308031D122829
:100020001030B30021008E0122008D012000330822
:10003000103A031928283308203A03192D283308C9
:10004000403A031932283308803A031937283B28ED
:100050002100240822008E003B28210025082200D0
:100060008E003B282100260822008E003B2821001C
:100070002A0822008E002000330822008D00200074
:10008000911009002000B401B501BB212000B60188
:100090002000931D5B28883100208031280017192B
:1000A000592803302100A40059302100A600210066
:1000B000A500200093112000931CB8292000B60A47
:1000C0001D24200036080F39031D99292030B70060
:1000D000B801B901BA010310350CBC00340CBB00E7
:1000E0000310BC0CBB0C0310BC0CBB0C3F30BB059D
:1000F000BC013B08BD000310350CBB00BC011F3028
:10010000BB05BC013B08BE003E0ABB000230F70045
:100110003B088D31202580312000BC00BF013C0808
:10012000BC3EBC008730BB003F0803183F0FBB0735
:100130000230F7003E088D31202580312000BF00BD
:10014000C0013F08BC3EBF008730BE004008031816
:10015000400FBE07C00120003D084002031CD32809
:100160003F08F6003E08F70080308D3103258031CE
:100170002000C2007708C100C3004208C40000305C
:10018000C41BFF30C600C5004308B7074408031866
:10019000440FB80745080318450FB9074608031868
:1001A000460FBA07F62820003C08F6003B08F70087
:1001B00080308D31032580312000C2007708C100D6
:1001C000C3004208C4000030C41BFF30C600C50095
:1001D0004308B70744080318440FB8074508031835
:1001E000450FB90746080318460FBA072000C00A92
:1001F00040304002031CAB28370E0F39BB00380ECD
:10020000BC00F039BB04BC06390EBD00F039BC049B
:10021000BD063A0EBE00F039BD04BE06F030BE1970
:10022000BE040310BE1B0314BE0CBD0CBC0CBB0CE7
:100230000310BE1B0314BE0CBD0CBC0CBB0C153054
:1002400057262000B8007708B700B9003808BA0070
:10025000BF01C0013908BB073A0803183A0FBC07B1
:100260003F0803183F0FBD0740080318400FBE07A3
:100270003B082100A00020003C082100A100200034
:10028000B401B501EA2100242000991F9929220018
:10029000131E60292000361E602921002708200037
:1002A000B7002100A400210028082000B700210089
:1002B000A500210029082000B7002100A6009929E7
:1002C0002200111E822921002E08083A031D8229CE
:1002D000103057262000B8007708B7002100220709
:1002E0002000B700210023080318230A03197A29E4
:1002F0002000B8070030F60020003708F700380863
:10030000D82499292200111E922921002E08093A89
:10031000031D92290030F60021002208F70023086F
:10032000D82499290130F60021002008F70021087F
:10033000D82421001C082000B700B8013708BA00F3
:10034000B90121001B082000B700B8013708B90423
:100350003808BA043908B7003A08B8003708B407B3
:1003600038080318380FB50721009D14200093109A
:100370006400482808006A30210099000C308C0085
:1003800022008C0124008C1021008D0122008D019F
:1003900021008E01023023008C0021001E169E17C2
:1003A00009309D009D1423008E01053020009C0023
:1003B000FA309B00210091147A302800970017151D
:1003C000F430960037309E00FA309D00C030200097
:1003D0008B0008002200111DF0292100AE01FF2B27
:1003E0002200911CF429FF2B210022082304031969
:1003F000062A20004808031D042A3C30C800FF30AC
:100400002100A207031CA3032000C8030A30210017
:100410002E020318FF2B82308A0012302E07031899
:100420008A0A82001C2A542A682AB12AC92A162B51
:10043000402B562B892BA02B2200111E292A00307D
:1004400057262100A3007708A20001302100AE004A
:10045000FF2B2200931C3B2A183057262000EF0068
:100460007708EE00163057262000AC007708AE0063
:100470002100AC00432A163057262000AC00770834
:10048000AE002100AB00173057262000AC007708E3
:10049000AE00AD002D0C03184F2A22001110031CD2
:1004A000532A22001114FF2B2100AB0122009310CC
:1004B0001110210022082304031DFF2B1930572699
:1004C0002100A3007708A20002302100AE00FF2B1C
:1004D000013057262000EF007708EE000230572643
:1004E0002000AC007708AE002100AB002200111400
:1004F00021002108803E2000AF0020006F08803ED0
:1005000020002F02031D882A20006E0821002002EF
:10051000031CA92A220093140B3057262000AC009C
:100520007708AE002100AC002200131661302100D4
:10053000A700C9302100A800FF302100A900193010
:1005400057262100A3007708A20003302100AE0047
:10055000FF2B210022082304031DFF2B220011156D
:10056000FF2B2200131AC12A91142100AF01193068
:1005700057262100A3007708A20004302100AE0016
:10058000FF2B210022082304031DFF2B220011153D
:10059000FF2B031021002F0D2000AE000330AE070B
:1005A0002E0857262000EF007708EE00023057266D
:1005B0002000AC007708AE002100AB0022009310B1
:1005C000111421002108803E2000AF0020006F0898
:1005D000803E20002F02031DF12A20006E0821001A
:1005E0002002031C0E2B220093140B3057262000F0
:1005F000AC007708AE002100AC00031021002F0DE5
:100600002000AE000430AE072E0857262100A300BC
:100610007708A20005302100AE00FF2B2100220840
:100620002304031DFF2B22001115FF2B210022089C
:100630002304031DFF2B2100AF0A04302F020318EF
:100640002B2B193057262100A3007708A200043075
:100650002100AE00FF2B22001316C1302100A7009D
:1006600083302100A800FF302100A900193057264F
:100670002100A3007708A20006302100AE00FF2B66
:100680002200131A4E2B9114193057262100A30073
:100690007708A20007302100AE00FF2B21002208BE
:1006A0002304031DFF2B22001115FF2B22009310A2
:1006B0001110023057262000AD007708AE0021004F
:1006C000AB000C3057262000AD007708AE002100AB
:1006D00020082000AF00210021082000B0002D08D4
:1006E0003002031D752B2E082F02031C812B0E30A8
:1006F00057262100A3007708A20008302100AE0091
:10070000FF2B210022082304031DFF2B22001115BB
:10071000FF2B0D3057262000AD007708AE002100DA
:10072000AB00210022082304031DFF2B10305726A5
:100730002100A3007708A20009302100AE00FF2BA2
:100740000F3057262000AD007708AE002100AB0027
:100750002000AE01AD01113020002D07AF0057265B
:100760002000B0007708AF0021002206031DDF2B18
:100770002000300821002306031DDF2B3A30200023
:100780004802031CDF2B22001316D1302100A700E2
:1007900085302100A80020002E0AAF003E3EAF00A9
:1007A0008D300318013EB0002F08F6003008F70026
:1007B00080308C31F12483312100A900E72B200007
:1007C000AD0A2D08AE0004302D02031CAB2B210016
:1007D00022082304031DFF2B2100AB0122009310EC
:1007E000111513164B302100A700D1302100A800AD
:1007F000FF302100A900220011122100AE010800E3
:100800002200931C1C2C21002108803E2000A00007
:1008100020006F08803E20002002031D132C2000C2
:100820006E082100200203181A2C21002C08210038
:10083000AB001C2C2100AB01080021002D08031D7A
:10084000272C6430AD0021002B082000C7002100B8
:10085000AD0322000C102100AA142200131E422C0A
:100860004C3021002D022000A001A00D2008A10085
:10087000210C03183D2C22000C10031C412C2200DB
:100880000C14562C2200911C562C1119562C2100A8
:100890002D0801392000A000A100210C0318522CC2
:1008A0002100AA10031C562C2100AA142200911822
:1008B0005B2C111D632C22008C120C1221008C1059
:1008C00022008C10A92C2000470821002D022000B6
:1008D000A001031C20142008A100210C0318722C75
:1008E00022008C12031C762C22008C1621002D086D
:1008F0002000A000A1016430A0070318A10A200075
:1009000047082000A200A3012108803EA40023087C
:10091000803E2402031D8E2C220820022000A40108
:10092000031C24142408A000200C0318992C220076
:100930000C12031C9D2C22000C162200111CA52C4D
:1009400021008C1422008C10A92C21008C10220074
:100950008C102000A00122008C1EB02C2000A00AC8
:1009600020002008003003190130A200A000200C54
:100970000318BC2C2100AA11031CC02C2100AA15AD
:100980002000A00122000C1EC72C2000A00A20007D
:100990002008003003190130A200A000200C031829
:1009A000D32C2100AA13031CD72C2100AA1708005E
:1009B0002000AE007708AD007608AF000314AE1F2C
:1009C0000310031CEC2C21002A122000AD09AE09F3
:1009D000AD0A0319AE0AEE2C21002A1600302000C1
:1009E0002F040319F62C2100AA122A1520002E0824
:1009F000803E7D3E031DFE2CE8302D02031C0E2D93
:100A000020002D08B0002E08B1003008F700310892
:100A1000B1252000AE007708AD00AF0120002E0800
:100A2000803E803E031D162D64302D02031C4A2D8E
:100A300020002D08B0002E08B100B20120003108BE
:100A4000803E803E031D262D64303002031C2F2D76
:100A50009C302000B007031CB103B20A1E2D2000F9
:100A60003008AD003108AE000F30B20532083E3E0E
:100A7000B2008D300318013EB0003208F600300895
:100A8000F70080308C31F12485312000B100210045
:100A9000A4004D2DFF302100A40020002E08803E30
:100AA000803E031D552D0A302D020318622D2000B3
:100AB0002F08031D622D210024082000B000FF3AFA
:100AC0000319982D20002D08B0002E08B100B201A6
:100AD00020003108803E803E031D702D0A30300218
:100AE000031C792DF6302000B007031CB103B20AB5
:100AF000682D20003008AD003108AE0032083E3EBF
:100B0000B2008D300318013EB0003208F600300804
:100B1000F70080308C31F12485312000B1002100B4
:100B2000A50020002F0803199B2D210025109B2DC7
:100B3000FF302100A50020002D08AF003E3EAD0093
:100B40008D300318013EAE002D08F6002E08F70088
:100B500080308C31F12485312000AF002100A600C7
:100B600008002000A0007708A1000310200CA200BC
:100B7000210CA3000310200CA400210CA6000310DC
:100B8000A40CA60C2608A30724080318240FA20708
:100B9000230E0F39A600220EA400F039A604A406E5
:100BA0002608A30724080318240FA2072208A6007A
:100BB000A4012608A30724080318240FA207031082
:100BC000A20CA30C0310A20CA30C0310A20CA30CE8
:100BD0000310230DA600220DA4000310A60DA40DE2
:100BE0000310A60DA40D0310230DA500220DAC00CB
:100BF0002508A6072C0803182C0FA4072608A10215
:100C00002408031C240FA0020630A1070318A00A21
:100C1000210E0F39A600200EA400F039A604A40668
:100C20002608A30724080318240FA2072308F700A7
:100C3000220808002000A7007708A9007608A8006D
:100C4000270857262000AB007708AA002806031DB6
:100C50002D2E2B0829060319562E03102000270DD0
:100C6000AA0020002A082300910020002808230061
:100C7000930015139513151520008B135530230081
:100C80009600AA309600951420008B1723001511AA
:100C900023009518482E2000121220002908A800D1
:100CA000A9012A08A700AA0A271C312E0800200043
:100CB000A000A101A2010310200DA3002000230821
:100CC0002300910015139513151413082000A0009C
:100CD000A4012008A600A5012208A000A401200864
:100CE0002504A10024082604A2002308A000A30ACA
:100CF000201C5E2E2108F700220808006630F6004E
:100D00008730F70080308D31032586312000DE00EA
:100D10007708DD006830DF008730E00020005D08E4
:100D2000E1005E08E200FF30DD07031CDE0361081E
:100D300062040319FB2E04305F07E100E201E20DBB
:100D40006008E2076108F6006208F70080308D3124
:100D5000032586312000E4007708E3005F08F600F1
:100D60006008F70080308D31032586312000E600D1
:100D7000E2007708E500E10002305F07E100E201F0
:100D8000E20D6008E2076108F6006208F7008030B3
:100D90008D31032586312000E200E8007708E1006C
:100DA000E70020006308E7006408E800FF30E3077D
:100DB000031CE403670868040319F52E6508F600B0
:100DC0006608F70080308C31F12486312000E7007E
:100DD000610884006208850067088000E50A03193D
:100DE000E60AE10A0319E20AD12E06302000DF07E5
:100DF0000318E00A8E2E80314228080061348534C1
:100E0000FF3402346134C934FF34003461340334B4
:100E1000FF3403341934C934B734003419348534F9
:100E2000B73402341934C9340D34003419348534DC
:100E30000D3402341934C93425340034193485345E
:100E4000253402341934C934B134003419348534AA
:100E5000B134023419340334FF3403349134C934C7
:100E6000FF34003491340334FF3403349134853437
:100E7000FF340234C1340334FF340334C1348534C5
:100E8000FF340234D1348534B7340234D13485345C
:100E90000D340234D134853425340234D1348534D0
:100EA000B1340234C934CD34FF340134CD34033489
:100EB000FF340334CD341934FF340434CD34613479
:100EC0001934003411346134853402340E34003462
:100ED00003340034AA34003401340034FC340734C1
:100EE0006E34003402340034FE340734A03400344D
:100EF000023400344A340D34AB340034013400344D
:100F00004B340D34AC340034013400344C340D34E3
:100F1000AD340034013400344D340D34AE3400347B
:100F20000134003448340D34A23400340234003427
:100F30004E340D34AF340034013400344F340D34AA
:100F4000B03400340134003450340D34B134003442
:100F50000134003451340D34B234003401340034DF
:100F600052340D34B33400340134003453340D346E
:100F7000B43400340134003400340034D534FD344A
:100F8000C134FE345934FF34CF34FF3430340034AC
:100F900086340034D33400341A3401345C340134E0
:100FA0009C340134DA3401341634023451340234BE
:100FB0008C340234C7340234023403343F340334F3
:100FC0007D340334BD3403340134043448340434F0
:100FD00094340434E53404343F340534A434053403
:100FE000173406349E340634443407341E3408342F
:100FF0005D340934AB340B34003400340034003435
:1010000020008B1322000D082000D60021000E08BE
:101010002000D70022008D01D83021008E0003105F
:101020002100330D2000D800D90120008E1F1A287E
:101030002000D90A20005808DA005908D8005A04BC
:101040002100B3000310330D2000D800D901200087
:101050000E1E2C282000D90A20005808DA00590852
:10106000D8005A042100B3000310330D2000D8002B
:10107000D90120000E1F3E282000D90A2000580860
:10108000DA005908D8005A042100B3000310330DC8
:101090002000D800D90120008E1D50282000D90A38
:1010A00020005808DA005908D8005A042100B3007B
:1010B0002000560822008D002000570821008E00D5
:1010C00020008B1721003208031DB20308302100D5
:1010D00030020318A92C88308A00723030070318B8
:1010E0008A0A82007A28CF281329E429012A6B2A48
:1010F000D62A5E2B2200131E8928210033080F39BF
:10110000031D89283308F039031989282200131296
:10111000AB2C8830210033052000D600803A031D17
:10112000A828D6012200911C97282000D60A20006A
:101130005608003003190130D700D600560C0318AA
:10114000A32822009110031CA72822009114AB2C85
:101150004430210033052000D600403A031DB42856
:1011600004302100B000AB2C2230210033052000D8
:10117000D600223A031DC02801302100B000AB2C5C
:101180001130210033052000D600113A031DAB2C8D
:1011900014302100B20002302100B000AB2C22003C
:1011A000111DDE2803302100A40059302100A500C4
:1011B0002100A600FF302100AA0008292200911C6E
:1011C000EE2819302100A40061302100A50049302B
:1011D0002100A600FF302100AA0008292200931C4C
:1011E000FB280130F60020006E08F7006F088431FC
:1011F000D8248831082921002B082000D600D701E7
:101200000030F6005608F70057088431D824893199
:101210002230210033052000D600223A0319AB2CDE
:101220002100B001AB2C2200111D22290330210026
:10123000A40059302100A5002100A600FF302100A4
:10124000AA00C2292200111EA829FF302100A600F1
:101250002100AA0021002E08013A031D3629613021
:101260002100A40085302100A500C22921002E08FC
:10127000023A031D422961302100A400C930210037
:10128000A500C22921002E08043A031D6329193044
:101290002100A40083302100A50021002F083E3E3C
:1012A0002000D6008D300318013ED7005608F60006
:1012B0005708F70080308C31F12489312000D800A4
:1012C0002100A600C22921002E08053A031D842909
:1012D000FF302100A40019302100A50021002F08B3
:1012E0003E3E2000D6008D300318013ED700560840
:1012F000F6005708F70080308C31F1248931200046
:10130000D8002100A600C22921002E08073A031D9B
:101310009029C1302100A40083302100A500C229FA
:1013200021002E08083A031D9C2991302100A400B9
:10133000C1302100A500C22921002E08093A031D51
:10134000C229C1302100A400FF302100A500C2291C
:101350002200931CB7294B302100A400C930210082
:10136000A500FF302100A6002100AA00C2294B30B1
:101370002100A40003302100A500FF302100A600B9
:101380002100AA00003021003204031DD9291430A5
:10139000B20021002E08013A0319D6292E08053A79
:1013A0000319D62908302E02031CD9290330210045
:1013B000B0001130210033052000D600113A031986
:1013C000AB2C2100B001AB2C0030F600210022082C
:1013D000F70023088431D824893121003208031D05
:1013E000F6291430B20002302100B0001130210083
:1013F00033052000D600113A0319AB2C2100B001AF
:10140000AB2C210031082000C90021002A16AA16A1
:101410002A15AA141A302000490203185B2A043046
:10142000F70049088D3120258A312000CA00CB0100
:101430004A08FE3EC9008630CC004B0803184B0F0B
:10144000CC074908F6004C08F70080308C31F124B5
:101450008A312000CD002100A40020004A08FE3E71
:10146000CA004B0803184B0F863ECB0001304A07D9
:10147000C900CC01CC0D4B08CC074908F6004C083C
:10148000F70080308C31F1248A312000CD0021001A
:10149000A50002302000CA070318CB0A4A08F6004C
:1014A0004B08F70080308C31F1248A312000C900CC
:1014B0002100A600642ADD302100A4008330210031
:1014C000A500D5302100A6006E302100B200053005
:1014D0002100B000AB2C0030210032040319782A1F
:1014E0008830210033052000D600803A031D7B2A76
:1014F0002100B001AB2C2230210033052000D600A2
:10150000203A031D8D2A2100B10A1B303102031835
:10151000B10104302100B000AB2C113021003305A3
:101520002000D600103A031DA12A2100B1031B3070
:101530003102031C9D2A1A30B10004302100B00092
:10154000AB2C4430210033052000D600403A031D67
:10155000AB2C1A30210031020318B72A310886312A
:1015600057268A312000DC007708DB00D22A2200CF
:10157000111DBE2A2000DB01DC01D22A2200111E2F
:10158000C62A01302000DB00DC01D22A2200931C95
:10159000CE2A02302000DB00DC01D22A03302000FA
:1015A000DB00DC0106302100B000AB2C1A3021003A
:1015B00031020318152B0430F70031088D31202536
:1015C0008A312000D600D7015608FE3ED6005708C3
:1015D0000318570F863ED7000330D6070318D70AE3
:1015E0005608F6005708F70080308C31F1248A3114
:1015F0002000D80058080319012B5808013A031D90
:101600000B2B0130F60020005B08F7005C088431EA
:10161000D8248B31572B0030F60020005B08F700F0
:101620005C088431D8248B31572B21002A16AA1646
:101630002A15AA1420005B085C04031D282B033024
:101640002100A40059302100A5002100A600572B3D
:1016500020005B08013A031D3B2B5C08003A031D88
:101660003B2B19302100A400DD302100A500FF3004
:101670002100A600572B20005B08023A031D4E2BC9
:101680005C08003A031D4E2BCD302100A400C93068
:101690002100A500FF302100A600572BCD302100EE
:1016A000A40003302100A500FF302100A6006E3009
:1016B0002100B20007302100B000AB2C0030210027
:1016C0003204031D662B2100B001AB2C88302100B1
:1016D00033052000D600803A031D722B0430210010
:1016E000B000AB2C2100B31E882B2000DB0A0319AD
:1016F000DC0A5C08803E7D3E031D802BE9305B02E6
:10170000031C9E2B09302000DB070318DC0A9E2BEC
:101710002100331E5F2CFF302000DB07031CDC039D
:101720005C08803E7D3E031D972BE9305B02031C65
:101730009E2BF7302000DB07031CDC0320005B0836
:10174000F6005C08F700210031082000D00077087F
:10175000D2007608D1001A30500203183B2C043016
:10176000F70050088D3120258B312000D300D401A3
:101770005308FE3ED0008630D50054080318540F9D
:10178000D5070330D0070318D50A5008F6005508CE
:10179000F70080308C31F1248B312000D3005308C6
:1017A000031DE32BC430F3000930F4007030F50062
:1017B000FE30F6005108F7005208BD242000D20088
:1017C0007708D1004C2C20005308013A031DF92B57
:1017D0006430F3000030F4009C30F500FF30F60078
:1017E0005108F7005208BD242000D2007708D1002C
:1017F0004C2C20005308023A031D0F2CE730F30055
:101800000330F4000030F5000030F6005108F70016
:101810005208BD242000D2007708D1004C2C2000B3
:101820005308033A031D252CC830F3000030F400A0
:101830000030F5000030F6005108F7005208BD24D2
:101840002000D2007708D1004C2C20005308043A25
:10185000031D4C2C0130F3000030F4000030F50083
:101860000030F6005108F7005208BD242000D200D5
:101870007708D1004C2C0330F3000030F400003026
:10188000F5000030F60020005108F7005208BD2492
:101890002000D2007708D10020005108F70052083C
:1018A0002000DC007708DB001F3028001D02031C2D
:1018B0005B2CF8309D0706302100B000AB2C443083
:1018C000210033052000D600403A031DA52C1A3014
:1018D000210031020318772C20005B08F6005C0819
:1018E000F7002100310886311A268C31A12C200006
:1018F0005B085C04031D822C2200111511121110CB
:101900009310A12C20005B08013A031D8F2C5C086A
:10191000003A031D8F2C220011111116A12C20005A
:101920005B08023A031D9D2C5C08003A031D9D2CA8
:101930002200111111129314A12C22001111111265
:10194000931004302100B000AB2CFA3028009D0029
:10195000AB2C2100B0012100300800300319013008
:101960002000D600D700570C0318B82C200099137C
:10197000031CBC2C2000991708002000C900770820
:10198000CA007608CB007508CC007408CD00730837
:10199000CE004D08803ECF004908803E4F02031D17
:1019A000D32C4A084E020318DA2C20004C08F7000A
:1019B0004B08F02C20004908803ECF004B08803EA9
:1019C0004F02031DE52C4C084A020318EC2C2000A2
:1019D0004E08F7004D08F02C20004A08F70049088F
:1019E0000800003A0319F82C803A0319FE2C003441
:1019F00076088400770885000008080077088A00C8
:101A0000760882000800003A03190B2D803A03196A
:101A1000132DF70100347608840077088500120042
:101A2000F700000808008C31FE24F500F60FF703DC
:101A3000F70A8C31FE24F4007508F70074080800DA
:101A40002000E9007708EA00EB010830EC002000F4
:101A5000691C2C2D6A08EB0720006908ED000310B3
:101A60006D0CE90003106A0DED00EA006C03ED0057
:101A7000EC006D08031D272D6B0808000334B734F4
:101A80000D342534B13461344134373401342134D8
:101A900000340034003400340034003400340034A6
:081AA00000340034003400346E
:020000040001F9
:02000E00D40F0D
:02001000FF3AB5
:00000001FF
