:020000040000FA
:10000000000086317C2EFF348A012000911C41289B
:10001000031022000D0D2000B3003308031D122829
:100020001030B30021008E0122008D012000330822
:10003000103A031928283308203A03192D283308C9
:10004000403A031932283308803A031937283B28ED
:1000500020006E0822008E003B282100200822008C
:100060008E003B282100210822008E003B28210021
:10007000250822008E002000330822008D00200079
:1000800091100900FF302000B6001F30B700C621D4
:10009000093021009D002000B801B9012000931D06
:1000A0006428883100208031280017196228FF3029
:1000B0002100A50003302000EE0059302100A100EE
:1000C0002100A000200093112000931CC5282000CF
:1000D000B80A0319B90A3608F70037088E2120003C
:1000E000B7007708B600093021009D001B242000CE
:1000F00038080F39031DC3283608F7003708C82011
:100100002000BB007708BA00153055262000BD003E
:100110007708BC003A08BE003B08BF003C083E0719
:100120002000EA0020003F082000EB0020003D08EE
:1001300003183D0A03199E282000EB07F021FE2337
:100140002000991FC3282200131EBC282000381E3F
:10015000BC28210022082000BA002000EE00210067
:1001600023082000BA002100A0002100240820005C
:10017000BA002100A100C3280130F60020006A085F
:10018000F7006B08D6242000931064004E28080066
:100190002000A0007708A1002030A200A301A40144
:1001A000A6010310200CA500210CAC000310A50C27
:1001B000AC0C0310A50CAC0C3F30AC05A5012C0811
:1001C000AE000310200CAC00A5011F302C05A100CF
:1001D000A0012108AC002C0AA1000230F700210880
:1001E0008C31C12480312000A000A5012008B43E3C
:1001F000A0008730A10025080318250FA1070230B1
:10020000F7002C088C31C12481312000A500AD01FC
:100210002508B43EA5008730AC002D0803182D0F2B
:10022000AC07AD0120002E082D02031C3A29250839
:10023000F6002C08F70080308C31A4248131200096
:10024000AF007708B000B1002F08B2000030B21B39
:10025000FF30B500B4003108A20732080318320F8E
:10026000A30734080318340FA40735080318350F03
:10027000A6075D2920002008F6002108F70080303D
:100280008C31A42481312000AF007708B000B10088
:100290002F08B2000030B21BFF30B500B4003108A7
:1002A000A20732080318320FA30734080318340FCB
:1002B000A40735080318350FA6072000AD0A403003
:1002C0002D02031C1229220E0F39A100230EA000BB
:1002D000F039A104A006240EAC00F039A004AC064D
:1002E000260EA500F039AC04A506F030A519A5042A
:1002F0000310A51B0314A50CAC0CA00CA10C03103F
:10030000A51B0314A50CAC0CA00CA10C2108A20089
:100310002008A3002208F700230808002000A000FE
:100320007708A10021009D1421009D1894291D101B
:100330002000210E0F39A200200EA300F039A204E4
:10034000A3062208A1022308031C230FA0022100F8
:100350001C082000A200A3012208A400A60121007D
:100360001B082000A200A3012208A6042308A4045D
:100370002608A2002408A3002208A10723080318C6
:10038000230FA0072108F700200808006A30210089
:1003900099000E308C0022008C0121008D0122007A
:1003A0008D0121008E01063023008C0021001E16D5
:1003B0009E1723008E01053020009C00FA309B0020
:1003C000210091147A30280097001715F430960018
:1003D00037309E00FA309D00C03020008B000800AE
:1003E0002200111DF6292100A901FD2B2200911CDC
:1003F000FA29FD2B20006C086D0403190C2A20003B
:100400004108031D0A2A3C30C100FF302000EC07E0
:10041000031CED032000C1030A3021002902031848
:10042000FD2B82308A001830290703188A0A8200BF
:10043000222A5A2A6E2AB32ACB2A142B3E2B542B5B
:10044000872B9E2B2200111E2F2A003055262000BC
:10045000ED007708EC0001302100A900FD2B2200FF
:10046000931C412A183055262000E9007708E8003F
:10047000163055262000AC007708AE002100A700FA
:10048000492A163055262000AC007708AE0021001E
:10049000A600173055262000AC007708AE00AD004E
:1004A0002D0C0318552A22001110031C592A220072
:1004B0001114FD2B2100A601220093101110200021
:1004C0006C086D04031DFD2B193055262000ED002E
:1004D0007708EC0002302100A900FD2B01305526E1
:1004E0002000E9007708E800023055262000AC0023
:1004F0007708AE002100A6002200111420006B082E
:10050000803E2000AF0020006908803E20002F02BE
:10051000031D8E2A2000680820006A02031CAB2AF3
:1005200022009314210026082100A70022001316A0
:1005300061302100A200C9302100A300FF3021005A
:10054000A400193055262000ED007708EC00033098
:100550002100A900FD2B20006C086D04031DFD2B5C
:1005600022001115FD2B2200131AC32A911420001A
:10057000C201193055262000ED007708EC00043048
:100580002100A900FD2B20006C086D04031DFD2B2C
:1005900022001115FD2B03102000420D2000AE009B
:1005A0000330AE072E0855262000E9007708E80042
:1005B0000B3055262000AC007708AE002100A600C5
:1005C00022009310111420006B08803E2000AF0021
:1005D00020006908803E20002F02031DF32A20001E
:1005E000680820006A02031C0C2B220093142100CF
:1005F00026082100A70003102000420D2000AE00B5
:100600000430AE072E0855262000ED007708EC00D8
:1006100005302100A900FD2B20006C086D04031D8E
:10062000FD2B22001115FD2B20006C086D04031D0D
:10063000FD2B2000C20A043042020318292B193076
:1006400055262000ED007708EC0004302100A900B9
:10065000FD2B22001316C1302100A200833021009F
:10066000A300FF302100A400193055262000ED0022
:100670007708EC0006302100A900FD2B2200131A98
:100680004C2B9114193055262000ED007708EC0012
:1006900007302100A900FD2B20006C086D04031D0C
:1006A000FD2B22001115FD2B22009310111002309A
:1006B00055262000AC007708AE002100A6000C30C3
:1006C00055262000AC007708AE0020006A08200004
:1006D000AD0020006B082000AF002C082F02031D86
:1006E000732B2E082D02031C7F2B0E305526200065
:1006F000ED007708EC0008302100A900FD2B200058
:100700006C086D04031DFD2B22001115FD2B0D300F
:1007100055262000AC007708AE002100A60020007E
:100720006C086D04031DFD2B103055262000ED00D4
:100730007708EC0009302100A900FD2B0F30552669
:100740002000AC007708AE002100A6002000AE011A
:10075000AC01113020002C07AD0055262000AF0061
:100760007708AD0020006C06031DDD2B20002F084C
:1007700020006D06031DDD2B3A3020004102031CD2
:10078000DD2B22001316D1302100A200853021007C
:10079000A30020002E0AAD00F43EAD008730031800
:1007A000013EAF002D08F6002F08F70080308C3195
:1007B000922483312100A400E52B2000AC0A2C08F0
:1007C000AE0004302C02031CA92B20006C086D0421
:1007D000031DFD2B2100A6012200931011151316F5
:1007E0004B302100A200D1302100A300FF302100B6
:1007F000A400220011122100A90108002200931C6C
:100800001A2C20006B08803E2000A0002000690800
:10081000803E20002002031D112C200068082000CB
:100820006A020318182C210027082100A6001A2CA0
:100830002100A601080021002808031D252C643092
:10084000A800210026082000C0002100A8032200E3
:100850000C102100A5142200131E402C4C30210046
:1008600028022000A001A00D2008A100210C0318DF
:100870003B2C22000C10031C3F2C22000C14542C87
:100880002200911C542C1119542C210028080139E4
:100890002000A000A100210C0318502C2100A5105D
:1008A000031C542C2100A51422009118592C111D51
:1008B000612C22008C120C1221008C1422008C104E
:1008C000A72C20004008210028022000A001031CC2
:1008D00020142008A100210C0318702C22008C1277
:1008E000031C742C22008C16210028082000A00074
:1008F000A1016430A0070318A10A200040082000CD
:10090000A200A3012108803EA4002308803E240207
:10091000031D8C2C220820022000A401031C241497
:100920002408A000200C0318972C22000C12031C92
:100930009B2C22000C162200111CA32C21008C10D1
:1009400022008C10A72C21008C1422008C10200077
:10095000A00122008C1EAE2C2000A00A200020083E
:10096000003003190130A200A000200C0318BA2C9B
:100970002100A511031CBE2C2100A5152000A001FB
:1009800022000C1EC52C2000A00A200020080030E8
:1009900003190130A200A000200C0318D12C210063
:1009A000A513031CD52C2100A51708002000AE00BC
:1009B0007708AD007608AF000314AE1F0310031CC8
:1009C000EA2C210025122000AD09AE09AD0A031959
:1009D000AE0AEC2C21002516003020002F0403194C
:1009E000F42C2100A512251120002E08803E7D3E0A
:1009F000031DFC2CE8302D02031C0C2D20002D08BB
:100A0000B0002E08B1003008F7003108AF252000F3
:100A1000AE007708AD00AF0120002E08803E803E7A
:100A2000031D142D64302D02031C482D20002D08B9
:100A3000B0002E08B100B20120003108803E803E97
:100A4000031D242D64303002031C2D2D9C3020000A
:100A5000B007031CB103B20A1C2D20003008AD0002
:100A60003108AE000F30B2053208F43EB2008730D4
:100A70000318013EB0003208F6003008F70080305D
:100A80008C31922485312000B1002000EE004B2DE6
:100A9000FF302000EE0020002E08803E803E031D27
:100AA000532D0A302D020318602D20002F08031D3E
:100AB000602D20006E082000B000FF3A0319962D2B
:100AC00020002D08B0002E08B100B201200031082E
:100AD000803E803E031D6E2D0A303002031C772DB0
:100AE000F6302000B007031CB103B20A662D2000C7
:100AF0003008AD003108AE003208F43EB200873055
:100B00000318013EB0003208F6003008F7008030CC
:100B10008C31922485312000B1002100A0002000FA
:100B20002F080319992D21002010992DFF30210045
:100B3000A00020002D08AF00F43EAD008730031860
:100B4000013EAE002D08F6002E08F70080308C31F3
:100B5000922485312000AF002100A1000800200070
:100B6000A0007708A1000310200CA200210CA30014
:100B70000310200CA400210CA6000310A40CA60C4A
:100B80002608A30724080318240FA207230E0F39F1
:100B9000A600220EA400F039A604A4062608A30786
:100BA00024080318240FA2072208A600A40126087F
:100BB000A30724080318240FA2070310A20CA30CF8
:100BC0000310A20CA30C0310A20CA30C0310230D02
:100BD000A600220DA4000310A60DA40D0310A60D5F
:100BE000A40D0310230DA500220DAC002508A607B7
:100BF0002C0803182C0FA4072608A1022408031CA4
:100C0000240FA0020630A1070318A00A210E0F39F5
:100C1000A600200EA400F039A604A4062608A30707
:100C200024080318240FA2072308F700220808004D
:100C30002000A7007708A9007608A80027085526F5
:100C40002000AB007708AA002806031D2B2E2B08D6
:100C500029060319542E03102000270DAA00200096
:100C60002A08230091002000280823009300151370
:100C70009513151520008B13553023009600AA30CC
:100C80009600951420008B1723001511230095184A
:100C9000462E2000121220002908A800A9012A08C7
:100CA000A700AA0A271C2F2E08002000A000A101DF
:100CB000A2010310200DA3002000230823009100AF
:100CC00015139513151413082000A000A401200883
:100CD000A600A5012208A000A40120082504A10067
:100CE00024082604A2002308A000A30A201C5C2ECE
:100CF0002108F700220808006430F6008730F7006A
:100D000080308C31A42486312000D8007708D700A9
:100D10006630D9008730DA0020005708DB00580819
:100D2000DC00FF30D707031CD8035B085C04031901
:100D3000F92E04305907DB00DC01DC0D5A08DC0712
:100D40005B08F6005C08F70080308C31A424863103
:100D50002000DE007708DD005908F6005A08F70089
:100D600080308C31A42486312000E000DC0077083C
:100D7000DF00DB0002305907DB00DC01DC0D5A0824
:100D8000DC075B08F6005C08F70080308C31A42497
:100D900086312000DC00E2007708DB00E100200063
:100DA0005D08E1005E08E200FF30DD07031CDE03A2
:100DB000610862040319F32E5F08F6006008F7006B
:100DC00080308C31922486312000E1005B08840061
:100DD0005C08850061088000DF0A0319E00ADB0A6D
:100DE0000319DC0ACF2E06302000D9070318DA0ACF
:100DF0008C2E80314228080061348534FF3402345F
:100E00006134C934FF340034DD340334FF34033437
:100E10001934C934B734003419348534B734023442
:100E20001934C9340D340034193485340D34023486
:100E30001934C93425340034193485342534023446
:100E40001934C934B134003419348534B13402341E
:100E500019340334FF3403349134C934FF3400347B
:100E600091340334FF34033491348534FF34023435
:100E7000C1340334FF340334C1348534FF340234C5
:100E8000D1348534B7340234D13485340D3402344E
:100E9000D134853425340234D1348534B13402342C
:100EA000C934CD34FF340134CD340334FF3403343A
:100EB000CD341934FF340434CD3461341934003462
:100EC00011346134853402340D3400340334003479
:100ED000A534003401340034FE340734683400345F
:100EE00002340034DF340C346A3400340234003409
:100EF000E3340C34A634003401340034E4340C34CC
:100F0000A734003401340034E5340C34A834003400
:100F100001340034E6340C34A93400340134003494
:100F2000E1340C346C34003402340034E7340C34D3
:100F3000AA34003401340034E8340C34AB340034C7
:100F400001340034E9340C34AC340034013400345E
:100F5000EA340C34AD34003401340034EB340C3456
:100F6000AE34003401340034003400341A34FE341A
:100F70009D34FE34F234FE343334FF346934FF34AC
:100F80009834FF34C334FF34EB34FF34103400346E
:100F9000333400345534003477340034983400341A
:100FA000B8340034D9340034FA3400341C340134F9
:100FB0003E3401346234013487340134AF340134B7
:100FC000D9340134073402343934023470340234F1
:100FD000B0340234FB34023458340334D134033493
:100FE00082340434CA3405340334B7340D34253420
:100FF000B1346134413437340134213400340034A5
:1010000020008B1322000D082000D00021000E08C4
:101010002000D10022008D01D83021008E00031065
:1010200021002D0D2000D200D30120008E1F1A2890
:101030002000D30A20005208D4005308D2005404E0
:101040002100AD0003102D0D2000D200D30120009F
:101050000E1E2C282000D30A20005208D40053086A
:10106000D20054042100AD0003102D0D2000D20049
:10107000D30120000E1F3E282000D30A2000520872
:10108000D4005308D20054042100AD0003102D0DEC
:101090002000D200D30120008E1D50282000D30A4A
:1010A00020005208D4005308D20054042100AD009F
:1010B0002000500822008D002000510821008E00E1
:1010C00020008B1721002C08031DAC0308302100E1
:1010D0002A0203184A2C88308A0072302A07031823
:1010E0008A0A82007A28CF2813298529A2290C2A66
:1010F000772AFF2A2200131E892821002D080F3984
:10110000031D89282D08F03903198928220013129C
:101110004C2C883021002D052000D000803A031D82
:10112000A828D0012200911C97282000D00A200076
:101130005008003003190130D100D000500C0318C2
:10114000A32822009110031CA728220091144C2CE4
:10115000443021002D052000D000403A031DB42862
:1011600004302100AA004C2C223021002D05200043
:10117000D000223A031DC02801302100AA004C2CC7
:10118000113021002D052000D000113A031D4C2CF8
:1011900014302100AC0002302100AA004C2C2200A7
:1011A000111DDE2803302000EE0059302100A00080
:1011B0002100A100FF302100A50008292200911C78
:1011C000EE2819302000EE0061302100A0004930E7
:1011D0002100A100FF302100A50008292200931C56
:1011E000FB280130F60020006808F7006908843108
:1011F000D62488310829210026082000D000D101FA
:101200000030F6005008F70051088431D6248931A7
:10121000223021002D052000D000223A03194C2C49
:101220002100AA014C2C2200111D2229033020008C
:10123000EE0059302100A0002100A100FF30210064
:10124000A50063292200111E5529FF302100A100AD
:101250002100A5000430210029020318362961303D
:101260002000EE00C9302100A000632906302100D3
:1012700029020318422919302000EE00FF30210016
:10128000A000632909302100290203184E2991305A
:101290002000EE00C1302100A0006329C1302000F1
:1012A000EE00FF302100A00063292200931C632977
:1012B000C9302000EE00D1302100A000FF30210015
:1012C000A1002100A500003021002C04031D7A2973
:1012D0001430AC0021002908013A031977292908A4
:1012E000053A0319772909302902031C7A290330AA
:1012F0002100AA00113021002D052000D000113A54
:1013000003194C2C2100AA014C2C0030F6002000BF
:101310006C08F7006D088431D624893121002C082F
:10132000031D97291430AC0002302100AA001130AF
:1013300021002D052000D000113A03194C2C21006A
:10134000AA014C2C21002B082000C30021002516E7
:10135000A5162515A5141A30200043020318FC29F0
:101360000430F70043088C31C12489312000C400C7
:10137000C5014408FC3EC3008630C600450803187A
:10138000450FC6074308F6004608F70080308C3149
:10139000922489312000C7002000EE00200044087C
:1013A000FC3EC40045080318450F863EC5000130C9
:1013B0004407C300C601C60D4508C6074308F6002A
:1013C0004608F70080308C31922489312000C70014
:1013D0002100A00002302000C4070318C50A4408F9
:1013E000F6004508F70080308C31922489312000C6
:1013F000C3002100A100052ADD302000EE0083306B
:101400002100A000D5302100A1006E302100AC00E9
:1014100005302100AA004C2C003021002C040319B7
:10142000192A883021002D052000D000803A031DA4
:101430001C2A2100AA014C2C223021002D0520005D
:10144000D000203A031D2E2A2100AB0A1B302B02AC
:101450000318AB0104302100AA004C2C11302100EC
:101460002D052000D000103A031D422A2100AB03B5
:101470001B302B02031C3E2A1A30AB000430210023
:10148000AA004C2C443021002D052000D000403A09
:10149000031D4C2C1A3021002B020318582A2B084C
:1014A000863155268A312000D6007708D500732A68
:1014B0002200111D5F2A2000D501D601732A2200C7
:1014C000111E672A01302000D500D601732A2200A0
:1014D000931C6F2A02302000D500D601732A0330F6
:1014E0002000D500D60106302100AA004C2C1A306D
:1014F00021002B020318B62A0430F7002B088C3188
:10150000C1248A312000D000D1015008FC3ED00017
:1015100051080318510F863ED1000330D00703183D
:10152000D10A5008F6005108F70080308C3192241F
:101530008A312000D20052080319A22A5208013A27
:10154000031DAC2A0130F60020005508F7005608AC
:101550008431D6248A31F82A0030F600200055085C
:10156000F70056088431D6248A31F82A210025163E
:10157000A5162515A514200055085604031DC92AD3
:1015800003302000EE0059302100A0002100A1000E
:10159000F82A20005508013A031DDC2A5608003AB3
:1015A000031DDC2A19302000EE00DD302100A000F0
:1015B000FF302100A100F82A20005508023A031D3F
:1015C000EF2A5608003A031DEF2ACD302000EE0026
:1015D000C9302100A000FF302100A100F82ACD3041
:1015E0002000EE0003302100A000FF302100A10008
:1015F0006E302100AC0007302100AA004C2C0030D6
:1016000021002C04031D072B2100AA014C2C88303B
:1016100021002D052000D000803A031D132B04303B
:101620002100AA004C2C2100AD1E292B2000D50A38
:101630000319D60A5608803E7D3E031D212BE93052
:101640005502031C3F2B09302000D5070318D60A8A
:101650003F2B21002D1E002CFF302000D507031C3E
:10166000D6035608803E7D3E031D382BE9305502D7
:10167000031C3F2BF7302000D507031CD6032000A6
:101680005508F6005608F70021002B082000CA0074
:101690007708CC007608CB001A304A020318DC2BFE
:1016A0000430F7004A088C31C1248B312000CD0072
:1016B000CE014D08FC3ECA008630CF004E0803180C
:1016C0004E0FCF070330CA070318CF0A4A08F600A7
:1016D0004F08F70080308C3192248B312000CD00F0
:1016E0004D08031D842B7830F3000530F400703072
:1016F000F500FE30F6004B08F7004C085E24200091
:10170000CC007708CB00ED2B20004D08013A031DDB
:101710009A2B3230F3000030F400CE30F500FF3069
:10172000F6004B08F7004C085E242000CC00770838
:10173000CB00ED2B20004D08023A031DB02BE73003
:10174000F3000330F4000030F5000030F6004B08E1
:10175000F7004C085E242000CC007708CB00ED2B6E
:1017600020004D08033A031DC62BC830F30000309B
:10177000F4000030F5000030F6004B08F7004C088C
:101780005E242000CC007708CB00ED2B20004D0814
:10179000043A031DED2B0130F3000030F40000305B
:1017A000F5000030F6004B08F7004C085E242000DE
:1017B000CC007708CB00ED2B0330F3000030F400B1
:1017C0000030F5000030F60020004B08F7004C0810
:1017D0005E242000CC007708CB0020004B08F700E7
:1017E0004C082000D6007708D5001F3028001D02C5
:1017F000031CFC2BF8309D0706302100AA004C2C5E
:10180000443021002D052000D000403A031D462C15
:101810001A3021002B020318182C20005508F6005E
:101820005608F70021002B08863118268C31422CEF
:10183000200055085604031D232C220011151112F7
:1018400011109310422C20005508013A031D302C32
:101850005608003A031D302C220011111116422C9B
:1018600020005508023A031D3E2C5608003A031D7D
:101870003E2C2200111111129314422C220011113E
:101880001112931004302100AA004C2CFA302800C9
:101890009D004C2C2100AA0121002A0800300319C8
:1018A00001302000D000D100510C0318592C200029
:1018B0009913031C5D2C2000991708002000C30019
:1018C0007708C4007608C5007508C6007408C7000C
:1018D0007308C8004708803EC9004308803E49029B
:1018E000031D742C4408480203187B2C2000460872
:1018F000F7004508912C20004308803EC9004508A8
:10190000803E4902031D862C4608440203188D2C94
:1019100020004808F7004708912C20004408F700F1
:1019200043080800003A0319992C803A03199F2CA8
:1019300000347608840077088500000808007708DE
:101940008A00760882000800003A0319AC2C803A1D
:101950000319B42CF7010034760884007708850059
:101960001200F700000808008C319F24F500F60FE4
:10197000F703F70A8C319F24F4007508F700740808
:1019800008002000E3007708E400E5010830E600E5
:101990002000631CCD2C6408E50720006308E700E5
:1019A0000310670CE3000310640DE700E400660316
:1019B000E700E6006708031DC82C6508080000342E
:1019C0000034003400340034003400340034003477
:0819D00000340034003400343F
:020000040001F9
:02000E00D40F0D
:02001000FF3AB5
:00000001FF
