:020000040000FA
:10000000000086312D2EFF348A012000911C4128EA
:10001000031022000D0D2000B3003308031D122829
:100020001030B30021008E0122008D012000330822
:10003000103A031928283308203A03192D283308C9
:10004000403A031932283308803A031937283B28ED
:100050002100240822008E003B28210025082200D0
:100060008E003B282100260822008E003B2821001C
:100070002A0822008E002000330822008D00200074
:10008000911009002000B401B50170212000B601D3
:100090002000931D5B28883100208031280017192B
:1000A000592803302100A40059302100A600210066
:1000B000A500200093112000931C6D292000B60A92
:1000C000CC23200036080F39031D4E292030B700FD
:1000D000B801B901BA010310350CBC00340CBB00E7
:1000E0000310BC0CBB0C0310BC0CBB0C3F30BB059D
:1000F000BC013B08BD000310350CBB00BC011F3028
:10010000BB05BC013B08BE003E0ABB000230F70045
:100110003B088731DA2780312000BC00BF013C0852
:100120006B3EBC000730BB003F0803183F0FBB0706
:100130000230F7003E088731DA2780312000BF0007
:10014000C0013F086B3EBF000730BE0040080318E7
:10015000400FBE07C00120003D084002031CD32809
:100160003F08F6003E08F70080308731BD27803118
:100170002000C2007708C100C3004208C40000305C
:10018000C41BFF30C600C5004308B7074408031866
:10019000440FB80745080318450FB9074608031868
:1001A000460FBA07F62820003C08F6003B08F70087
:1001B00080308731BD2780312000C2007708C10020
:1001C000C3004208C4000030C41BFF30C600C50095
:1001D0004308B70744080318440FB8074508031835
:1001E000450FB90746080318460FBA072000C00A92
:1001F00040304002031CAB28370E0F39BB00380ECD
:10020000BC00F039BB04BC06390EBD00F039BC049B
:10021000BD063A0EBE00F039BD04BE06F030BE1970
:10022000BE040310BE1B0314BE0CBD0CBC0CBB0CE7
:100230000310BE1B0314BE0CBD0CBC0CBB0C3B0856
:100240002100A00020003C082100A1002000B401F2
:10025000B5019D21AF232000991F4E292200131EB6
:1002600047292000361E4729210027082000B70013
:100270002100A400210028082000B7002100A500CB
:10028000210029082000B7002100A6004E290130D6
:10029000F60021002008F7002108872421001C080F
:1002A0002000B700B8013708BA00B90121001B08C7
:1002B0002000B700B8013708B9043808BA04390873
:1002C000B7003A08B8003708B40738080318380FE1
:1002D000B50721009D1420009310640048280800F1
:1002E0006A30210099000C308C0022008C01210022
:1002F0008D0122008D0121008E01023023008C002F
:1003000021001E169E1709309D009D1423008E01AA
:10031000053020009C00FA309B00210091147A30B7
:10032000280097001715F430960037309E00FA30F9
:100330009D00C03020008B0008002200111DA32961
:100340002100AE01AE2B2200911CA729AE2B21006B
:10035000220823040319B92920004808031DB729DE
:100360003C30C800FF302100A207031CA30320007B
:10037000C8030A3021002E020318AE2B01308A0078
:10038000C5302E0703188A0A8200CF29072A1B2AA4
:10039000602A782AC52AEF2A052B382B4F2B2200FA
:1003A000111EDC29003006262100A3007708A200D8
:1003B00001302100AE00AE2B2200931CEE29183034
:1003C00006262000EF007708EE00163006262000F3
:1003D000AC007708AE002100AC00F62916300626E6
:1003E0002000AC007708AE002100AB0017300626D5
:1003F0002000AC007708AE00AD002D0C0318022AD7
:1004000022001110031C062A22001114AE2B210019
:10041000AB01220093101110210022082304031DB8
:10042000AE2B193006262100A3007708A200023067
:100430002100AE00AE2B013006262000EF00770829
:10044000EE00023006262000AC007708AE00210046
:10045000AB002200111421002108803E2000AF00D3
:1004600020006F08803E20002F02031D3B2A200041
:100470006E0821002002031C582A22009314210038
:100480002B082100AC002200131661302100A700C8
:10049000C9302100A800FF302100A900193006262C
:1004A0002100A3007708A20003302100AE00AE2B8C
:1004B000210022082304031DAE2B22001115AE2BB0
:1004C0002200131A702A91142100AF011930062658
:1004D0002100A3007708A20004302100AE00AE2B5B
:1004E000210022082304031DAE2B22001115AE2B80
:1004F000031021002F0D2000AE000330AE072E08A0
:1005000006262000EF007708EE00023006262000C5
:10051000AC007708AE002100AB002200931011144C
:1005200021002108803E2000AF0020006F08803E9F
:1005300020002F02031DA02A20006E0821002002A7
:10054000031CBD2A220093140B3006262000AC00A9
:100550007708AE002100AC00031021002F0D200011
:10056000AE000430AE072E0806262100A30077084F
:10057000A20005302100AE00AE2B2100220823048A
:10058000031DAE2B22001115AE2B210022082304DF
:10059000031DAE2B2100AF0A04302F020318DA2A04
:1005A000193006262100A3007708A200043021009C
:1005B000AE00AE2B22001316C1302100A7008330FD
:1005C0002100A800FF302100A900193006262100D3
:1005D000A3007708A20006302100AE00AE2B220057
:1005E000131AFD2A9114193006262100A30077085A
:1005F000A20007302100AE00AE2B21002208230408
:10060000031DAE2B22001115AE2B220093101110EA
:10061000023006262000AD007708AE002100AB00B6
:100620000C3006262000AD007708AE00210020081F
:100630002000AF00210021082000B0002D0830026A
:10064000031D242B2E082F02031C302B0E300626F0
:100650002100A3007708A20008302100AE00AE2BD5
:10066000210022082304031DAE2B22001115AE2BFE
:100670000D3006262000AD007708AE002100AB004B
:10068000210022082304031DAE2B10300626210072
:10069000A3007708A20009302100AE00AE2B0F3076
:1006A00006262000AD007708AE002100AB00200038
:1006B000AE01AD01113020002D07AF00062620004D
:1006C000B0007708AF0021002206031D8E2B20000A
:1006D000300821002306031D8E2B3A3020004802EB
:1006E000031C8E2B22001316D1302100A700853069
:1006F0002100A80020002E0AAF00F13EAF000C3010
:100700000318013EB0002F08F6003008F7008030D3
:100710008731AB2783312100A900962B2000AD0A39
:100720002D08AE0004302D02031C5A2B2100220894
:100730002304031DAE2B2100AB01220093101115E1
:1007400013164B302100A700D1302100A800FF3044
:100750002100A900220011122100AE010800220090
:10076000931CCB2B21002108803E2000A0002000FC
:100770006F08803E20002002031DC22B20006E085F
:10078000210020020318C92B21002C082100AB00F6
:10079000CB2B2100AB01080021002D08031DD62B17
:1007A0006430AD0021002B082000C7002100AD03FC
:1007B00022000C102100AA142200131EF12B4C3031
:1007C00021002D022000A001A00D2008A100210C75
:1007D0000318EC2B22000C10031CF02B22000C142D
:1007E000052C2200911C052C1119052C21002D0827
:1007F00001392000A000A100210C0318012C2100C8
:10080000AA10031C052C2100AA14220091180A2CFE
:10081000111D122C22008C120C1221008C142200AB
:100820008C10582C2000470821002D022000A00128
:10083000031C20142008A100210C0318212C2200E5
:100840008C12031C252C22008C1621002D08200060
:10085000A000A1016430A0070318A10A20004708E6
:100860002000A200A3012108803EA4002308803EAE
:100870002402031D3D2C220820022000A401031C99
:1008800024142408A000200C0318482C22000C1269
:10089000031C4C2C22000C162200111C542C21008D
:1008A0008C1022008C10582C21008C1422008C10EB
:1008B0002000A00122008C1E5F2C2000A00A200036
:1008C0002008003003190130A200A000200C0318FA
:1008D0006B2C2100AA11031C6F2C2100AA152000EB
:1008E000A00122000C1E762C2000A00A2000200867
:1008F000003003190130A200A000200C0318822C44
:100900002100AA13031C862C2100AA17080020002E
:10091000AE007708AD007608AF000314AE1F0310D9
:10092000031C9B2C21002A122000AD09AE09AD0A40
:100930000319AE0A9D2C21002A16003020002F0436
:100940000319A52C2100AA122A1120002E08803E8E
:100950007D3E031DAD2CE8302D02031CBD2C200074
:100960002D08B0002E08B1003008F70031086025CE
:100970002000AE007708AD00AF0120002E08803EB9
:10098000803E031DC52C64302D02031CF92C200071
:100990002D08B0002E08B100B20120003108803EC1
:1009A000803E031DD52C64303002031CDE2C9C30AD
:1009B0002000B007031CB103B20ACD2C2000300880
:1009C000AD003108AE000F30B2053208F13EB20082
:1009D0000C300318013EB0003208F6003008F70072
:1009E00080308731AB2784312000B1002100A40082
:1009F000FC2CFF302100A40020002E08803E803E09
:100A0000031D042D0A302D020318112D20002F087C
:100A1000031D112D210024082000B000FF3A031906
:100A2000472D20002D08B0002E08B100B201200093
:100A30003108803E803E031D1F2D0A303002031C0A
:100A4000282DF6302000B007031CB103B20A172D81
:100A500020003008AD003108AE003208F13EB2008F
:100A60000C300318013EB0003208F6003008F700E1
:100A700080308731AB2785312000B1002100A500EF
:100A800020002F0803194A2D210025104A2DFF3080
:100A90002100A50020002D08AF00F13EAD000C3074
:100AA0000318013EAE002D08F6002E08F700803036
:100AB0008731AB2785312000AF002100A600080058
:100AC0002000A0007708A1000310200CA200210C38
:100AD000A3000310200CA400210CA6000310A40CFA
:100AE000A60C2608A30724080318240FA207230E28
:100AF0000F39A600220EA400F039A604A406260889
:100B0000A30724080318240FA2072208A600A401A3
:100B10002608A30724080318240FA2070310A20C19
:100B2000A30C0310A20CA30C0310A20CA30C031023
:100B3000230DA600220DA4000310A60DA40D031082
:100B4000A60DA40D0310230DA500220DAC00250851
:100B5000A6072C0803182C0FA4072608A1022408B6
:100B6000031C240FA0020630A1070318A00A210EBF
:100B70000F39A600200EA400F039A604A40626080A
:100B8000A30724080318240FA2072308F70022084C
:100B900008002000A7007708A9007608A800270809
:100BA00006262000AB007708AA002806031DDC2DCE
:100BB0002B0829060319052E03102000270DAA0073
:100BC00020002A0823009100200028082300930019
:100BD00015139513151520008B135530230096001F
:100BE000AA309600951420008B17230015112300BE
:100BF0009518F72D2000121220002908A800A9013D
:100C00002A08A700AA0A271CE02D08002000A0003F
:100C1000A101A2010310200DA3002000230823003E
:100C2000910015139513151413082000A000A401BA
:100C30002008A600A5012208A000A4012008250480
:100C4000A10024082604A2002308A000A30A201C57
:100C50000D2E2108F700220808001530F600073095
:100C6000F70080308731BD2786312000DE0077080D
:100C7000DD001730DF000730E00020005D08E100F4
:100C80005E08E200FF30DD07031CDE03610862043A
:100C90000319AA2E04305F07E100E201E20D6008AB
:100CA000E2076108F6006208F70080308731BD274F
:100CB00086312000E4007708E3005F08F600600852
:100CC000F70080308731BD2786312000E600E20042
:100CD0007708E500E10002305F07E100E201E20D84
:100CE0006008E2076108F6006208F700803087318B
:100CF000BD2786312000E200E8007708E100E70028
:100D000020006308E7006408E800FF30E307031CE5
:100D1000E403670868040319A42E6508F600660852
:100D2000F70080308731AB2786312000E70061086B
:100D300084006208850067088000E50A0319E60A56
:100D4000E10A0319E20A802E06302000DF070318AB
:100D5000E00A3D2E80314228080061348534FF349A
:100D600002346134C934FF34003461340334FF3455
:100D700003341934C934B734003419348534B734E2
:100D800002341934C9340D340034193485340D3427
:100D900002341934C93425340034193485342534E7
:100DA00002341934C934B134003419348534B134BF
:100DB000023419340334FF3403349134C934FF341A
:100DC000003491340334FF34033491348534FF34D8
:100DD0000234C1340334FF340334C1348534FF3466
:100DE0000234D1348534B7340234D13485340D34EF
:100DF0000234D134853425340234D1348534B134CD
:100E00000234C934CD34FF340134CD340334FF34DB
:100E10000334CD341934FF340434CD3461341934FF
:100E2000003411346134853402340E340034033418
:100E30000034AA34003401340034F93407346E34F9
:100E4000003402340034FB340734A034003402345C
:100E50000034FF340734AB34003401340034FB3445
:100E60000C34AC34003401340034FC340C34AD3474
:100E7000003401340034FD340C34AE340034013419
:100E80000034FD340734A234003402340034FE341C
:100E90000C34AF34003401340034FF340C34B0343B
:100EA00000340134003400340D34B13400340134E2
:100EB000003401340D34B2340034013400340234CF
:100EC0000D34B33400340134003403340D34B434FD
:100ED000003401340034003400341A34FE349D34BC
:100EE000FE34F234FE343334FF346934FF34983442
:100EF000FF34C334FF34EB34FF3410340034333464
:100F00000034553400347734003498340034B83425
:100F10000034D9340034FA3400341C3401343E3403
:100F200001346234013487340134AF340134D934AC
:100F30000134073402343934023470340234B034AA
:100F40000234FB34023458340334D1340334823451
:100F50000434CA340534003A0319B22F803A031915
:100F6000B82F003476088400770885000008080050
:100F700077088A00760882000800003A0319C52F16
:100F8000803A0319CD2FF7010034760884007708E2
:100F900085001200F700000808008731B827F50027
:100FA000F60FF703F70A8731B827F4007508F70042
:100FB000740808002000E9007708EA00EB01083017
:100FC000EC002000691CE62F6A08EB072000690886
:100FD000ED0003106D0CE90003106A0DED00EA004E
:100FE0006C08ED006D03EC006C08031DE12F6B082D
:100FF000080000340034003400340034003400347D
:1010000020008B1322000D082000D60021000E08BE
:101010002000D70022008D01D83021008E0003105F
:101020002100330D2000D800D90120008E1F1A287E
:101030002000D90A20005808DA005908D8005A04BC
:101040002100B3000310330D2000D800D901200087
:101050000E1E2C282000D90A20005808DA00590852
:10106000D8005A042100B3000310330D2000D8002B
:10107000D90120000E1F3E282000D90A2000580860
:10108000DA005908D8005A042100B3000310330DC8
:101090002000D800D90120008E1D50282000D90A38
:1010A00020005808DA005908D8005A042100B3007B
:1010B0002000560822008D002000570821008E00D5
:1010C00020008B1721003208031DB20308302100D5
:1010D00030020318A92C08308A0072303007031838
:1010E0008A0A82007A28CF281329E429012A6B2A48
:1010F000D62A5E2B2200131E8928210033080F39BF
:10110000031D89283308F039031989282200131296
:10111000AB2C8830210033052000D600803A031D17
:10112000A828D6012200911C97282000D60A20006A
:101130005608003003190130D700D600560C0318AA
:10114000A32822009110031CA72822009114AB2C85
:101150004430210033052000D600403A031DB42856
:1011600004302100B000AB2C2230210033052000D8
:10117000D600223A031DC02801302100B000AB2C5C
:101180001130210033052000D600113A031DAB2C8D
:1011900014302100B20002302100B000AB2C22003C
:1011A000111DDE2803302100A40059302100A500C4
:1011B0002100A600FF302100AA0008292200911C6E
:1011C000EE2819302100A40061302100A50049302B
:1011D0002100A600FF302100AA0008292200931C4C
:1011E000FB280130F60020006E08F7006F088431FC
:1011F00087248831082921002B082000D600D70138
:101200000030F6005608F7005708843187248931EA
:101210002230210033052000D600223A0319AB2CDE
:101220002100B001AB2C2200111D22290330210026
:10123000A40059302100A5002100A600FF302100A4
:10124000AA00C2292200111EA829FF302100A600F1
:101250002100AA0021002E08013A031D3629613021
:101260002100A40085302100A500C22921002E08FC
:10127000023A031D422961302100A400C930210037
:10128000A500C22921002E08043A031D6329193044
:101290002100A40083302100A50021002F08F13E89
:1012A0002000D6000C300318013ED7005608F60087
:1012B0005708F70080308731AB2789312000D800EC
:1012C0002100A600C22921002E08053A031D842909
:1012D000FF302100A40019302100A50021002F08B3
:1012E000F13E2000D6000C300318013ED70056080E
:1012F000F6005708F70080308731AB27893120008E
:10130000D8002100A600C22921002E08073A031D9B
:101310009029C1302100A40083302100A500C229FA
:1013200021002E08083A031D9C2991302100A400B9
:10133000C1302100A500C22921002E08093A031D51
:10134000C229C1302100A400FF302100A500C2291C
:101350002200931CB7294B302100A400C930210082
:10136000A500FF302100A6002100AA00C2294B30B1
:101370002100A40003302100A500FF302100A600B9
:101380002100AA00003021003204031DD9291430A5
:10139000B20021002E08013A0319D6292E08053A79
:1013A0000319D62908302E02031CD9290330210045
:1013B000B0001130210033052000D600113A031986
:1013C000AB2C2100B001AB2C0030F600210022082C
:1013D000F700230884318724893121003208031D56
:1013E000F6291430B20002302100B0001130210083
:1013F00033052000D600113A0319AB2C2100B001AF
:10140000AB2C210031082000C90021002A16AA16A1
:101410002A15AA141A302000490203185B2A043046
:10142000F70049088731DA278A312000CA00CB014A
:101430004A08AD3EC9000630CC004B0803184B0FDC
:10144000CC074908F6004C08F70080308731AB27FD
:101450008A312000CD002100A40020004A08AD3EC2
:10146000CA004B0803184B0F063ECB0001304A0759
:10147000C900CC01CC0D4B08CC074908F6004C083C
:10148000F70080308731AB278A312000CD00210062
:10149000A50002302000CA070318CB0A4A08F6004C
:1014A0004B08F70080308731AB278A312000C90014
:1014B0002100A600642ADD302100A4008330210031
:1014C000A500D5302100A6006E302100B200053005
:1014D0002100B000AB2C0030210032040319782A1F
:1014E0008830210033052000D600803A031D7B2A76
:1014F0002100B001AB2C2230210033052000D600A2
:10150000203A031D8D2A2100B10A1B303102031835
:10151000B10104302100B000AB2C113021003305A3
:101520002000D600103A031DA12A2100B1031B3070
:101530003102031C9D2A1A30B10004302100B00092
:10154000AB2C4430210033052000D600403A031D67
:10155000AB2C1A30210031020318B72A310886312A
:1015600006268A312000DC007708DB00D22A220020
:10157000111DBE2A2000DB01DC01D22A2200111E2F
:10158000C62A01302000DB00DC01D22A2200931C95
:10159000CE2A02302000DB00DC01D22A03302000FA
:1015A000DB00DC0106302100B000AB2C1A3021003A
:1015B00031020318152B0430F70031088731DA2780
:1015C0008A312000D600D7015608AD3ED600570814
:1015D0000318570F063ED7000330D6070318D70A63
:1015E0005608F6005708F70080308731AB278A315C
:1015F0002000D80058080319012B5808013A031D90
:101600000B2B0130F60020005B08F7005C088431EA
:1016100087248B31572B0030F60020005B08F70041
:101620005C08843187248B31572B21002A16AA1697
:101630002A15AA1420005B085C04031D282B033024
:101640002100A40059302100A5002100A600572B3D
:1016500020005B08013A031D3B2B5C08003A031D88
:101660003B2B19302100A400DD302100A500FF3004
:101670002100A600572B20005B08023A031D4E2BC9
:101680005C08003A031D4E2BCD302100A400C93068
:101690002100A500FF302100A600572BCD302100EE
:1016A000A40003302100A500FF302100A6006E3009
:1016B0002100B20007302100B000AB2C0030210027
:1016C0003204031D662B2100B001AB2C88302100B1
:1016D00033052000D600803A031D722B0430210010
:1016E000B000AB2C2100B31E882B2000DB0A0319AD
:1016F000DC0A5C08803E7D3E031D802BE9305B02E6
:10170000031C9E2B09302000DB070318DC0A9E2BEC
:101710002100331E5F2CFF302000DB07031CDC039D
:101720005C08803E7D3E031D972BE9305B02031C65
:101730009E2BF7302000DB07031CDC0320005B0836
:10174000F6005C08F700210031082000D00077087F
:10175000D2007608D1001A30500203183B2C043016
:10176000F70050088731DA278B312000D300D401ED
:101770005308AD3ED0000630D50054080318540F6E
:10178000D5070330D0070318D50A5008F6005508CE
:10179000F70080308731AB278B312000D30053080E
:1017A000031DE32B7830F3000530F4007030F500B2
:1017B000FE30F6005108F7005208BD242000D20088
:1017C0007708D1004C2C20005308013A031DF92B57
:1017D0003230F3000030F400CE30F500FF30F60078
:1017E0005108F7005208BD242000D2007708D1002C
:1017F0004C2C20005308023A031D0F2CE730F30055
:101800000330F4000030F5000030F6005108F70016
:101810005208BD242000D2007708D1004C2C2000B3
:101820005308033A031D252CC830F3000030F400A0
:101830000030F5000030F6005108F7005208BD24D2
:101840002000D2007708D1004C2C20005308043A25
:10185000031D4C2C0130F3000030F4000030F50083
:101860000030F6005108F7005208BD242000D200D5
:101870007708D1004C2C0330F3000030F400003026
:10188000F5000030F60020005108F7005208BD2492
:101890002000D2007708D10020005108F70052083C
:1018A0002000DC007708DB001F3028001D02031C2D
:1018B0005B2CF8309D0706302100B000AB2C443083
:1018C000210033052000D600403A031DA52C1A3014
:1018D000210031020318772C20005B08F6005C0819
:1018E000F700210031088531C9258C31A12C200059
:1018F0005B085C04031D822C2200111511121110CB
:101900009310A12C20005B08013A031D8F2C5C086A
:10191000003A031D8F2C220011111116A12C20005A
:101920005B08023A031D9D2C5C08003A031D9D2CA8
:101930002200111111129314A12C22001111111265
:10194000931004302100B000AB2CFA3028009D0029
:10195000AB2C2100B0012100300800300319013008
:101960002000D600D700570C0318B82C200099137C
:10197000031CBC2C2000991708002000C900770820
:10198000CA007608CB007508CC007408CD00730837
:10199000CE004D08803ECF004908803E4F02031D17
:1019A000D32C4A084E020318DA2C20004C08F7000A
:1019B0004B08F02C20004908803ECF004B08803EA9
:1019C0004F02031DE52C4C084A020318EC2C2000A2
:1019D0004E08F7004D08F02C20004A08F70049088F
:1019E00008000334B7340D342534B1346134413444
:1019F00037340134213400340034003400340034EE
:081A000000340034003400340E
:020000040001F9
:02000E00D40F0D
:02001000FF3AB5
:00000001FF
