:020000040000FA
:10000000000086313A2EFF348A012000911C4128DD
:10001000031022000D0D2000B3003308031D122829
:100020001030B30021008E0122008D012000330822
:10003000103A031928283308203A03192D283308C9
:10004000403A031932283308803A031937283B28ED
:100050002100240822008E003B28210025082200D0
:100060008E003B282100260822008E003B2821001C
:100070002A0822008E002000330822008D00200074
:10008000911009002000B401B50173212000B601D0
:100090002000931D5E288831002080312000181830
:1000A0005C28FF302100AA0003302100A400593051
:1000B0002100A6002100A500200093112000931E1E
:1000C00070292000B60AD923200036080F39031DF5
:1000D00051292030B700B801B901BA010310350C1D
:1000E000BC00340CBB000310BC0CBB0C0310BC0CDC
:1000F000BB0C3F30BB05BC013B08BD000310350CF9
:10010000BB00BC011F30BB05BC013B08BE003E0A62
:10011000BB000230F7003B088C31F1248031200015
:10012000BC00BF013C08783EBC000730BB003F0864
:1001300003183F0FBB070230F7003E088C31F12453
:1001400080312000BF00C0013F08783EBF0007306B
:10015000BE0040080318400FBE07C00120003D0844
:100160004002031CD6283F08F6003E08F700803006
:100170008731CA2780312000C2007708C100C30040
:100180004208C4000030C41BFF30C600C50043084D
:10019000B70744080318440FB80745080318450F6C
:1001A000B90746080318460FBA07F92820003C088B
:1001B000F6003B08F70080308731CA2780312000E5
:1001C000C2007708C100C3004208C4000030C41B4D
:1001D000FF30C600C5004308B70744080318440FA2
:1001E000B80745080318450FB90746080318460F16
:1001F000BA072000C00A40304002031CAE28370E68
:100200000F39BB00380EBC00F039BB04BC06390EF8
:10021000BD00F039BC04BD063A0EBE00F039BD0485
:10022000BE06F030BE19BE040310BE1B0314BE0C84
:10023000BD0CBC0CBB0C0310BE1B0314BE0CBD0CD0
:10024000BC0CBB0C3B082100A00020003C08210096
:10025000A1002000B401B501AA21BC232000991FF0
:1002600051292200131E4A292000361E4A29210046
:1002700027082000B7002100A40021002808200042
:10028000B7002100A500210029082000B7002100A7
:10029000A60051290130F60021002008F7002108AE
:1002A000942421009D1851291C082000B700B80192
:1002B0003708BA00B90121001B082000B700B801B7
:1002C0003708B9043808BA043908B7003A08B80042
:1002D0003708B40738080318380FB5072000931201
:1002E0006400482808006A30210099000C308C0016
:1002F00022008C0121008D0122008D0121008E0140
:10030000023023008C0021001E169E1709309D002C
:100310009D1423008E01053020009C00FA309B00C4
:100320002100911420009813181398121812981194
:1003300018151814F43026009900243098000B305A
:100340009A00373028009E00FA309D00C03020000F
:100350008B0008002200111DB0292100AE01BB2B2B
:100360002200911CB429BB2B21002208230403196D
:10037000C62920004808031DC4293C30C800FF30AE
:100380002100A207031CA3032000C8030A30210098
:100390002E020318BB2B01308A00D2302E0703181F
:1003A0008A0A8200DC29142A282A6D2A852AD22A60
:1003B000FC2A122B452B5C2B2200111EE929003050
:1003C00013262100A3007708A20001302100AE000F
:1003D000BB2B2200931CFB29183013262000EF00B2
:1003E0007708EE00163013262000AC007708AE0028
:1003F0002100AC00032A163013262000AC00770839
:10040000AE002100AB00173013262000AC007708A7
:10041000AE00AD002D0C03180F2A22001110031C92
:10042000132A22001114BB2B2100AB0122009310D0
:100430001110210022082304031DBB2B19301326A1
:100440002100A3007708A20002302100AE00BB2BE0
:10045000013013262000EF007708EE00023013264B
:100460002000AC007708AE002100AB002200111480
:1004700021002108803E2000AF0020006F08803E50
:1004800020002F02031D482A20006E0821002002B0
:10049000031C652A2200931421002B082100AC00C4
:1004A0002200131661302100A700C9302100A800E6
:1004B000FF302100A900193013262100A30077087E
:1004C000A20003302100AE00BB2B21002208230430
:1004D000031DBB2B22001115BB2B2200131A7D2AF2
:1004E00091142100AF01193013262100A3007708D1
:1004F000A20004302100AE00BB2B210022082304FF
:10050000031DBB2B22001115BB2B031021002F0D47
:100510002000AE000330AE072E0813262000EF00A7
:100520007708EE00023013262000AC007708AE00FA
:100530002100AB0022009310111421002108803EFD
:100540002000AF0020006F08803E20002F02031D16
:10055000AD2A20006E0821002002031CCA2A2200B6
:1005600093140B3013262000AC007708AE00210056
:10057000AC00031021002F0D2000AE000430AE07A8
:100580002E0813262100A3007708A20005302100C1
:10059000AE00BB2B210022082304031DBB2B22002D
:1005A0001115BB2B210022082304031DBB2B2100A6
:1005B000AF0A04302F020318E72A1930132621004E
:1005C000A3007708A20004302100AE00BB2B22005C
:1005D0001316C1302100A70083302100A800FF308E
:1005E0002100A900193013262100A3007708A200DA
:1005F00006302100AE00BB2B2200131A0A2B9114E7
:10060000193013262100A3007708A200073021002B
:10061000AE00BB2B210022082304031DBB2B2200AC
:100620001115BB2B2200931011100230132620004D
:10063000AD007708AE002100AB000C30132620007F
:10064000AD007708AE00210020082000AF00210097
:1006500021082000B0002D083002031D312B2E0888
:100660002F02031C3D2B0E3013262100A300770818
:10067000A20008302100AE00BB2B21002208230479
:10068000031DBB2B22001115BB2B0D3013262000A0
:10069000AD007708AE002100AB0021002208230442
:1006A000031DBB2B103013262100A3007708A200E6
:1006B00009302100AE00BB2B0F3013262000AD0007
:1006C0007708AE002100AB002000AE01AD01113073
:1006D00020002D07AF0013262000B0007708AF00E0
:1006E00021002206031D9B2B200030082100230639
:1006F000031D9B2B3A3020004802031C9B2B220039
:100700001316D1302100A70085302100A800200059
:100710002E0AAF00E73EAF0007300318013EB000DD
:100720002F08F6003008F70080308731B827833172
:100730002100A900A32B2000AD0A2D08AE00043033
:100740002D02031C672B210022082304031DBB2B51
:100750002100AB0122009310111513164B3021001C
:10076000A700D1302100A800FF302100A9002200FD
:1007700011122100AE0108002200931CD82B210089
:100780002108803E2000A00020006F08803E20004D
:100790002002031DCF2B20006E0821002002031829
:1007A000D62B21002C082100AB00D82B2100AB0157
:1007B000080021002D08031DE32B6430AD0021004B
:1007C0002B082000C7002100AD0322000C102100DF
:1007D000AA142200131EFE2B4C3021002D022000F3
:1007E000A001A00D2008A100210C0318F92B220064
:1007F0000C10031CFD2B22000C14122C2200911C47
:10080000122C1119122C21002D0801392000A000F2
:10081000A100210C03180E2C2100AA10031C122C7D
:100820002100AA1422009118172C111D1F2C220040
:100830008C120C1221008C1422008C10652C2000CC
:10084000470821002D022000A001031C20142008CD
:10085000A100210C03182E2C22008C12031C322C18
:1008600022008C1621002D082000A000A101643078
:10087000A0070318A10A200047082000A200A30136
:100880002108803EA4002308803E2402031D4A2C38
:10089000220820022000A401031C24142408A00024
:1008A000200C0318552C22000C12031C592C22007A
:1008B0000C162200111C612C21008C1022008C10BF
:1008C000652C21008C1422008C102000A001220035
:1008D0008C1E6C2C2000A00A200020080030031978
:1008E0000130A200A000200C0318782C2100AA11CE
:1008F000031C7C2C2100AA152000A00122000C1E44
:10090000832C2000A00A20002008003003190130A9
:10091000A200A000200C03188F2C2100AA13031C96
:10092000932C2100AA1708002000AE007708AD0024
:100930007608AF000314AE1F0310031CA82C21007F
:100940002A122000AD09AE09AD0A0319AE0AAA2C7D
:1009500021002A16003020002F040319B22C210098
:10096000AA122A1520002E08803E7D3E031DBA2CB7
:10097000E8302D02031CCA2C20002D08B0002E08E0
:10098000B1003008F70031086D252000AE0077086F
:10099000AD00AF0120002E08803E803E031DD22C0A
:1009A00064302D02031C062D20002D08B0002E08F7
:1009B000B100B20120003108803E803E031DE22CD0
:1009C00064303002031CEB2C9C302000B007031C69
:1009D000B103B20ADA2C20003008AD003108AE00B5
:1009E0000F30B2053208E73EB20007300318013E6F
:1009F000B0003208F6003008F70080308731B827A1
:100A000085312000B1002100A400092DFF30210014
:100A1000A40020002E08803E803E031D112D0A30C8
:100A20002D0203181E2D20002F08031D1E2D21004E
:100A300024082000B000FF3A0319542D20002D088F
:100A4000B0002E08B100B20120003108803E803E87
:100A5000031D2C2D0A303002031C352DF6302000EA
:100A6000B007031CB103B20A242D20003008AD00EA
:100A70003108AE003208E73EB20007300318013EED
:100A8000B0003208F6003008F70080308731B82710
:100A900085312000B1002100A50020002F08031996
:100AA000572D21002510572DFF302100A5002000D3
:100AB0002D08AF00E73EAD0007300318013EAE0041
:100AC0002D08F6002E08F70080308731B8278531D1
:100AD0002000AF002100A60008002000A000770839
:100AE000A1000310200CA200210CA3000310200C75
:100AF000A400210CA6000310A40CA60C2608A30732
:100B000024080318240FA207230E0F39A600220E73
:100B1000A400F039A604A4062608A3072408031895
:100B2000240FA2072208A600A4012608A307240870
:100B30000318240FA2070310A20CA30C0310A20C8D
:100B4000A30C0310A20CA30C0310230DA600220D6E
:100B5000A4000310A60DA40D0310A60DA40D0310F0
:100B6000230DA500220DAC002508A6072C080318AC
:100B70002C0FA4072608A1022408031C240FA0029E
:100B80000630A1070318A00A210E0F39A600200E77
:100B9000A400F039A604A4062608A3072408031815
:100BA000240FA2072308F700220808002000A7004E
:100BB0007708A9007608A800270813262000AB00B4
:100BC0007708AA002806031DE92D2B08290603191A
:100BD000122E03102000270DAA0020002A0823004F
:100BE0009100200028082300930015139513151574
:100BF00020008B13553023009600AA3096009514E0
:100C000020008B172300151123009518042E2000B7
:100C1000121220002908A800A9012A08A700AA0A80
:100C2000271CED2D08002000A000A101A201031047
:100C3000200DA30020002308230091001513951315
:100C4000151413082000A000A4012008A600A50187
:100C50002208A000A40120082504A10024082604DD
:100C6000A2002308A000A30A201C1A2E2108F700C6
:100C7000220808002230F6000730F7008030873164
:100C8000CA2786312000DE007708DD002430DF002F
:100C90000730E00020005D08E1005E08E200FF3060
:100CA000DD07031CDE03610862040319B72E04305C
:100CB0005F07E100E201E20D6008E2076108F6006B
:100CC0006208F70080308731CA2786312000E400AF
:100CD0007708E3005F08F6006008F700803087318E
:100CE000CA2786312000E600E2007708E500E1002F
:100CF00002305F07E100E201E20D6008E2076108EF
:100D0000F6006208F70080308731CA27863120005C
:100D1000E200E8007708E100E70020006308E70050
:100D20006408E800FF30E307031CE4036708680475
:100D30000319B12E6508F6006608F7008030873188
:100D4000B82786312000E70061088400620885002A
:100D500067088000E50A0319E60AE10A0319E20AB6
:100D60008D2E06302000DF070318E00A4A2E80315E
:100D70004228080061348534FF3402346134C934B8
:100D8000FF34003461340334FF3403341934C9347C
:100D9000B734003419348534B73402341934C934C3
:100DA0000D340034193485340D3402341934C93407
:100DB0002534003419348534253402341934C934C7
:100DC000B134003419348534B13402341934033465
:100DD000FF3403349134C934FF3400349134033484
:100DE000FF34033491348534FF340234C134033486
:100DF000FF340334C1348534FF340234D1348534B4
:100E0000B7340234D13485340D340234D1348534CE
:100E100025340234D1348534B1340234C934CD346C
:100E2000FF340134CD340334FF340334CD3419346A
:100E3000FF340434CD346134193400341134613456
:100E4000853402340E34003403340034AA340034C0
:100E500001340034F13407346E3400340234003489
:100E6000F3340734A034003402340034F734073448
:100E7000AB34003401340034F8340734AC3400347B
:100E800001340034F9340734AD3400340134003413
:100E9000FA340734AE34003401340034F534073406
:100EA000A234003402340034FB340734AF3400344D
:100EB00001340034FC340734B034003401340034DD
:100EC000FD340734B134003401340034FE340734C7
:100ED000B234003401340034FF340734B334003406
:100EE0000134003410340D34B4340034013400348F
:100EF00000340034D534FD34C134FE345934FF3469
:100F0000CF34FF343034003486340034D3340034EA
:100F10001A3401345C3401349C340134DA34013441
:100F200016340234513402348C340234C73402345F
:100F3000023403343F3403347D340334BD3403348A
:100F4000013404344834043494340434E53404342F
:100F50003F340534A4340534173406349E34063443
:100F6000443407341E3408345D340934AB340B3454
:100F7000003A0319BF2F803A0319C52F00347608B1
:100F80008400770885000008080077088A00760842
:100F900082000800003A0319D22F803A0319DA2F91
:100FA000F701003476088400770885001200F70006
:100FB000000808008731C527F500F60FF703F70A88
:100FC0008731C527F4007508F7007408080003345A
:100FD000B7340D342534B1346134413437340134FD
:100FE0002134003400340034003400340034003440
:100FF0000034003400340034003400340034003451
:1010000020008B1322000D082000D60021000E08BE
:101010002000D70022008D01D83021008E0003105F
:101020002100330D2000D800D90120008E1F1A287E
:101030002000D90A20005808DA005908D8005A04BC
:101040002100B3000310330D2000D800D901200087
:101050000E1E2C282000D90A20005808DA00590852
:10106000D8005A042100B3000310330D2000D8002B
:10107000D90120000E1F3E282000D90A2000580860
:10108000DA005908D8005A042100B3000310330DC8
:101090002000D800D90120008E1D50282000D90A38
:1010A00020005808DA005908D8005A042100B3007B
:1010B0002000560822008D002000570821008E00D5
:1010C00020008B1721003208031DB20308302100D5
:1010D00030020318A92C08308A0072303007031838
:1010E0008A0A82007A28CF281329E429012A6B2A48
:1010F000D62A5E2B2200131E8928210033080F39BF
:10110000031D89283308F039031989282200131296
:10111000AB2C8830210033052000D600803A031D17
:10112000A828D6012200911C97282000D60A20006A
:101130005608003003190130D700D600560C0318AA
:10114000A32822009110031CA72822009114AB2C85
:101150004430210033052000D600403A031DB42856
:1011600004302100B000AB2C2230210033052000D8
:10117000D600223A031DC02801302100B000AB2C5C
:101180001130210033052000D600113A031DAB2C8D
:1011900014302100B20002302100B000AB2C22003C
:1011A000111DDE2803302100A40059302100A500C4
:1011B0002100A600FF302100AA0008292200911C6E
:1011C000EE2819302100A40061302100A50049302B
:1011D0002100A600FF302100AA0008292200931C4C
:1011E000FB280130F60020006E08F7006F088431FC
:1011F00094248831082921002B082000D600D7012B
:101200000030F6005608F7005708843194248931DD
:101210002230210033052000D600223A0319AB2CDE
:101220002100B001AB2C2200111D22290330210026
:10123000A40059302100A5002100A600FF302100A4
:10124000AA00C2292200111EA829FF302100A600F1
:101250002100AA0021002E08013A031D3629613021
:101260002100A40085302100A500C22921002E08FC
:10127000023A031D422961302100A400C930210037
:10128000A500C22921002E08043A031D6329193044
:101290002100A40083302100A50021002F08E73E93
:1012A0002000D60007300318013ED7005608F6008C
:1012B0005708F70080308731B82789312000D800DF
:1012C0002100A600C22921002E08053A031D842909
:1012D000FF302100A40019302100A50021002F08B3
:1012E000E73E2000D60007300318013ED70056081D
:1012F000F6005708F70080308731B8278931200081
:10130000D8002100A600C22921002E08073A031D9B
:101310009029C1302100A40083302100A500C229FA
:1013200021002E08083A031D9C2991302100A400B9
:10133000C1302100A500C22921002E08093A031D51
:10134000C229C1302100A400FF302100A500C2291C
:101350002200931CB7294B302100A400C930210082
:10136000A500FF302100A6002100AA00C2294B30B1
:101370002100A40003302100A500FF302100A600B9
:101380002100AA00003021003204031DD9291430A5
:10139000B20021002E08013A0319D6292E08053A79
:1013A0000319D62908302E02031CD9290330210045
:1013B000B0001130210033052000D600113A031986
:1013C000AB2C2100B001AB2C0030F600210022082C
:1013D000F700230884319424893121003208031D49
:1013E000F6291430B20002302100B0001130210083
:1013F00033052000D600113A0319AB2C2100B001AF
:10140000AB2C210031082000C90021002A16AA16A1
:101410002A15AA141A302000490203185B2A043046
:10142000F70049088C31F1248A312000CA00CB0131
:101430004A08BA3EC9000630CC004B0803184B0FCF
:10144000CC074908F6004C08F70080308731B827F0
:101450008A312000CD002100A40020004A08BA3EB5
:10146000CA004B0803184B0F063ECB0001304A0759
:10147000C900CC01CC0D4B08CC074908F6004C083C
:10148000F70080308731B8278A312000CD00210055
:10149000A50002302000CA070318CB0A4A08F6004C
:1014A0004B08F70080308731B8278A312000C90007
:1014B0002100A600642ADD302100A4008330210031
:1014C000A500D5302100A6006E302100B200053005
:1014D0002100B000AB2C0030210032040319782A1F
:1014E0008830210033052000D600803A031D7B2A76
:1014F0002100B001AB2C2230210033052000D600A2
:10150000203A031D8D2A2100B10A1B303102031835
:10151000B10104302100B000AB2C113021003305A3
:101520002000D600103A031DA12A2100B1031B3070
:101530003102031C9D2A1A30B10004302100B00092
:10154000AB2C4430210033052000D600403A031D67
:10155000AB2C1A30210031020318B72A310886312A
:1015600013268A312000DC007708DB00D22A220013
:10157000111DBE2A2000DB01DC01D22A2200111E2F
:10158000C62A01302000DB00DC01D22A2200931C95
:10159000CE2A02302000DB00DC01D22A03302000FA
:1015A000DB00DC0106302100B000AB2C1A3021003A
:1015B00031020318152B0430F70031088C31F12467
:1015C0008A312000D600D7015608BA3ED600570807
:1015D0000318570F063ED7000330D6070318D70A63
:1015E0005608F6005708F70080308731B8278A314F
:1015F0002000D80058080319012B5808013A031D90
:101600000B2B0130F60020005B08F7005C088431EA
:1016100094248B31572B0030F60020005B08F70034
:101620005C08843194248B31572B21002A16AA168A
:101630002A15AA1420005B085C04031D282B033024
:101640002100A40059302100A5002100A600572B3D
:1016500020005B08013A031D3B2B5C08003A031D88
:101660003B2B19302100A400DD302100A500FF3004
:101670002100A600572B20005B08023A031D4E2BC9
:101680005C08003A031D4E2BCD302100A400C93068
:101690002100A500FF302100A600572BCD302100EE
:1016A000A40003302100A500FF302100A6006E3009
:1016B0002100B20007302100B000AB2C0030210027
:1016C0003204031D662B2100B001AB2C88302100B1
:1016D00033052000D600803A031D722B0430210010
:1016E000B000AB2C2100B31E882B2000DB0A0319AD
:1016F000DC0A5C08803E7D3E031D802BE9305B02E6
:10170000031C9E2B09302000DB070318DC0A9E2BEC
:101710002100331E5F2CFF302000DB07031CDC039D
:101720005C08803E7D3E031D972BE9305B02031C65
:101730009E2BF7302000DB07031CDC0320005B0836
:10174000F6005C08F700210031082000D00077087F
:10175000D2007608D1001A30500203183B2C043016
:10176000F70050088C31F1248B312000D300D401D4
:101770005308BA3ED0000630D50054080318540F61
:10178000D5070330D0070318D50A5008F6005508CE
:10179000F70080308731B8278B312000D300530801
:1017A000031DE32BC430F3000930F4007030F50062
:1017B000FE30F6005108F7005208BD242000D20088
:1017C0007708D1004C2C20005308013A031DF92B57
:1017D0006430F3000030F4009C30F500FF30F60078
:1017E0005108F7005208BD242000D2007708D1002C
:1017F0004C2C20005308023A031D0F2CE730F30055
:101800000330F4000030F5000030F6005108F70016
:101810005208BD242000D2007708D1004C2C2000B3
:101820005308033A031D252CC830F3000030F400A0
:101830000030F5000030F6005108F7005208BD24D2
:101840002000D2007708D1004C2C20005308043A25
:10185000031D4C2C0130F3000030F4000030F50083
:101860000030F6005108F7005208BD242000D200D5
:101870007708D1004C2C0330F3000030F400003026
:10188000F5000030F60020005108F7005208BD2492
:101890002000D2007708D10020005108F70052083C
:1018A0002000DC007708DB001F3028001D02031C2D
:1018B0005B2CF8309D0706302100B000AB2C443083
:1018C000210033052000D600403A031DA52C1A3014
:1018D000210031020318772C20005B08F6005C0819
:1018E000F700210031088531D6258C31A12C20004C
:1018F0005B085C04031D822C2200111511121110CB
:101900009310A12C20005B08013A031D8F2C5C086A
:10191000003A031D8F2C220011111116A12C20005A
:101920005B08023A031D9D2C5C08003A031D9D2CA8
:101930002200111111129314A12C22001111111265
:10194000931004302100B000AB2CFA3028009D0029
:10195000AB2C2100B0012100300800300319013008
:101960002000D600D700570C0318B82C200099137C
:10197000031CBC2C2000991708002000C900770820
:10198000CA007608CB007508CC007408CD00730837
:10199000CE004D08803ECF004908803E4F02031D17
:1019A000D32C4A084E020318DA2C20004C08F7000A
:1019B0004B08F02C20004908803ECF004B08803EA9
:1019C0004F02031DE52C4C084A020318EC2C2000A2
:1019D0004E08F7004D08F02C20004A08F70049088F
:1019E00008002000E9007708EA00EB010830EC006D
:1019F0002000691CFD2C6A08EB0720006908ED0037
:101A000003106D0CE90003106A0DED00EA006C088C
:101A1000ED006D03EC006C08031DF82C6B0808004A
:021A2000003490
:020000040001F9
:02000E00D40F0D
:02001000FF3AB5
:00000001FF
