:020000040000FA
:10000000000086317C2EFF348A012000911C41289B
:10001000031022000D0D2000B3003308031D122829
:100020001030B30021008E0122008D012000330822
:10003000103A031928283308203A03192D283308C9
:10004000403A031932283308803A031937283B28ED
:1000500020006D0822008E003B2820006E08220040
:100060008E003B282100200822008E003B28210022
:10007000240822008E002000330822008D0020007A
:1000800091100900FF302000B6000330B700B821FE
:10009000093021009D002000B801B9012000931D06
:1000A0006428883100208031200018186228FF3031
:1000B0002100A40003302000ED0059302100A000F1
:1000C0002000EE00200093112000931EEC28200059
:1000D000B80A0319B90A1B2420003808BA000F39DE
:1000E000031DB9283608F7003708EF202000BB00B1
:1000F0007708BA00153055262000BD007708BC00EF
:100100003A08BE003B08BF003C083E072000E9005B
:1001100020003F082000EA0020003D0803183D0AA7
:10012000031994282000EA07EC21FE232000991FE0
:10013000B9282200131EB2282000381EB228210040
:1001400021082000BA002000ED0021002208200034
:10015000BA002000EE00210023082000BA00210090
:10016000A000B9280130F60020006908F7006A08ED
:10017000D62421009D18B92803102000370CBB009D
:10018000360CBA003602BA003B08031C3B0A3702A1
:10019000BB0021001C082000BC00BD013C08BF00C2
:1001A000BE0121001B082000BC00BD013C08BE04AC
:1001B0003D08BF043E08BC003F08BD003C083A07AC
:1001C000B6003B08B7003D0803183D0FB7070930DC
:1001D00021009D002000931264004E28080020009A
:1001E000A0007708A1002030A200A301A401A6016D
:1001F0002108A5002008AC003F30A505AC0125086A
:10020000AE00210E0F39A500200EAC00F039A50478
:10021000AC060310AC0CA50C0310AC0CA50C1F30E5
:100220002505A100A0012108A500250AA100023092
:10023000F70021088D31232581312000A000AC0179
:100240002008BA3EA0008730A1002C0803182C0F0C
:10025000A1070230F70025088D31232581312000C8
:10026000AC00AD012C08BA3EAC008730A5002D08CB
:1002700003182D0FA507AD0120002E082D02031C29
:1002800064292C08F6002508F70080308D310625FA
:1002900081312000AF007708B000B1002F08B20014
:1002A0000030B21BFF30B500B4003108A20732089D
:1002B0000318320FA30734080318340FA4073508B6
:1002C0000318350FA607872920002008F60021080B
:1002D000F70080308D31062581312000AF0077088E
:1002E000B000B1002F08B2000030B21BFF30B500E3
:1002F000B4003108A20732080318320FA3073408EC
:100300000318340FA40735080318350FA60720007B
:10031000AD0A40302D02031C3C29220E0F39A100EA
:10032000230EA000F039A104A006240EA500F03988
:10033000A004A506260EAC00F039A504AC06F030EA
:10034000AC19AC040310AC1B0314AC0CA50CA00C32
:10035000A10C0310AC1B0314AC0CA50CA00CA10C3D
:100360002108A2002008A3002208F70023080800A3
:100370006A30210099000E308C0022008C0121008F
:100380008D0122008D0121008E01063023008C009A
:1003900021001E169E1723008E01053020009C00B0
:1003A000FA309B0021009114200098131813981222
:1003B0001812981518151814F430260099002430D6
:1003C00098000B309A00373028009E00FA309D00CC
:1003D000C03020008B0008002200111DF2292100EE
:1003E000A801FD2B2200911CF629FD2B20006B0893
:1003F0006C040319082A20004108031D062A3C301A
:10040000C100FF302000EB07031CEC032000C103F8
:100410000A30210028020318FD2B82308A00143094
:10042000280703188A0A82001E2A562A6A2AAF2A37
:10043000C72A142B3E2B542B872B9E2B2200111ED8
:100440002B2A003055262000EC007708EB00013005
:100450002100A800FD2B2200931C3D2A18305526B0
:100460002000E8007708E700163055262000AC0091
:100470007708AE002100A600452A16305526200038
:10048000AC007708AE002100A500173055262000EB
:10049000AC007708AE00AD002D0C0318512A2200E5
:1004A0001110031C552A22001114FD2B2100A50157
:1004B00022009310111020006B086C04031DFD2B0B
:1004C000193055262000EC007708EB00023021009F
:1004D000A800FD2B013055262000E8007708E70032
:1004E000023055262000AC007708AE002100A500A0
:1004F0002200111420006A08803E2000AF00200076
:100500006808803E20002F02031D8A2A2000670809
:1005100020006902031CA72A220093142100250849
:100520002100A6002200131661302100A100C9306D
:100530002100A200FF302100A30019305526200021
:10054000EC007708EB0003302100A800FD2B200011
:100550006B086C04031DFD2B22001115FD2B2200DE
:10056000131ABF2A91142100A90119305526200021
:10057000EC007708EB0004302100A800FD2B2000E0
:100580006B086C04031DFD2B22001115FD2B0310BD
:100590002100290D2000AE000330AE072E0855269D
:1005A0002000E8007708E700023055262000AC0064
:1005B0007708AE002100A50022009310111420003E
:1005C0006A08803E2000AF0020006808803E2000BE
:1005D0002F02031DEF2A2000670820006902031C78
:1005E0000C2B220093140B3055262000AC0077080A
:1005F000AE002100A60003102100290D2000AE004E
:100600000430AE072E0855262000EC007708EB00DA
:1006100005302100A800FD2B20006B086C04031D91
:10062000FD2B22001115FD2B20006B086C04031D0F
:10063000FD2B2100A90A043029020318292B1930A7
:1006400055262000EC007708EB0004302100A800BC
:10065000FD2B22001316C1302100A10083302100A0
:10066000A200FF302100A300193055262000EC0025
:100670007708EB0006302100A800FD2B2200131A9A
:100680004C2B9114193055262000EC007708EB0014
:1006900007302100A800FD2B20006B086C04031D0F
:1006A000FD2B22001115FD2B22009310111002309A
:1006B00055262000AD007708AE002100A5000C30C3
:1006C00055262000AD007708AE0020006908200004
:1006D000AF0020006A082000B0002D083002031D82
:1006E000732B2E082F02031C7F2B0E305526200063
:1006F000EC007708EB0008302100A800FD2B20005B
:100700006B086C04031DFD2B22001115FD2B0D3011
:1007100055262000AD007708AE002100A50020007E
:100720006B086C04031DFD2B103055262000EC00D7
:100730007708EB0009302100A800FD2B0F3055266B
:100740002000AD007708AE002100A5002000AE011A
:10075000AD01113020002D07AF0055262000B0005C
:100760007708AF0020006B06031DDD2B200030084A
:1007700020006C06031DDD2B3A3020004102031CD3
:10078000DD2B22001316D1302100A100853021007D
:10079000A20020002E0AAF00413EAF008D300318AA
:1007A000013EB0002F08F6003008F70080308C3191
:1007B000F42483312100A300E52B2000AD0A2D088D
:1007C000AE0004302D02031CA92B20006B086C0422
:1007D000031DFD2B2100A5012200931011151316F6
:1007E0004B302100A100D1302100A200FF302100B8
:1007F000A300220011122100A80108002200931C6E
:100800001A2C20006A08803E2000A0002000680802
:10081000803E20002002031D112C200067082000CC
:1008200069020318182C210026082100A5001A2CA3
:100830002100A501080021002708031D252C643094
:10084000A700210025082000C0002100A7032200E6
:100850000C102100A4142200131E402C4C30210047
:1008600027022000A001A00D2008A100210C0318E0
:100870003B2C22000C10031C3F2C22000C14542C87
:100880002200911C542C1119542C210027080139E5
:100890002000A000A100210C0318502C2100A4105E
:1008A000031C542C2100A41422009118592C111D52
:1008B000612C22008C120C1221008C1422008C104E
:1008C000A72C20004008210027022000A001031CC3
:1008D00020142008A100210C0318702C22008C1277
:1008E000031C742C22008C16210027082000A00075
:1008F000A1016430A0070318A10A200040082000CD
:10090000A200A3012108803EA4002308803E240207
:10091000031D8C2C220820022000A401031C241497
:100920002408A000200C0318972C22000C12031C92
:100930009B2C22000C162200111CA32C21008C10D1
:1009400022008C10A72C21008C1422008C10200077
:10095000A00122008C1EAE2C2000A00A200020083E
:10096000003003190130A200A000200C0318BA2C9B
:100970002100A411031CBE2C2100A4152000A001FD
:1009800022000C1EC52C2000A00A200020080030E8
:1009900003190130A200A000200C0318D12C210063
:1009A000A413031CD52C2100A41708002000AE00BE
:1009B0007708AD007608AF000314AE1F0310031CC8
:1009C000EA2C210024122000AD09AE09AD0A03195A
:1009D000AE0AEC2C21002416003020002F0403194D
:1009E000F42C2100A412241520002E08803E7D3E08
:1009F000031DFC2CE8302D02031C0C2D20002D08BB
:100A0000B0002E08B1003008F7003108AF252000F3
:100A1000AE007708AD00AF0120002E08803E803E7A
:100A2000031D142D64302D02031C482D20002D08B9
:100A3000B0002E08B100B20120003108803E803E97
:100A4000031D242D64303002031C2D2D9C3020000A
:100A5000B007031CB103B20A1C2D20003008AD0002
:100A60003108AE000F30B2053208413EB2008D3081
:100A70000318013EB0003208F6003008F70080305D
:100A80008C31F42485312000B1002000ED004B2D85
:100A9000FF302000ED0020002E08803E803E031D28
:100AA000532D0A302D020318602D20002F08031D3E
:100AB000602D20006D082000B000FF3A0319962D2C
:100AC00020002D08B0002E08B100B201200031082E
:100AD000803E803E031D6E2D0A303002031C772DB0
:100AE000F6302000B007031CB103B20A662D2000C7
:100AF0003008AD003108AE003208413EB2008D3002
:100B00000318013EB0003208F6003008F7008030CC
:100B10008C31F42485312000B1002000EE0020004B
:100B20002F080319992D20006E10992DFF302000F9
:100B3000EE0020002D08AF00413EAD008D300318BF
:100B4000013EAE002D08F6002E08F70080308C31F3
:100B5000F42485312000AF002100A000080020000F
:100B6000A0007708A1000310200CA200210CA30014
:100B70000310200CA400210CA6000310A40CA60C4A
:100B80002608A30724080318240FA207230E0F39F1
:100B9000A600220EA400F039A604A4062608A30786
:100BA00024080318240FA2072208A600A40126087F
:100BB000A30724080318240FA2070310A20CA30CF8
:100BC0000310A20CA30C0310A20CA30C0310230D02
:100BD000A600220DA4000310A60DA40D0310A60D5F
:100BE000A40D0310230DA500220DAC002508A607B7
:100BF0002C0803182C0FA4072608A1022408031CA4
:100C0000240FA0020630A1070318A00A210E0F39F5
:100C1000A600200EA400F039A604A4062608A30707
:100C200024080318240FA2072308F700220808004D
:100C30002000A7007708A9007608A80027085526F5
:100C40002000AB007708AA002806031D2B2E2B08D6
:100C500029060319542E03102000270DAA00200096
:100C60002A08230091002000280823009300151370
:100C70009513151520008B13553023009600AA30CC
:100C80009600951420008B1723001511230095184A
:100C9000462E2000121220002908A800A9012A08C7
:100CA000A700AA0A271C2F2E08002000A000A101DF
:100CB000A2010310200DA3002000230823009100AF
:100CC00015139513151413082000A000A401200883
:100CD000A600A5012208A000A40120082504A10067
:100CE00024082604A2002308A000A30A201C5C2ECE
:100CF0002108F700220808006430F6008730F7006A
:100D000080308D31062586312000D7007708D60047
:100D10006630D8008730D90020005608DA0057081E
:100D2000DB00FF30D607031CD7035A085B04031906
:100D3000F92E04305807DA00DB01DB0D5908DB0718
:100D40005A08F6005B08F70080308D3106258631A1
:100D50002000DD007708DC005808F6005908F7008D
:100D600080308D31062586312000DF00DB007708DA
:100D7000DE00DA0002305807DA00DB01DB0D59082B
:100D8000DB075A08F6005B08F70080308D31062536
:100D900086312000DB00E1007708DA00E000200067
:100DA0005C08E0005D08E100FF30DC07031CDD03A8
:100DB000600861040319F32E5E08F6005F08F7006F
:100DC00080308C31F42486312000E0005A08840001
:100DD0005B08850060088000DE0A0319DF0ADA0A72
:100DE0000319DB0ACF2E06302000D8070318D90AD2
:100DF0008C2E80314228080061348534FF3402345F
:100E00006134C934FF34003461340334FF340334B3
:100E10001934C934B734003419348534B734023442
:100E20001934C9340D340034193485340D34023486
:100E30001934C93425340034193485342534023446
:100E40001934C934B134003419348534B13402341E
:100E500019340334FF3403349134C934FF3400347B
:100E600091340334FF34033491348534FF34023435
:100E7000C1340334FF340334C1348534FF340234C5
:100E8000D1348534B7340234D13485340D3402344E
:100E9000D134853425340234D1348534B13402342C
:100EA000C934CD34FF340134CD340334FF3403343A
:100EB000CD341934FF340434CD3461341934003462
:100EC00011346134853402340E3400340334003478
:100ED000A434003401340034FA3407346734003465
:100EE00002340034FC3407346934003402340034F2
:100EF0004B340D34A5340034013400344C340D34FB
:100F0000A6340034013400344D340D34A734003499
:100F1000013400344E340D34A8340034013400342C
:100F2000FE3407346B340034023400344F340D3453
:100F3000A93400340134003450340D34AA34003460
:100F40000134003451340D34AB34003401340034F6
:100F500052340D34AC3400340134003453340D3485
:100F6000AD3400340134003454340D34AE34003424
:100F70000134003400340034D534FD34C134FE343F
:100F80005934FF34CF34FF343034003486340034E5
:100F9000D33400341A3401345C3401349C340134C9
:100FA000DA34013416340234513402348C340234CD
:100FB000C7340234023403343F3403347D34033401
:100FC000BD340334013404344834043494340434D8
:100FD000E53404343F340534A4340534173406347E
:100FE0009E340634443407341E3408345D340934E6
:100FF000AB340B340034003400340034003400349B
:1010000020008B1322000D082000CF0021000E08C5
:101010002000D00022008D01D83021008E00031066
:1010200021002D0D2000D100D20120008E1F1A2892
:101030002000D20A20005108D3005208D1005304E6
:101040002100AD0003102D0D2000D100D2012000A1
:101050000E1E2C282000D20A20005108D30052086E
:10106000D10053042100AD0003102D0D2000D1004C
:10107000D20120000E1F3E282000D20A2000510875
:10108000D3005208D10053042100AD0003102D0DF0
:101090002000D100D20120008E1D50282000D20A4D
:1010A00020005108D3005208D10053042100AD00A4
:1010B00020004F0822008D002000500821008E00E3
:1010C00020008B1721002C08031DAC0308302100E1
:1010D0002A020318AC2C88308A0072302A070318C1
:1010E0008A0A82007A28CF281329E729042A6E2A3F
:1010F000D92A612B2200131E892821002D080F39BF
:10110000031D89282D08F03903198928220013129C
:10111000AE2C883021002D052000CF00803A031D21
:10112000A828CF012200911C97282000CF0A200078
:101130004F08003003190130D000CF004F0C0318C6
:10114000A32822009110031CA72822009114AE2C82
:10115000443021002D052000CF00403A031DB42863
:1011600004302100AA00AE2C223021002D052000E1
:10117000CF00223A031DC02801302100AA00AE2C66
:10118000113021002D052000CF00113A031DAE2C97
:1011900014302100AC0002302100AA00AE2C220045
:1011A000111DDE2803302000ED0059302000EE0034
:1011B0002100A000FF302100A40008292200911C7A
:1011C000EE2819302000ED0061302000EE0049309B
:1011D0002100A000FF302100A40008292200931C58
:1011E000FB280130F60020006708F700680884310A
:1011F000D62488310829210025082000CF00D001FD
:101200000030F6004F08F70050088431D6248931A9
:10121000223021002D052000CF00223A0319AE2CE8
:101220002100AA01AE2C2200111D2229033020002A
:10123000ED0059302000EE002100A000FF30210019
:10124000A400C5292200111EAB29FF302100A000F7
:101250002100A40021002808013A031D392961302A
:101260002000ED00C9302000EE0085302100A000F4
:10127000C52921002808023A031D452961302000B4
:10128000ED00C9302000EE00C52921002808043AED
:10129000031D662983302000ED0019302000EE0088
:1012A00021002908413E2000CF008D300318013E67
:1012B000D0004F08F6005008F70080308C31F4243D
:1012C00089312000D1002100A000C5292100280873
:1012D000053A031D8729FF302000ED00193020005A
:1012E000EE0021002908413E2000CF008D30031878
:1012F000013ED0004F08F6005008F70080308C31D6
:10130000F42489312000D1002100A000C52921004A
:101310002808073A031D9329C1302000ED008330CF
:101320002000EE00C52921002808083A031D9F2946
:1013300091302000ED00C1302000EE00C5292100D1
:101340002808093A031DC529C1302000ED00FF30EF
:101350002000EE00C5292200931CBA294B30200042
:10136000ED00C9302000EE00FF302100A000210078
:10137000A400C5294B302000ED0003302000EE0012
:10138000FF302100A0002100A400003021002C0427
:10139000031DDC291430AC0021002808013A031990
:1013A000D9292808053A0319D92908302802031C2D
:1013B000DC2903302100AA00113021002D05200076
:1013C000CF00113A0319AE2C2100AA01AE2C003037
:1013D000F60020006B08F7006C088431D6248931B0
:1013E00021002C08031DF9291430AC000230210023
:1013F000AA00113021002D052000CF00113A031959
:10140000AE2C2100AA01AE2C21002B082000C20026
:1014100021002416A4162415A4141A302000420218
:1014200003185E2A0430F70042088D3123258A31E3
:101430002000C300C4014308FC3EC2008630C50042
:1014400044080318440FC5074208F6004508F70092
:1014500080308C31F4248A312000C6002000ED0059
:1014600020004308FC3EC30044080318440F863E96
:10147000C40001304307C200C501C50D4408C507BB
:101480004208F6004508F70080308C31F4248A3198
:101490002000C6002000EE0002302000C307031821
:1014A000C40A4308F6004408F70080308C31F42465
:1014B0008A312000C2002100A000672ADD30200010
:1014C000ED0083302000EE00D5302100A0006E300A
:1014D0002100AC0005302100AA00AE2C0030210014
:1014E0002C0403197B2A883021002D052000CF0011
:1014F000803A031D7E2A2100AA01AE2C2230210051
:101500002D052000CF00203A031D902A2100AB0AB0
:101510001B302B020318AB0104302100AA00AE2CB3
:10152000113021002D052000CF00103A031DA42A00
:101530002100AB031B302B02031CA02A1A30AB0086
:1015400004302100AA00AE2C443021002D052000DB
:10155000CF00403A031DAE2C1A3021002B02031895
:10156000BA2A2B08863155268A312000D500770803
:10157000D400D52A2200111DC12A2000D401D50192
:10158000D52A2200111EC92A01302000D400D5011D
:10159000D52A2200931CD12A02302000D400D50184
:1015A000D52A03302000D400D50106302100AA003E
:1015B000AE2C1A3021002B020318182B0430F70030
:1015C0002B088D3123258A312000CF00D0014F0810
:1015D000FC3ECF0050080318500F863ED000033069
:1015E000CF070318D00A4F08F6005008F7008030E4
:1015F0008C31F4248A312000D10051080319042BC6
:101600005108013A031D0E2B0130F600200054084A
:10161000F70055088431D6248B315A2B0030F60060
:1016200020005408F70055088431D6248B315A2BFA
:1016300021002416A4162415A414200054085504CF
:10164000031D2B2B03302000ED0059302000EE004D
:101650002100A0005A2B20005408013A031D3E2B04
:101660005508003A031D3E2B19302000ED00DD30F7
:101670002000EE00FF302100A0005A2B200054086B
:10168000023A031D512B5508003A031D512BCD3052
:101690002000ED00C9302000EE00FF302100A00046
:1016A0005A2BCD302000ED0003302000EE00FF303B
:1016B0002100A0006E302100AC0007302100AA00FC
:1016C000AE2C003021002C04031D692B2100AA013F
:1016D000AE2C883021002D052000CF00803A031D5C
:1016E000752B04302100AA00AE2C2100AD1E8B2BDF
:1016F0002000D40A0319D50A5508803E7D3E031DFB
:10170000832BE9305402031CA12B09302000D4079D
:101710000318D50AA12B21002D1E622CFF302000BA
:10172000D407031CD5035508803E7D3E031D9A2B2C
:10173000E9305402031CA12BF7302000D407031C0E
:10174000D50320005408F6005508F70021002B08A7
:101750002000C9007708CB007608CA001A30490279
:1017600003183E2C0430F70049088D3123258B31B6
:101770002000CC00CD014C08FC3EC9008630CE00D4
:101780004D0803184D0FCE070330C9070318CE0AC2
:101790004908F6004E08F70080308C31F4248B3174
:1017A0002000CC004C08031DE62BC430F3000930A8
:1017B000F4007030F500FE30F6004A08F7004B08E0
:1017C000C0242000CB007708CA004F2C20004C0812
:1017D000013A031DFC2B6430F3000030F4009C3010
:1017E000F500FF30F6004A08F7004B08C02420003F
:1017F000CB007708CA004F2C20004C08023A031D8A
:10180000122CE730F3000330F4000030F500003014
:10181000F6004A08F7004B08C0242000CB007708E8
:10182000CA004F2C20004C08033A031D282CC83056
:10183000F3000030F4000030F5000030F6004A08F4
:10184000F7004B08C0242000CB007708CA004F2CBB
:1018500020004C08043A031D4F2C0130F3000030E7
:10186000F4000030F5000030F6004A08F7004B089D
:10187000C0242000CB007708CA004F2C0330F300AF
:101880000030F4000030F5000030F60020004A0877
:10189000F7004B08C0242000CB007708CA002000C6
:1018A0004A08F7004B082000D5007708D4001F3005
:1018B00028001D02031C5E2CF8309D070630210015
:1018C000AA00AE2C443021002D052000CF00403A64
:1018D000031DA82C1A3021002B0203187A2C20009B
:1018E0005408F6005508F70021002B088631182609
:1018F0008C31A42C200054085504031D852C220093
:101900001115111211109310A42C20005408013A43
:10191000031D922C5508003A031D922C2200111130
:101920001116A42C20005408023A031DA02C5508BF
:10193000003A031DA02C2200111111129314A42CA3
:10194000220011111112931004302100AA00AE2CB4
:10195000FA3028009D00AE2C2100AA0121002A089F
:101960000030031901302000CF00D000500C0318C4
:10197000BB2C20009913031CBF2C200099170800D2
:101980002000C2007708C3007608C4007508C500AF
:101990007408C6007308C7004608803EC8004208A5
:1019A000803E4802031DD62C430847020318DD2C55
:1019B00020004508F7004408F32C20004208803E30
:1019C000C8004408803E4802031DE82C4508430235
:1019D0000318EF2C20004708F7004608F32C2000DE
:1019E0004308F70042080800003A0319FB2C803A2C
:1019F0000319012D0034760884007708850000085B
:101A0000080077088A00760882000800003A031967
:101A10000E2D803A0319162DF70100347608840044
:101A2000770885001200F700000808008D310125B5
:101A3000F500F60FF703F70A8D310125F40075085C
:101A4000F700740808002000E2007708E300E401D2
:101A50000830E5002000621C2F2D6308E4072000F9
:101A60006208E6000310660CE2000310630DE60056
:101A7000E3006503E600E5006608031D2A2D6408FF
:101A800008000334B7340D342534B13461344134A3
:101A9000373401342134003400340034003400344D
:0A1AA0000034003400340034003438
:020000040001F9
:02000E00D40F0D
:02001000FF3AB5
:00000001FF
