:020000040000FA
:1000000000008631332EFF348A012000911C4128E4
:10001000031022000D0D2000B3003308031D122829
:100020001030B30021008E0122008D012000330822
:10003000103A031928283308203A03192D283308C9
:10004000403A031932283308803A031937283B28ED
:100050002100240822008E003B28210025082200D0
:100060008E003B282100260822008E003B2821001C
:100070002A0822008E002000330822008D00200074
:10008000911009002000B401B50170212000B601D3
:100090002000931D5B28883100208031280017192B
:1000A000592803302100A40059302100A600210066
:1000B000A500200093112000931C6D292000B60A92
:1000C000D223200036080F39031D4E292030B700F7
:1000D000B801B901BA010310350CBC00340CBB00E7
:1000E0000310BC0CBB0C0310BC0CBB0C3F30BB059D
:1000F000BC013B08BD000310350CBB00BC011F3028
:10010000BB05BC013B08BE003E0ABB000230F70045
:100110003B088731E02780312000BC00BF013C084C
:10012000713EBC008730BB003F0803183F0FBB0780
:100130000230F7003E088731E02780312000BF0001
:10014000C0013F08713EBF008730BE004008031861
:10015000400FBE07C00120003D084002031CD32809
:100160003F08F6003E08F70080308731C327803112
:100170002000C2007708C100C3004208C40000305C
:10018000C41BFF30C600C5004308B7074408031866
:10019000440FB80745080318450FB9074608031868
:1001A000460FBA07F62820003C08F6003B08F70087
:1001B00080308731C32780312000C2007708C1001A
:1001C000C3004208C4000030C41BFF30C600C50095
:1001D0004308B70744080318440FB8074508031835
:1001E000450FB90746080318460FBA072000C00A92
:1001F00040304002031CAB28370E0F39BB00380ECD
:10020000BC00F039BB04BC06390EBD00F039BC049B
:10021000BD063A0EBE00F039BD04BE06F030BE1970
:10022000BE040310BE1B0314BE0CBD0CBC0CBB0CE7
:100230000310BE1B0314BE0CBD0CBC0CBB0C3B0856
:100240002100A00020003C082100A1002000B401F2
:10025000B5019F21B5232000991F4E292200131EAE
:1002600047292000361E4729210027082000B70013
:100270002100A400210028082000B7002100A500CB
:10028000210029082000B7002100A6004E290130D6
:10029000F60021002008F70021088D2421001C0809
:1002A0002000B700B8013708BA00B90121001B08C7
:1002B0002000B700B8013708B9043808BA04390873
:1002C000B7003A08B8003708B40738080318380FE1
:1002D000B50721009D1420009310640048280800F1
:1002E0006A30210099000C308C0022008C0124001F
:1002F0008C1021008D0122008D0121008E01023021
:1003000023008C0021001E169E1709309D009D14AD
:1003100023008E01053020009C00FA309B00210054
:1003200091147A30280097001715F4309600373072
:100330009E00FA309D00C03020008B000800220093
:10034000111DA5292100AE01B42B2200911CA92961
:10035000B42B2100220823040319BB2920004808DC
:10036000031DB9293C30C800FF302100A207031C3F
:10037000A3032000C8030A3021002E020318B42B67
:1003800081308A00C7302E0703188A0A8200D129DB
:10039000092A1D2A662A7E2ACB2AF52A0B2B3E2BF8
:1003A000552B2200111EDE2900300C262100A3004F
:1003B0007708A20001302100AE00B42B2200931C6C
:1003C000F02918300C262000EF007708EE001630D8
:1003D0000C262000AC007708AE002100AC00F82904
:1003E00016300C262000AC007708AE002100AB00D0
:1003F00017300C262000AC007708AE00AD002D0CA5
:100400000318042A22001110031C082A22001114C8
:10041000B42B2100AB0122009310111021002208FF
:100420002304031DB42B19300C262100A3007708E8
:10043000A20002302100AE00B42B01300C262000B7
:10044000EF007708EE0002300C262000AC007708A1
:10045000AE002100AB002200111421002108803ED3
:100460002000AF0020006F08803E20002F02031DF7
:100470003D2A20006E0821002002031C5E2A220073
:1004800093140B300C262000AC007708AE0021003E
:10049000AC002200131661302100A700C9302100F2
:1004A000A800FF302100A90019300C262100A3006C
:1004B0007708A20003302100AE00B42B21002208EF
:1004C0002304031DB42B22001115B42B2200131A90
:1004D000762A91142100AF0119300C262100A300C7
:1004E0007708A20004302100AE00B42B21002208BE
:1004F0002304031DB42B22001115B42B031021007B
:100500002F0D2000AE000330AE072E080C26200071
:10051000EF007708EE0002300C262000AC007708D0
:10052000AE002100AB00220093101114210021081D
:10053000803E2000AF0020006F08803E20002F0288
:10054000031DA62A20006E0821002002031CC32AD6
:10055000220093140B300C262000AC007708AE006C
:100560002100AC00031021002F0D2000AE0004304C
:10057000AE072E080C262100A3007708A200053044
:100580002100AE00B42B210022082304031DB42B4C
:1005900022001115B42B210022082304031DB42BC3
:1005A0002100AF0A04302F020318E02A19300C266C
:1005B0002100A3007708A20004302100AE00B42B74
:1005C00022001316C1302100A70083302100A800AB
:1005D000FF302100A90019300C262100A300770864
:1005E000A20006302100AE00B42B2200131A032B08
:1005F000911419300C262100A3007708A2000730BF
:100600002100AE00B42B210022082304031DB42BCB
:1006100022001115B42B22009310111002300C2669
:100620002000AD007708AE002100AB000C300C2696
:100630002000AD007708AE00210020082000AF00A8
:10064000210021082000B0002D083002031D2A2BB4
:100650002E082F02031C362B0E300C262100A3007F
:100660007708A20008302100AE00B42B2100220838
:100670002304031DB42B22001115B42B0D300C26BE
:100680002000AD007708AE002100AB002100220859
:100690002304031DB42B10300C262100A30077087F
:1006A000A20009302100AE00B42B0F300C26200030
:1006B000AD007708AE002100AB002000AE01AD0117
:1006C000113020002D07AF000C262000B000770865
:1006D000AF0021002206031D942B200030082100CA
:1006E0002306031D942B3A3020004802031C942B50
:1006F00022001316D1302100A70085302100A80068
:1007000020002E0AAF00F13EAF008C300318013EEE
:10071000B0002F08F6003008F70080308731B1278D
:1007200083312100A9009C2B2000AD0A2D08AE00CA
:1007300004302D02031C602B210022082304031D1A
:10074000B42B2100AB0122009310111513164B306E
:100750002100A700D1302100A800FF302100A9000E
:10076000220011122100AE0108002200931CD12B9F
:1007700021002108803E2000A00020006F08803E5C
:1007800020002002031DC82B20006E08210020023B
:100790000318CF2B21002C082100AB00D12B210006
:1007A000AB01080021002D08031DDC2B6430AD00D7
:1007B00021002B082000C7002100AD0322000C10EF
:1007C0002100AA142200131EF72B4C3021002D0209
:1007D0002000A001A00D2008A100210C0318F22B7D
:1007E00022000C10031CF62B22000C140B2C2200F0
:1007F000911C0B2C11190B2C21002D080139200004
:10080000A000A100210C0318072C2100AA10031C32
:100810000B2C2100AA1422009118102C111D182C49
:1008200022008C120C1221008C1022008C105E2CE5
:100830002000470821002D022000A001031C2014E5
:100840002008A100210C0318272C22008C12031C65
:100850002B2C22008C1621002D082000A000A101C5
:100860006430A0070318A10A200047082000A20056
:10087000A3012108803EA4002308803E2402031D1A
:10088000432C220820022000A401031C2414240865
:10089000A000200C03184E2C22000C12031C522C1A
:1008A00022000C162200111C5A2C21008C1422004C
:1008B0008C105E2C21008C1022008C102000A001D6
:1008C00022008C1E652C2000A00A20002008003089
:1008D00003190130A200A000200C0318712C210084
:1008E000AA11031C752C2100AA152000A0012200CA
:1008F0000C1E7C2C2000A00A2000200800300319C8
:100900000130A200A000200C0318882C2100AA139B
:10091000031C8C2C2100AA1708002000AE007708C9
:10092000AD007608AF000314AE1F0310031CA12C0A
:1009300021002A122000AD09AE09AD0A0319AE0A42
:10094000A32C21002A16003020002F040319AB2C01
:100950002100AA122A1520002E08803E7D3E031D8C
:10096000B32CE8302D02031CC32C20002D08B0004E
:100970002E08B1003008F700310866252000AE00CF
:100980007708AD00AF0120002E08803E803E031D99
:10099000CB2C64302D02031CFF2C20002D08B0004E
:1009A0002E08B100B20120003108803E803E031DB8
:1009B000DB2C64303002031CE42C9C302000B00798
:1009C000031CB103B20AD32C20003008AD0031085B
:1009D000AE000F30B2053208F13EB2008C30031881
:1009E000013EB0003208F6003008F7008030873151
:1009F000B12784312000B1002100A400022DFF3076
:100A00002100A40020002E08803E803E031D0A2DF8
:100A10000A302D020318172D20002F08031D172D53
:100A2000210024082000B000FF3A03194D2D2000BA
:100A30002D08B0002E08B100B20120003108803E20
:100A4000803E031D252D0A303002031C2E2DF6306A
:100A50002000B007031CB103B20A1D2D200030088E
:100A6000AD003108AE003208F13EB2008C30031800
:100A7000013EB0003208F6003008F70080308731C0
:100A8000B12785312000B1002100A50020002F08EA
:100A90000319502D21002510502DFF302100A500F5
:100AA00020002D08AF00F13EAD008C300318013E50
:100AB000AE002D08F6002E08F70080308731B127F0
:100AC00085312000AF002100A60008002000A00012
:100AD0007708A1000310200CA200210CA300031032
:100AE000200CA400210CA6000310A40CA60C2608C0
:100AF000A30724080318240FA207230E0F39A6000A
:100B0000220EA400F039A604A4062608A307240890
:100B10000318240FA2072208A600A4012608A30791
:100B200024080318240FA2070310A20CA30C03101F
:100B3000A20CA30C0310A20CA30C0310230DA600FF
:100B4000220DA4000310A60DA40D0310A60DA40DE4
:100B50000310230DA500220DAC002508A6072C08C4
:100B600003182C0FA4072608A1022408031C240F35
:100B7000A0020630A1070318A00A210E0F39A60013
:100B8000200EA400F039A604A4062608A307240812
:100B90000318240FA2072308F700220808002000EA
:100BA000A7007708A9007608A80027080C262000CF
:100BB000AB007708AA002806031DE22D2B082906A2
:100BC00003190B2E03102000270DAA0020002A086D
:100BD000230091002000280823009300151395138B
:100BE000151520008B13553023009600AA3096006F
:100BF000951420008B172300151123009518FD2D47
:100C00002000121220002908A800A9012A08A70024
:100C1000AA0A271CE62D08002000A000A101A201BD
:100C20000310200DA30020002308230091001513BA
:100C30009513151413082000A000A4012008A60095
:100C4000A5012208A000A40120082504A100240871
:100C50002604A2002308A000A30A201C132E2108AA
:100C6000F700220808001B30F6008730F7008030BC
:100C70008731C32786312000DE007708DD001D3074
:100C8000DF008730E00020005D08E1005E08E20040
:100C9000FF30DD07031CDE03610862040319B02E78
:100CA00004305F07E100E201E20D6008E20761083D
:100CB000F6006208F70080308731C32786312000B4
:100CC000E4007708E3005F08F6006008F700803072
:100CD0008731C32786312000E600E2007708E5006F
:100CE000E10002305F07E100E201E20D6008E20787
:100CF0006108F6006208F70080308731C32786312B
:100D00002000E200E8007708E100E7002000630827
:100D1000E7006408E800FF30E307031CE40367080A
:100D200068040319AA2E6508F6006608F7008030EB
:100D30008731B12786312000E7006108840062080E
:100D4000850067088000E50A0319E60AE10A03192D
:100D5000E20A862E06302000DF070318E00A432E41
:100D600080314228080061348534FF340234613414
:100D7000C934FF34003461340334FF34033419348C
:100D8000C934B734003419348534B73402341934D3
:100D9000C9340D340034193485340D340234193417
:100DA000C9342534003419348534253402341934D7
:100DB000C934B134003419348534B13402341934AF
:100DC0000334FF3403349134C934FF340034913494
:100DD0000334FF34033491348534FF340234C13496
:100DE0000334FF340334C1348534FF340234D13446
:100DF0008534B7340234D13485340D340234D134DF
:100E0000853425340234D1348534B1340234C934C4
:100E1000CD34FF340134CD340334FF340334CD34C6
:100E20001934FF340434CD346134193400341134AE
:100E30006134853402340E34003403340034AA346F
:100E4000003401340034FE3407346E34003402348C
:100E50000034FB340C34A034003402340034FF344A
:100E60000C34AB3400340134003400340D34AC3471
:100E700000340134003401340D34AD340034013415
:100E8000003402340D34AE34003401340034FD3407
:100E90000C34A23400340234003403340D34AF3443
:100EA00000340134003404340D34B03400340134DF
:100EB000003405340D34B1340034013400340634C8
:100EC0000D34B23400340134003407340D34B334FB
:100ED00000340134003408340D34B43400340134A7
:100EE000003400340034D534FD34C134FE34593478
:100EF000FF34CF34FF343034003486340034D334FC
:100F000000341A3401345C3401349C340134DA3452
:100F1000013416340234513402348C340234C73470
:100F20000234023403343F3403347D340334BD349B
:100F30000334013404344834043494340434E53440
:100F400004343F340534A4340534173406349E3455
:100F50000634443407341E3408345D340934AB3469
:100F60000B34003A0319B82F803A0319BE2F00340E
:100F700076088400770885000008080077088A0052
:100F8000760882000800003A0319CB2F803A031933
:100F9000D32FF7010034760884007708850012000B
:100FA000F700000808008731BE27F500F60FF703A9
:100FB000F70A8731BE27F4007508F70074080800A7
:100FC0002000E9007708EA00EB010830EC0020007F
:100FD000691CEC2F6A08EB0720006908ED0003107C
:100FE0006D0CE90003106A0DED00EA006C03ED00E2
:100FF000EC006D08031DE72F6B0808000034003477
:1010000020008B1322000D082000D60021000E08BE
:101010002000D70022008D01D83021008E0003105F
:101020002100330D2000D800D90120008E1F1A287E
:101030002000D90A20005808DA005908D8005A04BC
:101040002100B3000310330D2000D800D901200087
:101050000E1E2C282000D90A20005808DA00590852
:10106000D8005A042100B3000310330D2000D8002B
:10107000D90120000E1F3E282000D90A2000580860
:10108000DA005908D8005A042100B3000310330DC8
:101090002000D800D90120008E1D50282000D90A38
:1010A00020005808DA005908D8005A042100B3007B
:1010B0002000560822008D002000570821008E00D5
:1010C00020008B1721003208031DB20308302100D5
:1010D00030020318A92C88308A00723030070318B8
:1010E0008A0A82007A28CF281329E429012A6B2A48
:1010F000D62A5E2B2200131E8928210033080F39BF
:10110000031D89283308F039031989282200131296
:10111000AB2C8830210033052000D600803A031D17
:10112000A828D6012200911C97282000D60A20006A
:101130005608003003190130D700D600560C0318AA
:10114000A32822009110031CA72822009114AB2C85
:101150004430210033052000D600403A031DB42856
:1011600004302100B000AB2C2230210033052000D8
:10117000D600223A031DC02801302100B000AB2C5C
:101180001130210033052000D600113A031DAB2C8D
:1011900014302100B20002302100B000AB2C22003C
:1011A000111DDE2803302100A40059302100A500C4
:1011B0002100A600FF302100AA0008292200911C6E
:1011C000EE2819302100A40061302100A50049302B
:1011D0002100A600FF302100AA0008292200931C4C
:1011E000FB280130F60020006E08F7006F088431FC
:1011F0008D248831082921002B082000D600D70132
:101200000030F6005608F700570884318D248931E4
:101210002230210033052000D600223A0319AB2CDE
:101220002100B001AB2C2200111D22290330210026
:10123000A40059302100A5002100A600FF302100A4
:10124000AA00C2292200111EA829FF302100A600F1
:101250002100AA0021002E08013A031D3629613021
:101260002100A40085302100A500C22921002E08FC
:10127000023A031D422961302100A400C930210037
:10128000A500C22921002E08043A031D6329193044
:101290002100A40083302100A50021002F08F13E89
:1012A0002000D6008C300318013ED7005608F60007
:1012B0005708F70080308731B12789312000D800E6
:1012C0002100A600C22921002E08053A031D842909
:1012D000FF302100A40019302100A50021002F08B3
:1012E000F13E2000D6008C300318013ED70056088E
:1012F000F6005708F70080308731B1278931200088
:10130000D8002100A600C22921002E08073A031D9B
:101310009029C1302100A40083302100A500C229FA
:1013200021002E08083A031D9C2991302100A400B9
:10133000C1302100A500C22921002E08093A031D51
:10134000C229C1302100A400FF302100A500C2291C
:101350002200931CB7294B302100A400C930210082
:10136000A500FF302100A6002100AA00C2294B30B1
:101370002100A40003302100A500FF302100A600B9
:101380002100AA00003021003204031DD9291430A5
:10139000B20021002E08013A0319D6292E08053A79
:1013A0000319D62908302E02031CD9290330210045
:1013B000B0001130210033052000D600113A031986
:1013C000AB2C2100B001AB2C0030F600210022082C
:1013D000F700230884318D24893121003208031D50
:1013E000F6291430B20002302100B0001130210083
:1013F00033052000D600113A0319AB2C2100B001AF
:10140000AB2C210031082000C90021002A16AA16A1
:101410002A15AA141A302000490203185B2A043046
:10142000F70049088731E0278A312000CA00CB0144
:101430004A08B33EC9008630CC004B0803184B0F56
:10144000CC074908F6004C08F70080308731B127F7
:101450008A312000CD002100A40020004A08B33EBC
:10146000CA004B0803184B0F863ECB0001304A07D9
:10147000C900CC01CC0D4B08CC074908F6004C083C
:10148000F70080308731B1278A312000CD0021005C
:10149000A50002302000CA070318CB0A4A08F6004C
:1014A0004B08F70080308731B1278A312000C9000E
:1014B0002100A600642ADD302100A4008330210031
:1014C000A500D5302100A6006E302100B200053005
:1014D0002100B000AB2C0030210032040319782A1F
:1014E0008830210033052000D600803A031D7B2A76
:1014F0002100B001AB2C2230210033052000D600A2
:10150000203A031D8D2A2100B10A1B303102031835
:10151000B10104302100B000AB2C113021003305A3
:101520002000D600103A031DA12A2100B1031B3070
:101530003102031C9D2A1A30B10004302100B00092
:10154000AB2C4430210033052000D600403A031D67
:10155000AB2C1A30210031020318B72A310886312A
:101560000C268A312000DC007708DB00D22A22001A
:10157000111DBE2A2000DB01DC01D22A2200111E2F
:10158000C62A01302000DB00DC01D22A2200931C95
:10159000CE2A02302000DB00DC01D22A03302000FA
:1015A000DB00DC0106302100B000AB2C1A3021003A
:1015B00031020318152B0430F70031088731E0277A
:1015C0008A312000D600D7015608B33ED60057080E
:1015D0000318570F863ED7000330D6070318D70AE3
:1015E0005608F6005708F70080308731B1278A3156
:1015F0002000D80058080319012B5808013A031D90
:101600000B2B0130F60020005B08F7005C088431EA
:101610008D248B31572B0030F60020005B08F7003B
:101620005C0884318D248B31572B21002A16AA1691
:101630002A15AA1420005B085C04031D282B033024
:101640002100A40059302100A5002100A600572B3D
:1016500020005B08013A031D3B2B5C08003A031D88
:101660003B2B19302100A400DD302100A500FF3004
:101670002100A600572B20005B08023A031D4E2BC9
:101680005C08003A031D4E2BCD302100A400C93068
:101690002100A500FF302100A600572BCD302100EE
:1016A000A40003302100A500FF302100A6006E3009
:1016B0002100B20007302100B000AB2C0030210027
:1016C0003204031D662B2100B001AB2C88302100B1
:1016D00033052000D600803A031D722B0430210010
:1016E000B000AB2C2100B31E882B2000DB0A0319AD
:1016F000DC0A5C08803E7D3E031D802BE9305B02E6
:10170000031C9E2B09302000DB070318DC0A9E2BEC
:101710002100331E5F2CFF302000DB07031CDC039D
:101720005C08803E7D3E031D972BE9305B02031C65
:101730009E2BF7302000DB07031CDC0320005B0836
:10174000F6005C08F700210031082000D00077087F
:10175000D2007608D1001A30500203183B2C043016
:10176000F70050088731E0278B312000D300D401E7
:101770005308B33ED0008630D50054080318540FE8
:10178000D5070330D0070318D50A5008F6005508CE
:10179000F70080308731B1278B312000D300530808
:1017A000031DE32BC430F3000930F4007030F50062
:1017B000FE30F6005108F7005208BD242000D20088
:1017C0007708D1004C2C20005308013A031DF92B57
:1017D0006430F3000030F4009C30F500FF30F60078
:1017E0005108F7005208BD242000D2007708D1002C
:1017F0004C2C20005308023A031D0F2CE730F30055
:101800000330F4000030F5000030F6005108F70016
:101810005208BD242000D2007708D1004C2C2000B3
:101820005308033A031D252CC830F3000030F400A0
:101830000030F5000030F6005108F7005208BD24D2
:101840002000D2007708D1004C2C20005308043A25
:10185000031D4C2C0130F3000030F4000030F50083
:101860000030F6005108F7005208BD242000D200D5
:101870007708D1004C2C0330F3000030F400003026
:10188000F5000030F60020005108F7005208BD2492
:101890002000D2007708D10020005108F70052083C
:1018A0002000DC007708DB001F3028001D02031C2D
:1018B0005B2CF8309D0706302100B000AB2C443083
:1018C000210033052000D600403A031DA52C1A3014
:1018D000210031020318772C20005B08F6005C0819
:1018E000F700210031088531CF258C31A12C200053
:1018F0005B085C04031D822C2200111511121110CB
:101900009310A12C20005B08013A031D8F2C5C086A
:10191000003A031D8F2C220011111116A12C20005A
:101920005B08023A031D9D2C5C08003A031D9D2CA8
:101930002200111111129314A12C22001111111265
:10194000931004302100B000AB2CFA3028009D0029
:10195000AB2C2100B0012100300800300319013008
:101960002000D600D700570C0318B82C200099137C
:10197000031CBC2C2000991708002000C900770820
:10198000CA007608CB007508CC007408CD00730837
:10199000CE004D08803ECF004908803E4F02031D17
:1019A000D32C4A084E020318DA2C20004C08F7000A
:1019B0004B08F02C20004908803ECF004B08803EA9
:1019C0004F02031DE52C4C084A020318EC2C2000A2
:1019D0004E08F7004D08F02C20004A08F70049088F
:1019E00008000334B7340D342534B1346134413444
:1019F00037340134213400340034003400340034EE
:101A00000034003400340034003400340034003436
:021A10000034A0
:020000040001F9
:02000E00D40F0D
:02001000FF3AB5
:00000001FF
