:020000040000FA
:10000000000086316D2EFF348A012000911C4628A5
:10001000031022000D0D2000B3003308031D122829
:100020001030B30021008E0122008D012000330822
:10003000103A031928283308203A03192D283308C9
:10004000403A031932283308803A031937283B28ED
:100050002100240822008E003B28210025082200D0
:100060008E003B282100260822008E003B2821001C
:100070002A0822008E002000330822008D00003064
:1000800021003004031DB00320009110090020005E
:10009000B401B501AA212000B6012000931D6028FB
:1000A000883100208031280017195E280330210094
:1000B000A40059302100A6002100A50020009311C2
:1000C000003021003004031D6E2816304626200023
:1000D000B8007708B7002100B0000C242000931C62
:1000E000A7292000B60A36080F39031D88292030B9
:1000F000B700B801B901BA010310350CBC00340CCB
:10010000BB000310BC0CBB0C0310BC0CBB0C3F3081
:10011000BB05BC013B08BD000310350CBB00BC0196
:100120001F30BB05BC013B08BE003E0ABB000230CD
:10013000F7003B088D31362580312000BC00BF011F
:100140003C08B53EBC000730BB003F0803183F0F1A
:10015000BB070230F7003E088D3136258031200084
:10016000BF00C0013F08B53EBF000730BE004008D9
:100170000318400FBE07C00120003D084002031CC9
:10018000E4283F08F6003E08F70080308D3119253D
:1001900080312000C2007708C100C3004208C400BB
:1001A0000030C41BFF30C600C5004308B707440831
:1001B0000318440FB80745080318450FB907460848
:1001C0000318460FBA07072920003C08F6003B0831
:1001D000F70080308D31192580312000C20077086A
:1001E000C100C3004208C4000030C41BFF30C60079
:1001F000C5004308B70744080318440FB80745086B
:100200000318450FB90746080318460FBA07200020
:10021000C00A40304002031CBC28370E0F39BB0017
:10022000380EBC00F039BB04BC06390EBD00F039F5
:10023000BC04BD063A0EBE00F039BD04BE06F03067
:10024000BE19BE040310BE1B0314BE0CBD0CBC0CB7
:10025000BB0C0310BE1B0314BE0CBD0CBC0CBB0CB2
:10026000153046262000B8007708B700B9003808D6
:10027000BA00BF01C0013908BB073A0803183A0F9A
:10028000BC073F0803183F0FBD0740080318400F85
:10029000BE073B082100A00020003C082100A1006F
:1002A0002000B401B501D921EF232000991F88292E
:1002B0002200131E71292000361E712921002708F3
:1002C0002000B7002100A400210028082000B7006A
:1002D0002100A500210029082000B7002100A60068
:1002E00088292200111E812921002E08093A031DA8
:1002F00081290030F60021002208F7002308C724D6
:1003000088290130F60021002008F7002108C724C1
:1003100021001C082000B700B8013708BA00B90155
:1003200021001B082000B700B8013708B9043808BD
:10033000BA043908B7003A08B8003708B4073808D3
:100340000318380FB50721009D1420009310640096
:100350004D2808006A30210099000C308C002200E2
:100360008C0124008C1021008D0122008D012100C0
:100370008E01023023008C0021001E169E170930CA
:100380009D009D1423008E01053020009C00FA3052
:100390009B00210091147A30280097001715F43043
:1003A000960037309E00FA309D00C03020008B0050
:1003B00008002200111DDF292100AE01EE2B2200D2
:1003C000911CE329EE2B2100220823040319F529AF
:1003D00020004808031DF3293C30C800FF302100ED
:1003E000A207031CA3032000C8030A3021002E0229
:1003F0000318EE2B02308A0001302E0703188A0AF8
:1004000082000B2A432A572AA02AB82A052B2F2B11
:10041000452B782B8F2B2200111E182A00304626E0
:100420002100A3007708A20001302100AE00EE2BCE
:100430002200931C2A2A193046262000EF00770854
:10044000EE00173046262000AC007708AE002100F1
:10045000AC00322A173046262000AC007708AE00E8
:100460002100AB00183046262000AC007708AE0013
:10047000AD002D0C03183E2A22001110031C422A45
:1004800022001114EE2B2100AB0122009310111059
:10049000210022082304031DEE2B1A3046262100DA
:1004A000A3007708A20002302100AE00EE2B01303D
:1004B00046262000EF007708EE0002304626200096
:1004C000AC007708AE002100AB002200111421001F
:1004D0002108803E2000AF0020006F08803E2000F1
:1004E0002F02031D772A20006E0821002002031C22
:1004F000982A220093140B3046262000AC0077087F
:10050000AE002100AC002200131661302100A700CC
:10051000C9302100A800FF302100A9001A3046266A
:100520002100A3007708A20003302100AE00EE2BCB
:10053000210022082304031DEE2B22001115EE2BAF
:100540002200131AB02A91142100AF011A30462656
:100550002100A3007708A20004302100AE00EE2B9A
:10056000210022082304031DEE2B22001115EE2B7F
:10057000031021002F0D2000AE000330AE072E081F
:1005800046262000EF007708EE00023046262000C5
:10059000AC007708AE002100AB00220093101114CC
:1005A00021002108803E2000AF0020006F08803E1F
:1005B00020002F02031DE02A20006E0821002002E7
:1005C000031CFD2A220093140B3046262000AC00A9
:1005D0007708AE002100AC00031021002F0D200091
:1005E000AE000430AE072E0846262100A30077088F
:1005F000A20005302100AE00EE2B210022082304CA
:10060000031DEE2B22001115EE2B210022082304DE
:10061000031DEE2B2100AF0A04302F0203181A2B02
:100620001A3046262100A3007708A20004302100DA
:10063000AE00EE2B22001316C1302100A70083303C
:100640002100A800FF302100A9001A304626210011
:10065000A3007708A20006302100AE00EE2B220096
:10066000131A3D2B91141A3046262100A300770857
:10067000A20007302100AE00EE2B21002208230447
:10068000031DEE2B22001115EE2B220093101110EA
:10069000023046262000AD007708AE002100AB00F6
:1006A0000C3046262000AD007708AE00210020085F
:1006B0002000AF00210021082000B0002D083002EA
:1006C000031D642B2E082F02031C702B0E304626B0
:1006D0002100A3007708A20008302100AE00EE2B15
:1006E000210022082304031DEE2B22001115EE2BFE
:1006F0000D3046262000AD007708AE002100AB008B
:10070000210022082304031DEE2B10304626210071
:10071000A3007708A20009302100AE00EE2B0F30B5
:1007200046262000AD007708AE002100AB00200077
:10073000AE01AD01113020002D07AF00462620008C
:10074000B0007708AF0021002206031DCE2B200049
:10075000300821002306031DCE2B3A30200048022A
:10076000031CCE2B22001316D1302100A7008530A8
:100770002100A80020002E0AAF00F53EAF00073090
:100780000318013EB0002F08F6003008F700803053
:100790008D31072583312100A900D62B2000AD0A19
:1007A0002D08AE0004302D02031C9A2B21002208D4
:1007B0002304031DEE2B2100AB0122009310111521
:1007C00013164B302100A700D1302100A800FF30C4
:1007D0002100A900220011122100AE010800220010
:1007E000931C0B2C21002108803E2000A00020003B
:1007F0006F08803E20002002031D022C20006E089E
:10080000210020020318092C21002C082100AB0034
:100810000B2C2100AB01080021002D08031D162C14
:100820006430AD0021002B082000C7002100AD037B
:1008300022000C102100AA142200131E312C4C306F
:1008400021002D022000A001A00D2008A100210CF4
:1008500003182C2C22000C10031C302C22000C142A
:10086000452C2200911C452C1119452C21002D08E6
:1008700001392000A000A100210C0318412C210007
:10088000AA10031C452C2100AA14220091184A2CFE
:10089000111D522C22008C120C1221008C102200EF
:1008A0008C10982C2000470821002D022000A00168
:1008B000031C20142008A100210C0318612C220025
:1008C0008C12031C652C22008C1621002D082000A0
:1008D000A000A1016430A0070318A10A2000470866
:1008E0002000A200A3012108803EA4002308803E2E
:1008F0002402031D7D2C220820022000A401031CD9
:1009000024142408A000200C0318882C22000C12A8
:10091000031C8C2C22000C162200111C942C21008C
:100920008C1422008C10982C21008C1022008C102A
:100930002000A00122008C1E9F2C2000A00A200075
:100940002008003003190130A200A000200C031879
:10095000AB2C2100AA11031CAF2C2100AA152000EA
:10096000A00122000C1EB62C2000A00A20002008A6
:10097000003003190130A200A000200C0318C22C83
:100980002100AA13031CC62C2100AA17080020006E
:10099000AE007708AD007608AF000314AE1F031059
:1009A000031CDB2C21002A122000AD09AE09AD0A80
:1009B0000319AE0ADD2C21002A16003020002F0476
:1009C0000319E52C2100AA122A1520002E08803ECA
:1009D0007D3E031DED2CE8302D02031CFD2C200074
:1009E0002D08B0002E08B1003008F7003108A0250E
:1009F0002000AE007708AD00AF0120002E08803E39
:100A0000803E031D052D64302D02031C392D20006E
:100A10002D08B0002E08B100B20120003108803E40
:100A2000803E031D152D64303002031C1E2D9C30AA
:100A30002000B007031CB103B20A0D2D20003008BE
:100A4000AD003108AE000F30B2053208F53EB200FD
:100A500007300318013EB0003208F6003008F700F6
:100A600080308D31072585312000B1002100A400A0
:100A70003C2DFF302100A40020002E08803E803E47
:100A8000031D442D0A302D020318512D20002F087C
:100A9000031D512D210024082000B000FF3A031946
:100AA000872D20002D08B0002E08B100B2012000D3
:100AB0003108803E803E031D5F2D0A303002031C4A
:100AC000682DF6302000B007031CB103B20A572D81
:100AD00020003008AD003108AE003208F53EB2000B
:100AE00007300318013EB0003208F6003008F70066
:100AF00080308D31072585312000B1002100A5000F
:100B000020002F0803198A2D210025108A2DFF307F
:100B10002100A50020002D08AF00F53EAD000730F4
:100B20000318013EAE002D08F6002E08F7008030B5
:100B30008D31072585312000AF002100A600080077
:100B40002000A0007708A1000310200CA200210CB7
:100B5000A3000310200CA400210CA6000310A40C79
:100B6000A60C2608A30724080318240FA207230EA7
:100B70000F39A600220EA400F039A604A406260808
:100B8000A30724080318240FA2072208A600A40123
:100B90002608A30724080318240FA2070310A20C99
:100BA000A30C0310A20CA30C0310A20CA30C0310A3
:100BB000230DA600220DA4000310A60DA40D031002
:100BC000A60DA40D0310230DA500220DAC002508D1
:100BD000A6072C0803182C0FA4072608A102240836
:100BE000031C240FA0020630A1070318A00A210E3F
:100BF0000F39A600200EA400F039A604A40626088A
:100C0000A30724080318240FA2072308F7002208CB
:100C100008002000A7007708A9007608A800270888
:100C200046262000AB007708AA002806031D1C2ECC
:100C30002B0829060319452E03102000270DAA00B2
:100C400020002A0823009100200028082300930098
:100C500015139513151520008B135530230096009E
:100C6000AA309600951420008B172300151123003D
:100C70009518372E2000121220002908A800A9017B
:100C80002A08A700AA0A271C202E08002000A0007E
:100C9000A101A2010310200DA300200023082300BE
:100CA000910015139513151413082000A000A4013A
:100CB0002008A600A5012208A000A4012008250400
:100CC000A10024082604A2002308A000A30A201CD7
:100CD0004D2E2108F700220808005930F600073091
:100CE000F70080308D31192586312000DE0077082D
:100CF000DD005B30DF000730E00020005D08E10030
:100D00005E08E200FF30DD07031CDE0361086204B9
:100D10000319EA2E04305F07E100E201E20D6008EA
:100D2000E2076108F6006208F70080308D3119256E
:100D300086312000E4007708E3005F08F6006008D1
:100D4000F70080308D31192586312000E600E20061
:100D50007708E500E10002305F07E100E201E20D03
:100D60006008E2076108F6006208F70080308D3104
:100D7000192586312000E200E8007708E100E7004D
:100D800020006308E7006408E800FF30E307031C65
:100D9000E403670868040319E42E6508F600660892
:100DA000F70080308D31072586312000E70061088B
:100DB00084006208850067088000E50A0319E60AD6
:100DC000E10A0319E20AC02E06302000DF070318EB
:100DD000E00A7D2E80314728080061348534FF34D5
:100DE00002346134C934FF34003461340334FF34D5
:100DF00003341934C934B734003419348534B73462
:100E000002341934C9340D340034193485340D34A6
:100E100002341934C9342534003419348534253466
:100E200002341934C934B134003419348534B1343E
:100E3000023419340334FF3403349134C934FF3499
:100E4000003491340334FF34033491348534FF3457
:100E50000234C1340334FF340334C1348534FF34E5
:100E60000234D1348534B7340234D13485340D346E
:100E70000234D134853425340234D1348534B1344C
:100E80000234C934CD34FF34013419348534FF348D
:100E90000434CD340334FF340334CD341934FF34F7
:100EA0000534CD346134193400341134613485345F
:100EB00002340F34003403340034AA3400340134D3
:100EC000003455340D346E34003402340034573459
:100ED0000D34A034003402340034FF340734AB3412
:100EE0000034013400345B340D34AC34003401344C
:100EF00000345C340D34AD340034013400345D34DE
:100F00000D34AE3400340134003459340D34A2347D
:100F10000034023400345E340D34AF340034013414
:100F200000345F340D34B0340034013400346034A4
:100F30000D34B13400340134003461340D34B23432
:100F400000340134003462340D34B33400340134DD
:100F5000003463340D34B434003401340034643468
:100F60000D34B53400340134003400340034D53449
:100F7000FD34C134FE345934FF34CF34FF343034BF
:100F8000003486340034D33400341A3401345C34F1
:100F900001349C340134DA340134163402345134CF
:100FA00002348C340234C7340234023403343F3404
:100FB00003347D340334BD34033401340434483401
:100FC000043494340434E53404343F340534A43414
:100FD0000534173406349E340634443407341E3442
:100FE00008345D340934AB340B340334B7340D3476
:100FF0002534B13461344134373401342134003480
:1010000020008B1322000D082000D60021000E08BE
:101010002000D70022008D01D83021008E0003105F
:101020002100340D2000D800D90120008E1F1A287D
:101030002000D90A20005808DA005908D8005A04BC
:101040002100B4000310340D2000D800D901200085
:101050000E1E2C282000D90A20005808DA00590852
:10106000D8005A042100B4000310340D2000D80029
:10107000D90120000E1F3E282000D90A2000580860
:10108000DA005908D8005A042100B4000310340DC6
:101090002000D800D90120008E1D50282000D90A38
:1010A00020005808DA005908D8005A042100B4007A
:1010B0002000560822008D002000570821008E00D5
:1010C00020008B1721003308031DB30308302100D3
:1010D00031020318BF2C08308A0072303107031820
:1010E0008A0A82007A28CF281329E429012A6B2A48
:1010F000D62A5E2B2200131E8928210034080F39BE
:10110000031D89283408F039031989282200131295
:10111000C12C8830210034052000D600803A031D00
:10112000A828D6012200911C97282000D60A20006A
:101130005608003003190130D700D600560C0318AA
:10114000A32822009110031CA72822009114C12C6F
:101150004430210034052000D600403A031DB42855
:1011600004302100B100C12C2230210034052000C0
:10117000D600223A031DC02801302100B100C12C45
:101180001130210034052000D600113A031DC12C76
:1011900014302100B30002302100B100C12C220024
:1011A000111DDE2803302100A40059302100A500C4
:1011B0002100A600FF302100AA0008292200911C6E
:1011C000EE2819302100A40061302100A50049302B
:1011D0002100A600FF302100AA0008292200931C4C
:1011E000FB280130F60020006E08F7006F088431FC
:1011F000C7248831082921002B082000D600D701F8
:101200000030F6005608F70057088431C7248931AA
:101210002230210034052000D600223A0319C12CC7
:101220002100B101C12C2200111D2229033021000F
:10123000A40059302100A5002100A600FF302100A4
:10124000AA00C2292200111EA829FF302100A600F1
:101250002100AA0021002E08013A031D3629613021
:101260002100A40085302100A500C22921002E08FC
:10127000023A031D422961302100A400C930210037
:10128000A500C22921002E08043A031D6329193044
:101290002100A40083302100A50021002F08F53E85
:1012A0002000D60007300318013ED7005608F6008C
:1012B0005708F70080308D31072589312000D8008C
:1012C0002100A600C22921002E08053A031D842909
:1012D000FF302100A40019302100A50021002F08B3
:1012E000F53E2000D60007300318013ED70056080F
:1012F000F6005708F70080308D310725893120002E
:10130000D8002100A600C22921002E08073A031D9B
:101310009029C1302100A40083302100A500C229FA
:1013200021002E08083A031D9C2991302100A400B9
:10133000C1302100A500C22921002E08093A031D51
:10134000C229C1302100A400FF302100A500C2291C
:101350002200931CB7294B302100A400C930210082
:10136000A500FF302100A6002100AA00C2294B30B1
:101370002100A40003302100A500FF302100A600B9
:101380002100AA00003021003304031DD9291430A4
:10139000B30021002E08013A0319D6292E08053A78
:1013A0000319D62908302E02031CD9290330210045
:1013B000B1001130210034052000D600113A031984
:1013C000C12C2100B101C12C0030F60021002208FF
:1013D000F70023088431C724893121003308031D15
:1013E000F6291430B30002302100B1001130210081
:1013F00034052000D600113A0319C12C2100B10197
:10140000C12C210032082000C90021002A16AA168A
:101410002A15AA141B302000490203185B2A043045
:10142000F70049088D3136258A312000CA00CB01EA
:101430004A08ED3EC9000630CC004B0803184B0F9C
:10144000CC074908F6004C08F70080308D3107259D
:101450008A312000CD002100A40020004A08ED3E82
:10146000CA004B0803184B0F063ECB0001304A0759
:10147000C900CC01CC0D4B08CC074908F6004C083C
:10148000F70080308D3107258A312000CD00210002
:10149000A50002302000CA070318CB0A4A08F6004C
:1014A0004B08F70080308D3107258A312000C900B4
:1014B0002100A600642ADD302100A4008330210031
:1014C000A500D5302100A6006E302100B300053004
:1014D0002100B100C12C0030210033040319782A07
:1014E0008830210034052000D600803A031D7B2A75
:1014F0002100B101C12C2230210034052000D6008A
:10150000203A031D8D2A2100B20A1C303202031832
:10151000B20104302100B100C12C1130210034058A
:101520002000D600103A031DA12A2100B2031C306E
:101530003202031C9D2A1B30B20004302100B1008E
:10154000C12C4430210034052000D600403A031D50
:10155000C12C1B30210032020318B72A3208863111
:1015600046268A312000DC007708DB00D22A2200E0
:10157000111DBE2A2000DB01DC01D22A2200111E2F
:10158000C62A01302000DB00DC01D22A2200931C95
:10159000CE2A02302000DB00DC01D22A03302000FA
:1015A000DB00DC0106302100B100C12C1B30210022
:1015B00032020318152B0430F70032088D3136251E
:1015C0008A312000D600D7015608ED3ED6005708D4
:1015D0000318570F063ED7000330D6070318D70A63
:1015E0005608F6005708F70080308D3107258A31FC
:1015F0002000D80058080319012B5808013A031D90
:101600000B2B0130F60020005B08F7005C088431EA
:10161000C7248B31572B0030F60020005B08F70001
:101620005C088431C7248B31572B21002A16AA1657
:101630002A15AA1420005B085C04031D282B033024
:101640002100A40059302100A5002100A600572B3D
:1016500020005B08013A031D3B2B5C08003A031D88
:101660003B2B19302100A400DD302100A500FF3004
:101670002100A600572B20005B08023A031D4E2BC9
:101680005C08003A031D4E2BCD302100A400C93068
:101690002100A500FF302100A600572BCD302100EE
:1016A000A40003302100A500FF302100A6006E3009
:1016B0002100B30007302100B100C12C003021000F
:1016C0003304031D662B2100B101C12C8830210099
:1016D00034052000D600803A031D722B043021000F
:1016E000B100C12C2100B41E882B2000DB0A031995
:1016F000DC0A5C08803E7D3E031D802BE9305B02E6
:10170000031C9E2B09302000DB070318DC0A9E2BEC
:101710002100341E752CFF302000DB07031CDC0386
:101720005C08803E7D3E031D972BE9305B02031C65
:101730009E2BF7302000DB07031CDC0320005B0836
:10174000F6005C08F700210032082000D00077087E
:10175000D2007608D1001B3050020318512C0430FF
:10176000F70050088D3136258B312000D300D4018D
:101770005308ED3ED0000630D50054080318540F2E
:10178000D5070330D0070318D50A5008F6005508CE
:10179000F70080308D3107258B312000D3005308AE
:1017A000031DE32BC430F3000930F4007030F50062
:1017B000FE30F6005108F7005208D3242000D20072
:1017C0007708D100622C20005308013A031DF92B41
:1017D0006430F3000030F4009C30F500FF30F60078
:1017E0005108F7005208D3242000D2007708D10016
:1017F000622C20005308023A031D0F2CE730F3003F
:101800000330F4000030F5000030F6005108F70016
:101810005208D3242000D2007708D100622C200087
:101820005308033A031D252CC830F3000030F400A0
:101830000030F5000030F6005108F7005208D324BC
:101840002000D2007708D100622C20005308043A0F
:10185000031D3B2CC830F3000030F4000A30F500C3
:101860000030F6005108F7005208D3242000D200BF
:101870007708D100622C20005308053A031D622C22
:101880000130F3000030F4000030F5000030F600C5
:101890005108F7005208D3242000D2007708D10065
:1018A000622C0330F3000030F4000030F50000300B
:1018B000F60020005108F7005208D3242000D2007F
:1018C0007708D10020005108F70052082000DC0002
:1018D0007708DB001F3028001D02031C712CF83034
:1018E0009D0706302100B100C12C44302100340591
:1018F0002000D600403A031DBB2C1B3021003202D1
:1019000003188D2C20005B08F6005C08F70021000E
:101910003208863109268C31B72C20005B085C0424
:10192000031D982C22001115111211109310B72CC1
:1019300020005B08013A031DA52C5C08003A031D3A
:10194000A52C220011111116B72C20005B08023AB9
:10195000031DB32C5C08003A031DB32C22001111A7
:1019600011129314B72C220011111112931004308C
:101970002100B100C12CFA3028009D00C12C2100AB
:10198000B101210031080030031901302000D600D8
:10199000D700570C0318CE2C20009913031CD22C0F
:1019A0002000991708002000C9007708CA007608AF
:1019B000CB007508CC007408CD007308CE004D082C
:1019C000803ECF004908803E4F02031DE92C4A08A3
:1019D0004E020318F02C20004C08F7004B08062D8F
:1019E00020004908803ECF004B08803E4F02031D77
:1019F000FB2C4C084A020318022D20004E08F70069
:101A00004D08062D20004A08F70049080800003A52
:101A100003190E2D803A0319142D00347608840022
:101A2000770885000008080077088A007608820099
:101A30000800003A0319212D803A0319292DF701D6
:101A4000003476088400770885001200F70000084B
:101A500008008D311425F500F60FF703F70A8D31D4
:101A60001425F4007508F700740808002000E90048
:101A70007708EA00EB010830EC002000691C422DD9
:101A80006A08EB0720006908ED0003106D0CE900FF
:101A900003106A0DED00EA006C08ED006D03EC0028
:101AA0006C08031D3D2D6B08080000340034003421
:101AB0000034003400340034003400340034003486
:0A1AC0000034003400340034003418
:020000040001F9
:02000E00D40F0D
:02001000FF3AB5
:00000001FF
